:020000040800F2
:1000000030BD002065010008ED46000809350008F4
:10001000F9450008E914000845E700080000000061
:1000200000000000000000000000000081C1000886
:10003000FD260008000000005F07000819D4000832
:100040007F0100087F0100087F01000841A8000827
:100050007F0100087F0100087F010008A128000837
:100060007F010008B9280008D12800087F01000896
:100070007F0100087F0100087F0100087F01000860
:100080007F0100087F0100087F0100087F01000850
:10009000451600087F0100087F0100087F01000865
:1000A0007F0100087F0100087F0100087F01000830
:1000B00041D50008BDD500083DD600087F010008E5
:1000C0007F0100087F0100087F0100087F01000810
:1000D00015BD000849DA000875DA00087F0100083C
:1000E0007F0100087F0100087F0100080000000078
:1000F0000000000000000000000000000000000000
:100100000000000000000000BDD600087F010008CC
:10011000C5D80008BDD900087F0100087F0100088C
:100120007F0100087F0100087F0100087F010008AF
:100130007F0100087F0100087F0100087F0100089F
:100140007F0100087F0100087F0100087F0100088F
:10015000DFF80CD000F0AAFA00480047810D010832
:1001600030BD00200648804706480047FEE7FEE70E
:10017000FEE7FEE7FEE7FEE7FEE7FEE7FEE7FEE757
:1001800035D400085101000872B6704762B6704756
:10019000EFF3108072B6704780F31088704730BF5D
:1001A000704720BF7047B0FA80F0704790FAA0F017
:1001B000B0FA80F0704790FAA0F070472DE9F05F38
:1001C0000546002092469B468846064681464024C6
:1001D0001BE0284641464746224600F0C2F95346F6
:1001E0005A46C01A914110D311461846224600F0D3
:1001F000A9F92D1A67EB01084F462246012000217C
:1002000000F0A0F917EB00094E41201EA4F10104F3
:10021000DFDC484631462A464346BDE8F09F40EAC7
:1002200001039B0703D009E008C9121F08C0042A74
:10023000FAD203E011F8013B00F8013B521EF9D25B
:100240007047D2B201E000F8012B491EFBD2704783
:100250000022F6E710B513460A4604461946FFF792
:10026000F0FF204610BD30B505462A460B4612F871
:10027000010B13F8014B08B1A042F8D01CB10028C3
:1002800002D06D1CF1E7284630BD10B5044604E0ED
:100290000B7800F8013B03B1491C521EF8D22046EE
:1002A00010BDCAB2401E10F8011F8A4202D00029B8
:1002B000F9D100207047421C10F8011B0029FBD126
:1002C000801A704730B504460020034600E05B1CEE
:1002D000934203D2E05CCD5C401BF8D030BD0346B6
:1002E00011F8012B00F8012B002AF9D118467047AC
:1002F00080EA010210B502F00043400022D04A001B
:100300001FD0010E01EB1261C0F35600C2F356027A
:1003100040F4000042F40002A0FB022000047F39F8
:10032000140400D0401C50EA124001D44000491E81
:10033000C2B20C0604EBD010401C4008802A02D048
:1003400003E0002010BD20F00100002900DA0020A9
:10035000184310BD30B480EA010202F0004530F0CD
:10036000004221F0004013D090B1C30DD40DC2F370
:100370001601C0F31600E41A41F4000140F4000233
:100380007D34914201D3641C00E04900002C02DA64
:1003900030BC002070474FF400000023914201D38D
:1003A000891A034340084FEA4101F7D151B1914204
:1003B00002D14FF0004105E002D24FF0010101E00F
:1003C0006FF0010103EBC450284430BC00F0D9B8F1
:1003D0002DE9FE4F81EA030404F0004421F00041BE
:1003E00000944FF0000B23F0004350EA01045ED06C
:1003F00052EA03045BD0C3F30A54C1F30A552C44F8
:10040000A4F2F3340194A0FB0254C1F3130141F4AC
:100410008011C3F3130343F4801301FB024400FB78
:10042000034E840A970A44EA815447EA8357A4FB9F
:10043000076802958D0A05FB07854FEA932C04FB9C
:100440000C542705029D4FEA065847EA1637B5EBCC
:1004500008056EEB070C870E920E47EA811742EAF9
:100460008312A7FB0201B6EB0B0164EB00042B0D1A
:1004700043EA0C335E1844EB1C50DA465146E7FB66
:100480000201C5F313044FEA0B3343EA14534FEA56
:100490000432019C43EA0603A4F10C040294009C7C
:1004A000CDE900B400F0B3F803B0BDE8F08F002050
:1004B0000146F9E796230022114600F06BB820F0C0
:1004C0000040C10DC0F3160040F400007F2901DA9E
:1004D00000207047962903DCC1F19601C84070479F
:1004E00096398840704700F0004230F000400AD052
:1004F000C10D01F56071C0F3160042EA0151C20856
:1005000040071143704700200146704701F0004347
:1005100030B421F0004150EA010206D00A0DA2F5E4
:100520006072C1F31301002A02DC30BC0020704766
:10053000440F44EAC104C100E01830BC00EBC250D3
:1005400000F01FB8202A04DB203A00FA02F1002054
:1005500070479140C2F1200320FA03F31943904001
:100560007047202A04DB203A21FA02F0002170476C
:1005700021FA02F3D040C2F120029140084319460B
:1005800070470029A8BF7047401C490008BF20F0F1
:100590000100704710B4B0FA80FC00FA0CF050EA89
:1005A000010404BF10BC704749B1CCF1200421FA0A
:1005B00004F411FA0CF118BF012121430843A3EB05
:1005C0000C01CB1D4FEA00614FEA102042BF002012
:1005D00010BC704700EBC35010440029A4BF10BCEE
:1005E0007047401C490008BF20F0010010BC704754
:1005F00010B5141E73F1000408DA401C41F100012B
:1006000092185B411A4301D120F0010010BD2DE981
:10061000F04D92469B4611B1B1FA81F202E0B0FA78
:1006200080F220329046FFF78DFF04460F4640EAE5
:100630000A0041EA0B0153465A46084313D01146BB
:1006400053EA010019D0C8F140025046FFF789FF74
:1006500005460E46504659464246FFF773FF08438B
:1006600005D0012004E020463946BDE8F08D002089
:10067000054346EAE0762C4337430A986305E40ACB
:10068000A0EB08000022FD0A44EA47540A3002D5D4
:1006900000200146E9E7010510196941DDE9084537
:1006A00000196941BDE8F04DA2E70000064C074D76
:1006B00006E0E06840F0010394E807009847103432
:1006C000AC42F6D3FFF748FDB4320108D43201083A
:1006D00070B58C1810F8015B15F0070301D110F804
:1006E000013B2A1106D110F8012B03E010F8016B31
:1006F00001F8016B5B1EF9D12B0705D40023521EB4
:100700000DD401F8013BFAE710F8013BCB1A921C1B
:1007100003E013F8015B01F8015B521EF9D5A14219
:10072000D8D3002070BD00001D484FF6FF71017046
:10073000002080F309881B48016881F308881A4863
:100740004FF08051016062B6FEE717484FF08051CC
:100750000160704714484FF080510160704772B6D5
:10076000EFF3098028B1203880E8F00F0F490968BD
:10077000086000B50E4880475DF804EB0D480E494F
:100780000A78027009480D490A680260106890E80A
:10079000F00F203080F309884EF0040E62B67047E7
:1007A00022ED00E09401002004ED00E08C01002027
:1007B000C96A00081A0100201B01002090010020D6
:1007C00021B1826842F00102826003E0826822F077
:1007D000010282607047000010B50446124884424E
:1007E00008D10121401509F0EBFD0021601509F049
:1007F000E7FD17E00D48844208D10121001509F0FA
:10080000DFFD0021201509F0DBFD0BE008488442E4
:1008100008D10121C80309F0D3FD00214FF40040A5
:1008200009F0CEFD10BD0000002401400028014069
:10083000003C0140014600208A6802F004020AB12F
:10084000012000E0002070470146C86C80B270476C
:100850000246002013680B400BB1012000E000208D
:100860007047014600208A6802F008020AB10120A0
:1008700000E000207047000030B502460020002351
:1008800050680F4C20400D790C6844EA0524204341
:10089000506090680B4C2040D1E902542C434D79B4
:1008A00044EA450420439060D06A20F470000C7C38
:1008B000641EE4B2234340EA0350D06230BD00001E
:1008C000FFFEF0FFFDF7F1FFF0B504460D460020F6
:1008D0000021092D11DDE068A5F10A0606EB4607A7
:1008E000072606FA07F18843A5F10A0606EB460635
:1008F00003FA06F10843E0600CE0206905EB4507C8
:10090000072606FA07F1884305EB450603FA06F1C8
:1009100008432061072A0FDA606B561E06EB860734
:100920001F2606FA07F18843561E06EB860605FACF
:1009300006F10843606322E00D2A0FDA206BD61F10
:1009400006EB86071F2606FA07F18843D61F06EB3B
:10095000860605FA06F10843206310E0E06AA2F17A
:100960000D0606EB86071F2606FA07F18843A2F15B
:100970000D0606EB860605FA06F10843E062F0BDB7
:10098000816841F008018160704721B1826842F4BA
:10099000A002826003E0826822F4A00282607047B5
:1009A000816841F0040181607047000010B507487C
:1009B0000DF05CFB0549083948600846406820B1E5
:1009C00008460179083001F01FFB10BDB0B50020CA
:1009D00000B587B001214FF4017009F0E1FC4FF43C
:1009E000004009F0B1FC0220ADF8040000208DF8B1
:1009F000070001A9174802F055F81748FFF7ECFE69
:100A0000002002908DF80C008DF80D004FF460204E
:100A100004900020059001208DF8180002A90E48CE
:100A2000FFF72AFF01210C48FFF7CAFE0A48FFF72B
:100A3000A7FF00BF0848FFF714FF0028FAD10648B7
:100A4000FFF7AEFF00BF0448FFF7F4FE0028FAD11D
:100A500007B000BD000801400024014000B587B088
:100A6000012140F2044009F09BFC4FF4004009F0E2
:100A70006BFC0120ADF8040000208DF8070001A9EF
:100A8000174802F00FF81748FFF7A6FE0020029063
:100A90008DF80C008DF80D004FF4602004900020BC
:100AA000059001208DF8180002A90E48FFF7E4FE1A
:100AB00001210C48FFF784FE0A48FFF761FF00BFE1
:100AC0000848FFF7CEFE0028FAD10648FFF768FF76
:100AD00000BF0448FFF7AEFE0028FAD107B000BD02
:100AE000000801400028014010B500220346C41749
:100AF00000EB1474C4F307140C70C41700EB1474E7
:100B00002411A0EB04144C7000BF0BE08B5C0A2B8B
:100B100003DA8B5C30338B5402E08B5C37338B54BD
:100B2000531CDAB2022AF1DB10BD00002DE9FF41AF
:100B300004460E460025A07A164908700120487028
:100B400015484079C8711448007988711248C078F6
:100B500048711148807808710F484078C8700E4875
:100B6000007888700846C07989790A4A5279094B19
:100B70001B79084FCDE90032CDE90210FB78BA7835
:100B8000797838780AF0DCFB0125284604B0BDE806
:100B9000F0810000FD020020C1020020F0B58DB000
:100BA00004460E460025A07A2C49087000204873A0
:100BB0008873E07A487000208870207BC87000201D
:100BC0000871607A18B90420487100208871607A31
:100BD000012804D10520214948710020887120484E
:100BE00040791E4908731E480079C8721C48C078B5
:100BF00088721B48807848721948407808721848F3
:100C00000078C87100230846807B497B134A127B19
:100C1000CDE90A03CDE908211048C07A0F49897A45
:100C20000E4A527A0D4B1B7ACDE90432CDE90610FB
:100C30000A48C07909498A794979084B1B79074FD5
:100C4000CDE90031CDE90220FB78BA78797838789F
:100C50000AF0FEFA012528460DB0F0BDD4AE002002
:100C6000C1020020F0B58DB004460E460025A07AE2
:100C700027490870002048738873E07A4870002084
:100C80008870207BC8700020087102204871002005
:100C900088712048407908731E480079C8721D4841
:100CA000C07888721B48807848721A484078087269
:100CB00018480078C87100230846807B497B144A95
:100CC000127BCDE90A03CDE908211148C07A104909
:100CD000897A0F4A527A0E4B1B7ACDE90432CDE95C
:100CE00006100B48C1798079094A5279084B1B7963
:100CF000074FCDE90032CDE90201FB78BA78797867
:100D000038780AF0A5FA012528460DB0F0BD00009C
:100D1000D4AE0020C102002070B504460D46002666
:100D2000E078802802D0E0780A2807D1607A28B9D4
:100D300029462046FFF796FF064624E0E0780B2878
:100D40000AD1607A10B1607A012805D1294620467F
:100D5000FFF724FF064616E0E0780C280BD1607AF6
:100D6000832802D0607A902805D12946204600F0D9
:100D70000DF8064607E0E0780D2804D12946204604
:100D8000FFF7D4FE0646304670BD0000F0B58DB0CA
:100D900004460E460025A07A414908700020487399
:100DA0008873E07A487000208870207BC87000202B
:100DB0000871607A832803D120204871002088714F
:100DC000607A842804D12120354948710020887137
:100DD000607A902804D1222031494871002088711E
:100DE000607A912804D123202D4948710020887110
:100DF000607A852804D140202949487100208871F3
:100E0000607A862804D141202549487100208871E4
:100E1000607A892804D142202149487100208871D4
:100E2000204840791E4908731E480079C8721D4841
:100E3000C07888721B48807848721A4840780872D7
:100E400018480078C87100230846807B497B144A03
:100E5000127BCDE90A03CDE908211148C07A104977
:100E6000897A0F4A527A0E4B1B7ACDE90432CDE9CA
:100E700006100B48C0790A498A794979084B1B79D1
:100E8000074FCDE90031CDE90220FB78BA787978B7
:100E900038780AF0DDF9012528460DB0F0BD0000D4
:100EA000D4AE0020C102002070B504460E460025D5
:100EB0002078802808D02078812805D020788928BB
:100EC00002D02078902805D1314620460CF02AF92E
:100ED000054609E02078012805D1314620460CF06E
:100EE0009DF9054600E000252078712802D0207881
:100EF000722808D16078802805D1314620460CF050
:100F00003DFA054603E06078902800D10025642D65
:100F100003D2A9B202480FF0C1FA284670BD000002
:100F2000E8AE0020024600201378802B11D0137801
:100F3000812B0ED01378892B0BD01378902B08D0EF
:100F400013780B2B05D01378712B02D01378722BEA
:100F500001D1012000E00020704700002DE9F041A0
:100F600005460C464FF0000800260027E2B214495F
:100F700028460CF0B7F9012806D0E2B211492846FC
:100F80000CF0B0F9012802D14FF0000815E003265B
:100F900003E0A85D0744701CC6B2A01EB042F8D89A
:100FA000601E295CA01E285C01EB0020B84202D123
:100FB0004FF0010801E04FF000084046BDE8F08125
:100FC000603101086C31010810B5012009F008FA00
:100FD000002009F005FA10BD08B501460020009078
:100FE000034800900098084400900098008808BDCD
:100FF000006C004008B500220092044A0092009A5A
:1010000002440092009A116008BD0000006C00408C
:1010100000B585B0684609F0E9F9019805B000BD52
:101020002DE9F04104460E460027B84640203249DB
:101030000870487031480078887031480078C8706E
:101040002F480088001208712E48007848712E48F9
:10105000007888710F212848C01DFFF7F9F826484D
:10106000C01D2A490A680260898881800F210F30DB
:10107000FFF7EEF820482530002101604160018132
:101080008172253880F8304000201B4981F83100FA
:1010900081F8320081F83300084631684163BB2C87
:1010A0000AD11B480078144981F834001848008898
:1010B0000112114880F835100F4DED1C4FF000085B
:1010C00007E028783844C7B26D1C08F1010000F031
:1010D000FF08B8F1350FF4DB074880F8387023209B
:1010E000054981F8390081F83A0005480088401C1C
:1010F00003490880BDE8F081F4B8002040030020D7
:101100004203002046030020470300200C02002079
:10111000463101081FB50446224610216846FFF7F4
:1011200090F8802168460DF077FE1FBD2DE9F0474D
:10113000044689464FF0000800272078412834D122
:101140006078412831D165794FF6FF7000EA0525B6
:101150002079284485B2022604E0A05D3844C7B255
:10116000701C86B2681C8642F7DB205CB84202D154
:1011700094F8158005E0681C225C39460CA00EF03E
:101180003DF8E0780F4908600846006800020860F2
:10119000A078096808440B4908600BA00EF02EF8EF
:1011A0000848016809A00EF029F84046BDE8F0871C
:1011B000D0A3D1E9B4EDCEF3A3A125783D25780DD8
:1011C0000A0000004C0300200D0A0000CAFDBEDD2D
:1011D000B0FCD0F2C1D0BAC53D2564A3A10D0A0070
:1011E0002DE9F04104460F460025002639462046E9
:1011F000FFF79CFF0646EE2E02D000202A49086029
:1012000008202A490870A12E33D0A32E17D0A52E6E
:1012100002D0A72E39D121E0A07D25490870E07DBC
:101220002449087000F038F92248027820480178F3
:1012300021A00DF0E3FFA520274908702CE000F065
:1012400033F90025E57D2D02A07D0544294623A024
:101250000DF0D4FFA320204908701DE03946204638
:1012600000F00AF925A00DF0C9FFA7201A4908705F
:1012700012E0AA20FFF74EFFAB201749087024A008
:101280000DF0BCFF0CF056F806E02FA00DF0B6FFF5
:10129000002000F0D5F800BF00BF3B212F4803F02D
:1012A00061FD0120BDE8F0815003002054030020BF
:1012B0004603002047030020312E4135BFAACABC97
:1012C000C3FCC1EE2CB0E6B1BEA3BA25785F2558A9
:1012D0000D0A0D0A0000000048030020322E4133A1
:1012E000B2C1B3FDC3FCC1EE2CD7DCB0FCCAFD3DDE
:1012F0002564A3A10D0A0D0A00000000332E41371A
:10130000B4ABCAE4C3FCC1EEA3A10D0A0D0A0000F0
:10131000342E2A2A2A2A2A2A2A2A2A2A2A2A2A2A1F
:101320002A2A2A2A2A2ACDCBB3F64150502A2A2A21
:101330002A2A2A2A2A2A2A2A2A2A2A2A2A2A2A2A0D
:101340002A0D0A0D0A000000302E5858D2ECB3A323
:10135000B7B5BBD80D0A0D0A00000000F4B8002094
:1013600010B51548007818B314480068401C13499C
:1013700008600846016812A00DF040FF0F480068A1
:101380000321B0FBF1F201FB120088B9124800788A
:1013900001280DDD10480078401E0F4908700F48E5
:1013A0000068401C00F04CF83B210D4803F0DAFCCB
:1013B00000F018F810BD0000480300205003002082
:1013C000506572696F645F526563436E743D256456
:1013D000A3A10D0A00000000540300204C030020CC
:1013E000F4B8002010B512480078F8B11148007820
:1013F00001281BDD0F480078401E0E4908700E487A
:101400000078AB2807D10C48407820B90A49B520AC
:10141000FFF706FE03E00849EE20FFF701FE3B213F
:10142000064803F09FFC0120FFF774FE10BD00008A
:101430005A0300205503002056030020F4B8002072
:1014400038B50446002000900A4800788DF8000066
:1014500008480078A72808D1E0B28DF80100200ADA
:101460008DF80200200C8DF803006946EE20FFF78E
:10147000D7FD38BD4803002038B504460D4600208E
:101480000090294620460DF0A1FB8DF8000069462A
:10149000B920FFF7C5FD38BD08B5002000906946AA
:1014A000BB20FFF7BDFD08BD38B500250024002096
:1014B00000904FF4A81528460DF018FB0446022CA6
:1014C00005D14FF4D81528460DF010FB0446022C28
:1014D00005D16946BD20FFF7A3FD012038BD204698
:1014E000FFF7AEFF0020F9E700BFFEE710B50446A6
:1014F0002CB94FF40071054801F0B1FB04E04FF442
:101500000071024801F0ADFB10BD00000010014069
:1015100030B585B0044604A9104805F07DFE0546A7
:101520001DB104A90D4805F061FD04A800210C4A75
:101530000123CDE90032CDE9021062000B4609A17A
:10154000064805F0CFFC04A9044805F00FFE012071
:10155000FFF7CCFF012005B030BD0000C44B0020D8
:10156000752C0108746D725F62757A7A657200007D
:1015700008B50121102008F013FF4FF40070ADF8FA
:10158000000010208DF8030003208DF8020069464A
:10159000044801F087FA4FF40071024801F05FFB44
:1015A00008BD00000010014017B587B0044600F0E8
:1015B000D1F800208DF816008DF817008DF818006E
:1015C00001208DF8190000208DF81A008DF81B00FD
:1015D0008DF812009DF820008DF813009DF8220070
:1015E0008DF814009DF821008DF81500BDF8240039
:1015F000ADF8100004A9124800F0DBF800208DF8C7
:101600000A008DF80B0001208DF80C000020ADF8C9
:101610000000ADF80200ADF80400ADF80600ADF82A
:10162000080001208DF80D00684600F00FF8012237
:101630000221034800F0B4F803F059F80AB010BDD5
:101640000064004010B50DF0ADFD10BD10B50021D7
:10165000837A012202FA03F13D4A126842F0010244
:101660003B4B1A603A4A1C3212688A43384B1C338F
:101670001A60027BCAB9364A0C3212688A43344B6C
:101680000C331A604288C38842EA0343304A40322E
:10169000847A42F834300288838842EA03432C4A31
:1016A0004032847A02EBC4025360027B012A19D1D2
:1016B000274A0C3212680A43254B0C331A604288C1
:1016C000038842EA0343224A4032847A42F83430A3
:1016D000C288838842EA03431D4A4032847A02EB7F
:1016E000C4025360C27A3AB9194A121D12688A4379
:1016F000174B1B1D1A6006E0154A121D12680A439B
:10170000134B1B1D1A60028932B9114A1432126838
:101710008A430F4B14331A600289012A06D10C4AFE
:10172000143212680A430A4B14331A60427B012AAE
:1017300006D1074A1C3212680A43054B1C331A6053
:10174000034A126822F00102014B1A6010BD00002A
:101750000066004008B50121052008F021FE0121A6
:10176000480608F0FDFD4FF48050ADF8000003205E
:101770008DF8020018208DF803006946074801F033
:1017800091F94FF40060ADF8000048208DF8030097
:101790006946024801F086F908BD000000080140D2
:1017A0001AB143690B43436102E043698B434361D0
:1017B000704730B5024600200023146824F002046C
:1017C0001460146844F00104146000E05B1C546869
:1017D00004F001041CB94FF6FF74A342F6D154681B
:1017E00004F001040CB900206CE08C79012C04D1C8
:1017F000146844F08004146003E0146824F080044A
:101800001460CC79012C04D1146844F040041460B5
:1018100003E0146824F0400414600C7A012C04D115
:10182000146844F02004146003E0146824F02004D9
:1018300014604C7A012C04D1146844F01004146034
:1018400003E0146824F0100414608C7A012C04D195
:10185000146844F00804146003E0146824F00804D9
:101860001460CC7A012C04D1146844F00404146090
:1018700003E0146824F0040414608C78A407CD7885
:1018800044EA05640D7944EA05444D7944EA055477
:101890000D886D1E2C43D461146824F0010414607B
:1018A000002300E05B1C546804F001041CB14FF6F7
:1018B000FF74A342F6D1546804F001040CB1002077
:1018C00000E0012030BD000070B504460025002670
:1018D00024482549097800EB8110007801283FD180
:1018E00020482149097800EB8110808FC0F347160A
:1018F0001C481D49097800EB8110456819481A4BAE
:101900001B7800EB831042681648174B1B7800EBDE
:10191000831000F108012046FEF781FC00201149E8
:10192000114A127801EB821108700E490E4A1278A2
:1019300001EB821148600B490B4A127801EB8211CE
:1019400001F108003221FEF783FC07480078401CB3
:101950000549087008460078142801DB002008704B
:10196000284670BDBCA70020BE02002010B500F5BF
:10197000D87303EB01131B6803F004031372137A8B
:1019800053B900F5D87303EB01131B6840F2FF74E1
:1019900004EA5353136009E000F5D87303EB011315
:1019A0001B686FF0604404EAD303536000F5D873FA
:1019B00003EB01131B6803F00203537200F5D873A5
:1019C00003EB01135B6803F00F03937200F5D87308
:1019D00003EB01135B681B0AD37400F5D87303EBA8
:1019E00001139B68D37200F5D87303EB01139B6856
:1019F0001C0A147300F5D87303EB01139B681C0CCD
:101A0000547300F5D87303EB01139B681B0E93739B
:101A100000F5D87303EB0113DB68D37300F5D873BB
:101A200003EB0113DB681C0A147400F5D87303EB95
:101A30000113DB681C0C547400F5D87303EB01131D
:101A4000DB681B0E937421B9C36843F02003C360A5
:101A500003E0036943F02003036110BD70B5034642
:101A600000201F4C1F4D2D7804EB851461601C4C29
:101A70001C4D2D7804EB8514E26300BF09E01D5C6A
:101A8000174C184E367804EB861408342554441C41
:101A9000E0B28842F3DB0124114D124E367805EB9B
:101AA00086152C700F4C2478641C0E4D2C702C461F
:101AB0002478142C01DB00242C700B4C2478094D65
:101AC0002D78AC420AD1084C2478641C064D2C7049
:101AD0002C462478142C01DB00242C7070BD0000EF
:101AE000BCA70020BD020020BE02002010B500F0FF
:101AF0001FF800F019F810BD10B5002400BF00BF9A
:101B0000FEF746FB044600BF00BF1021054802F067
:101B100075FD00BF00BF2046FEF73EFB00BF00BFC3
:101B200010BD00008A67002010B5FFF7E5FF10BD6B
:101B300010B500200249086000F00AF810BD00004E
:101B4000C00000200149086070470000C00000206C
:101B500010B5FFF75DFA04460848006840F0807051
:101B6000064908600020064948600846006840F0C1
:101B7000010008602046FFF7E5FF10BDFCED00E026
:101B8000001000E00149486870470000001000E0C4
:101B900010B5002007490860002211464FF400707C
:101BA00002F06CFC08F094FF282802D100210CF010
:101BB00007FE10BD7C00002010B50020064908601B
:101BC00006490860064908600120064908600CF0D3
:101BD000A9FC0448006810BDD0010020CC01002001
:101BE000D4010020C80100202DE9F04104460D4633
:101BF00017460026082C2FD2DFE804F02E040A1026
:101C0000161C2228F02128460DF006F9064624E08D
:101C1000302128460DF000F906461EE01021284626
:101C20000DF0FAF8064618E02E2128460DF0F4F8DB
:101C3000064612E0502128460DF0EEF806460CE06C
:101C4000602128460DF0E8F8064606E07021284697
:101C50000DF0E2F8064600E000BF00BF3046BDE8E8
:101C6000F081000038B5002440A00DF0C7FA00BF95
:101C700006E04148015D41A00DF0C0FA601CC4B20D
:101C8000062CF6DB3FA00DF0B9FA3F4801783FA0E3
:101C90000DF0B4FA3C480078022803D141A00DF0C1
:101CA000ADFA02E043A00DF0A9FA46A00DF0A6FAA5
:101CB000002406E04748015D47A00DF09FFA601C34
:101CC000C4B2062CF6DB2FA00DF098FA444945A0CB
:101CD0000DF094FA49A00DF091FA002406E04C486A
:101CE000015D4CA00DF08AFA601CC4B2042CF6DB36
:101CF00024A00DF083FA4848018848A00DF07EFA30
:101D00004C48C07800904B488378427801784AA0CC
:101D10000DF074FA5048C07800904F4883784278AC
:101D200001784EA00DF06AFA5448C07800905348EC
:101D300083784278017852A00DF060FA5848C07854
:101D40000090574883784278017856A00DF056FAF3
:101D50005C4801785CA00DF051FA664966A00DF070
:101D60004DFA6A496AA00DF049FA38BD312EB1BE6C
:101D7000BBFAB5D8D6B73A000C020020202025784F
:101D8000000000000D0A0000A5010020322EB1BEA7
:101D9000BBFACDF8C2E7C4A3CABD3A20202564200F
:101DA00000000000CEDECFDFC4A3CABDA1A30A0D90
:101DB00000000000D3D0CFDFC4A3CABDA1A30A0D89
:101DC00000000000332ED3D0CFDF4D4143B5D8D62D
:101DD000B73A0000400200202578202000000000D3
:101DE000688D0020342ED3D0CFDFB7FECEF1C6F7FA
:101DF000D3F2C3FB3A25730D0A000000352ED3D071
:101E0000CFDFB7FECEF1C6F7B5D8D6B73A0000009F
:101E10005802002025642E005C020020362ED3D00C
:101E2000CFDFB7FECEF1C6F7B6CBBFDA3A25640DE9
:101E30000A00000046020020372ED3D0CFDF4950E1
:101E4000B5D8D6B7202020203A25642E25642E252B
:101E5000642E25640D0A00004A020020382ED3D0DB
:101E6000CFDFD7D3CDF8D1DAC2EB20203A25642ECC
:101E700025642E25642E25640D0A00004E020020E4
:101E8000392ED3D0CFDFC4ACC8CFCDF8B9D82020FD
:101E90003A25642E25642E25642E25640D0A000043
:101EA0005202002031302ED3D0CFDF444E53B7FE44
:101EB000CEF1C6F73A25642E25642E25642E2564BE
:101EC0000D0A0000A401002031312ED3D0CFDF490C
:101ED00050C4A3CABD2020203A256420A3A8313DC8
:101EE000CAD6B6AFA3AC323DD7D4B6AFA3A90D0ABC
:101EF00000000000342E010831322EB3CCD0F2B0F5
:101F0000E6B1BE20A3BA25730A0D00000A3101080C
:101F100031332ED0ADD2E9B0E6B1BE20A3BA2573DD
:101F20000A0D000010B52949294802680A60808816
:101F300088802748F03890F83000264908701E2223
:101F40002349E0392448FEF76AF924482049F0394A
:101F5000096C016022481E49F039C98D0180214871
:101F60001B49F0390A6D0260B1F8541081801E4897
:101F70001749F039096E01601C481549F039496E5E
:101F800001601B481249F039896E016019481049F7
:101F9000F039C96E01600E48F03890F870001649AB
:101FA00008700D480EF038FA144908700848F038E7
:101FB00090F88000AB2808D111490548F038D0F8D6
:101FC0008000086004200F49087010BD0C0200203A
:101FD00060880020A5010020688D002058020020A4
:101FE0005C02002040020020460200204A0200203D
:101FF0004E02002052020020A4010020E001002037
:1020000056030020550300202DE9F041B6B00446E8
:102010000D4620212EA8FEF71BF948211CA8FEF72B
:1020200017F9202114A8FEF713F90026B04600275F
:1020300050228E496846FEF7F2F820783C2803D1FA
:10204000681E205C3E2806D089A00DF0D7F801203C
:1020500036B0BDE8F08120212EA8FEF7F9F848211E
:102060001CA8FEF7F5F8202114A8FEF7F1F8607817
:10207000422814D1A078542811D1E0782B280ED111
:1020800060682E90A0682F900D2D02DDA5F10D0047
:10209000C6B2324604F10C011CA8FEF7C0F80822B3
:1020A0002EA968460BF0E8F8002855D0052E1FD160
:1020B0009DF8700046281BD19DF87100422817D169
:1020C0009DF87200312813D19DF8730031280FD18B
:1020D0009DF8740041280BD101206F490870002041
:1020E0006E4908706E4908606EA00DF087F8BAE07E
:1020F000052E2AD19DF87000462826D19DF8710042
:10210000422822D19DF8720031281ED19DF873001B
:1021100031281AD19DF87400422816D101205F4958
:10212000087000205C4908705D49086063A00DF0EC
:1021300065F868A00DF062F871A00DF05FF8FFF788
:1021400091FD73A00DF05AF88DE0002052490870FF
:102150007AA00DF053F886E05048007801287FD12E
:10216000002708222EA90DF10A000BF085F820B1F6
:1021700076A00DF043F8012768E008222EA905A8F3
:102180000BF07AF860B19DF870003038C0B28DF86D
:102190005000324614A90220FFF726FD074655E0FD
:1021A00008222EA90DF11E000BF066F830B1324660
:1021B0001CA90320FFF718FD074647E008222EA9B7
:1021C0000AA80BF059F858B132461CA914A80DF012
:1021D0009EFC324614A90420FFF706FD074635E0B1
:1021E00008222EA90DF132000BF046F820B157A0BD
:1021F0000DF004F8012729E008222EA90FA80BF002
:102200003BF858B146221CA914A80DF0A8FC1022D6
:1022100014A90620FFF7E8FC074617E008222EA9BC
:102220000DF146000BF028F868B19DF870003038C9
:10223000C0B28DF85000324614A90720FFF7D4FC35
:10224000074603E00CE045A00CF0D8FF012F03D1B6
:1022500045A00CF0D3FF06E04AA00CF0CFFF02E04F
:102260004CA00CF0CBFF0120F2E600001432010874
:10227000C3FCC1EEB8F1CABDB4EDCEF3A3A1C3FC5B
:10228000C1EEBAF3C3E6B2BBD3A6BCD3BBD8B3B5D9
:10229000A3A10D0A00000000D0020020D1020020FE
:1022A000D4020020C3DCC2EBD5FDC8B7A3ACB5F7A0
:1022B000CAD4B4F2D3A1A3A10D0A0000C3DCC2EBBF
:1022C000D5FDC8B72CC5E4D6C3CAB9C4DCA3A10DDB
:1022D0000A0000002A2A2A2A2A2A2A2AD7A2D2E277
:1022E000A3BAC5E4D6C3B2CECAFDBAF3B8B4CEBB66
:1022F000C9E8B1B82A2A2A2A2A2A2A0D0A00000087
:10230000CFB5CDB3B2CECAFDA3BA0D0A000000000E
:102310002A2A2A2A2A2A2A2A2A2A2A2A2A2A2A2A1D
:102320002A2A2A2A2A2A2A2A2A2A2A2A2A2A2A2A0D
:102330002A2A2A2A2A2A0D0A00000000C3DCC2EB3E
:10234000B4EDCEF3A3A10D0A00000000CEDED0A7AD
:10235000C3FCC1EEA3A10D0A00000000CEDED0A791
:10236000C3FCC1EE3A0D0A00C3FCC1EEB4EDCEF3DE
:10237000A3ACBBF2D6D8B8B4D0B4C8EBA3A10D0AB5
:1023800000000000B3C9B9A6D0B4C8EBA3A10D0AE0
:1023900000000000C3FCC1EEB4EDCEF3A3A10D0A12
:1023A000000000004FF416600C490860002088808F
:1023B000C880088148810C208881262088730020ED
:1023C000C873032008740020054908700220887033
:1023D0000120487040F2C710888070470C870020A9
:1023E0001C0200207047000010B501F0C9F8064833
:1023F00000680B2804D900200349086001F09AF80E
:1024000001F0DAF810BD0000CC0200202DE9FE43F7
:1024100004460D464FF00009C846002600BF00BF25
:1024200000BFFDF7B5FE814600BF00BFAA48007897
:10243000401CA949087000BF00BF4846FDF7ACFE2C
:1024400000BF00BF00BF2946204601F0CFFA8046FA
:10245000B8F1020F52D1A148007800EB8010A049DA
:1024600011F83000002848D104209C49097801EB7C
:1024700081119B4A02F831009848007800EB8010E7
:10248000114601EBC00045609449097801EB8111C8
:1024900002EBC10101F108004FF40071FDF7D8FE15
:1024A0008E49097801EB81118D4A02EBC10101F1DE
:1024B00008002A462146FDF7B2FE884806780078D3
:1024C000401C8649087008460078032801DB00207C
:1024D000087002A8CDE9007006EB8610804B03EB74
:1024E000C000406882B206EB861003EBC00000F12A
:1024F000080100237B4806F09DFCBDE0B8F1010F08
:1025000052D17948007800EB8010784911F83000FA
:102510000028F2D104207449097801EB8111734A33
:1025200002F831007048007800EB8010114601EB92
:10253000C00045606C49097801EB811102EBC101D3
:1025400001F108004FF40071FDF782FE6649097839
:1025500001EB8111654A02EBC10101F108002A4635
:102560002146FDF75CFE604806780078401C5E4915
:10257000087008460078032801DB0020087002A8D4
:10258000CDE9007006EB8610584B03EBC0004068A5
:1025900082B206EB861003EBC00000F108010023B5
:1025A000504806F047FC67E05148007800EB801087
:1025B000504911F8300000285ED1A07E022808D1D1
:1025C00004204B49097801EB81114A4A02F8310095
:1025D00007E002204649097801EB8111454A02F8DB
:1025E00031004348007800EB8010424901EBC00005
:1025F00045603F49097801EB81113E4A02EBC10178
:1026000001F108004FF40071FDF722FE3849097806
:1026100001EB8111374A02EBC10101F108002A46A2
:102620002146FDF7FCFD324806780078401C304911
:10263000087008460078032801DB00200870A07E9F
:10264000022805D0A07E052816D1E07E152813D1DA
:1026500002A8CDE9007006EB8610264B03EBC00004
:10266000406882B206EB861003EBC00000F108015F
:1026700000231C4806F0DEFB00BF00BF00BFFDF7D3
:1026800087FD814600BF00BF13480078401E1249F5
:10269000087008460078A0B917480088002809DDAE
:1026A00000BF00BF4846FDF777FD00BF00BF05F043
:1026B0004BFF0DE000BF00BF4846FDF76DFD00BFBA
:1026C00006E000BF00BF4846FDF766FD00BF00BF43
:1026D00000BF2846BDE8FE833401002060000020D2
:1026E000C45A0020002C00205E000020AC540020C2
:1026F0005C000020944E0020F80000207047014646
:1027000000201E2934D2DFE801F0332B29232D2F9E
:1027100033331D253113331F33333333151117274B
:10272000210F333333331B19162022E0572020E0CA
:1027300028201EE079201CE0D2201AE0D22018E0E8
:10274000792016E0322014E0542012E0912010E0AD
:1027500057200EE056200CE018200AE0182008E070
:10276000172006E01E2004E0192002E0792000E096
:1027700000BF00BF704700000EB50749096800910F
:102780000549496801910449896802919DE80E0054
:1027900080E80E000EBD00000803002070B504465E
:1027A0000D4616461820207001206070A570E67056
:1027B000201D07F04DFF0A2070BD000010B5044633
:1027C00015202070012060700448007840F001005E
:1027D000A070E01C07F03CFF092010BD060000209F
:1027E00010B504461C20207001206070A01C07F06A
:1027F0002FFF082010BD000001461920087001209D
:102800004870044800788870024800880012C87038
:10281000042070474631010870B504460D46207FFC
:10282000012808D1207E032805D1607E18B901F067
:102830009BF8012070BD0020FCE7000070B5044645
:102840000D46002007490860002211464FF4007031
:1028500001F014FE08F03CF9282802D100210BF009
:10286000AFFF70BD7C00002010B588B00A4800683A
:1028700000F07F4070B1002007490860022220214B
:102880006846FFF78BFF0446044B22466946022048
:1028900008F05EFE08B010BD7C000020DC60002067
:1028A00008B56946034803F08BFE022000F070F87B
:1028B00008BD00003C29002008B56946034803F024
:1028C0007FFE082000F064F808BD00003C290020CD
:1028D00008B56946034803F073FE102000F058F86D
:1028E00008BD00003C2900200EB50121022000F0A7
:1028F000B9F80220019000208DF808000C208DF816
:10290000090001208DF80A0001A800F047F8032112
:10291000022000F0A7F80820019001A800F03EF87E
:102920000421012000F09EF81020019001A800F081
:1029300035F807208DF8000002208DF801000320F3
:102940008DF8020001208DF80300684601F0E4FED6
:1029500009208DF8000002208DF8010003208DF879
:10296000020001208DF80300684601F0D5FE0A2020
:102970008DF8000002208DF8010003208DF8020080
:1029800001208DF80300684601F0C6FE0EBD000070
:1029900001490860704700001404014000212349E8
:1029A0008279002A3AD00A46126803689A430B4695
:1029B0001A600A1D126803689A430B1D1A60027997
:1029C00011440A6803681A430A60184A08321268F8
:1029D00003689A43154B08331A601A1D126803687E
:1029E0009A43124B0C331A604279102A0ED11A1FE7
:1029F000126803681A430D4B08331A601A1D1268D7
:102A000003681A43094B0C331A600DE007494279F9
:102A100011440A6803681A430A6005E00279114408
:102A20000A6803689A430A60704700000004014086
:102A300010B588B008F04CF8FE280FD008F048F820
:102A400028280BD0022211466846FFF7A7FE04464D
:102A5000034B22466946022008F07AFD08B010BDFB
:102A6000DC60002030B500228B071C0F0F2303FA17
:102A700004F20B4B8C1053F824309343084C8D1008
:102A800044F8253023468C1053F824308C07240F4B
:102A900000FA04F42343024C8D1044F8253030BD75
:102AA000080001402DE9F0410246002500260020E3
:102AB00000230024002791F803C00CF00F0591F8C3
:102AC00003C00CF0100CBCF1000F03D091F802C051
:102AD0004CEA050591F800C0BCF1000F31D0146834
:102AE00000202BE04FF0010C0CFA00F3B1F800C00D
:102AF0000CEA03069E4220D183004FF00F0C0CFA23
:102B000003F7BC4305FA03FC4CEA040491F803C044
:102B1000BCF1280F06D14FF0010C0CFA00FCC2F8F2
:102B200014C00AE091F803C0BCF1480F05D14FF082
:102B3000010C0CFA00FCC2F810C0401C0828D1D3CC
:102B40001460B1F800C0BCF1FF0F34DD5468002000
:102B50002EE000F1080C4FF0010808FA0CF3B1F870
:102B600000C00CEA03069E4221D183004FF00F0CF7
:102B70000CFA03F7BC4305FA03FC4CEA040491F891
:102B800003C0BCF1280F05D100F1080C08FA0CF8BD
:102B9000C2F8148091F803C0BCF1480F07D100F1CE
:102BA000080C4FF0010808FA0CF8C2F81080401C1D
:102BB0000828CED35460BDE8F0810000F0B50A4685
:102BC000002300240021002500F00046B6F1004F4C
:102BD00002D11D4EF16901E01B4E7168C0F303453F
:102BE00083B200F44016B6F5401F08D121F07061A1
:102BF000154E766826F07066134F7E6012E000F482
:102C00008016B6F5801F06D1032606FA05F4A14307
:102C100041F0706106E0460D360103FA06F6B14355
:102C200041F0706122B1460D360103FA06F63143D8
:102C300000F00046B6F1004F02D1034EF16101E011
:102C4000014E7160F0BD000000000140024600200E
:102C500093680B400BB1012000E0002070474161F8
:102C600070470161704770B504460D4629462046FD
:102C700000F004F80646304670BD00002DE9F04330
:102C800085B081460C460025A8464B48007814289C
:102C900002D1B4F5007F03D9002005B0BDE8F08370
:102CA000002784E0454808F00BFD14216846FDF735
:102CB000CFFA4FF400714248FDF7CAFA00264048A7
:102CC00040A10A680260496841600825A01C0DF017
:102CD000B1FE804642466946A01C0DF08BFE00BF47
:102CE00006E01DF8062028466D1C35490A54761C5E
:102CF0004645F6D32C2228466D1C31490A546946B4
:102D0000C4F30720FDF7F0FE9DF8002028466D1C57
:102D10002B490A549DF8012028466D1C0A54E0B244
:102D20006946FDF7E1FE9DF8002028466D1C244908
:102D30000A549DF8012028466D1C0A542946204853
:102D400001F0B4FC002609E019F806001C49FDF763
:102D5000CBFE02211A4801F0A9FC761CA642F3D34F
:102D60000D20174908700A2048700221144801F00C
:102D70009DFC42F210700CF019F8FF211448FDF789
:102D800067FAFF2212490D480BF0FCFA00F0FF0829
:102D9000B8F1050F06D30F490D48FDF764FA08B1E5
:102DA00000207AE74FF47A700CF050FF7F1C002F60
:102DB0003FF478AF012070E7140300204CAF0020EF
:102DC0007EB0002041542B4E4D47533D0000000083
:102DD0007EB200207831010810B504460723012295
:102DE00021460948FDF770FD01210748FDF7CDFD9B
:102DF00000BF02210448FDF72BFD0028F9D002484E
:102E0000FDF722FD10BD0000002401402DE9F04F28
:102E100091B04FF0000B0024A246002004900390D4
:102E200002902820069007A80699FDF711FAA146FE
:102E300012E00120FFF7D0FF07A921F8190005A82B
:102E4000002105230A46CDE90010084603F00CFFD7
:102E500009F1010000F0FF09B9F1140FE9DB4FF0AF
:102E6000000A20E0002416E007A830F8141007AA92
:102E7000601C32F8100081420BDD07A830F814B056
:102E800007A9601C31F8100021F81400601C21F81B
:102E900010B0601CC4B2CAF11300A042E4DC0AF115
:102EA000010000F0FF0ABAF1140FDBDB002406E09A
:102EB000BDF83000FDF7FEFA0290601CC4B2142C7D
:102EC000F6DB4FF08B410298FDF744FA029002982E
:102ED000FDF709FB07464FF06632164BFDF778FA0F
:102EE0000546FDF713FB029013490298FDF700FA1F
:102EF0000546FDF7E4FA049010490298FDF7F8F949
:102F000005464FF08041FDF725FA02900A490298E4
:102F1000FDF7EEF90546FDF7D2FA0390BDF8300053
:102F200040F6AA21884203DD012011B0BDE8F08FF0
:102F30000020FAE766660A4000007A44000040403C
:102F40002DE9F04F91B04FF0000B0024A246002075
:102F50000490039002902820069007A80699FDF798
:102F600077F9A14612E0002000F070F807A921F8D7
:102F7000190005A8002105230A46CDE900100846DE
:102F800003F072FE09F1010000F0FF09B9F1140F1E
:102F9000E9DB4FF0000A20E0002416E007A830F833
:102FA000141007AA601C32F8100081420BDD07A83C
:102FB00030F814B007A9601C31F8100021F8140093
:102FC000601C21F810B0601CC4B2CAF11300A0420A
:102FD000E4DC0AF1010000F0FF0ABAF1140FDBDBB8
:102FE000002406E0BDF83000FDF764FA0290601C92
:102FF000C4B2142CF6DB4FF08B410298FDF7AAF90E
:1030000002900298FDF76FFA07464FF066320D4BBB
:10301000FDF7DEF90546FDF779FA02900A490298B4
:10302000FDF766F90546FDF74AFA0490BDF8300051
:1030300040F62631884203DD012011B0BDE8F08F53
:103040000020FAE766660A4000007A4410B504469C
:103050000723012221460948FDF736FC01210748D4
:10306000FDF793FC00BF02210448FDF7F1FB0028A7
:10307000F9D00248FDF7E8FB10BD00000028014030
:1030800010B588B0002400BF08E0220202F5A0219C
:103090000DEB0400012208F07DFE641C202CF4D30B
:1030A000002412E01DF80400FF280DD0601C00F081
:1030B0001F001DF80000FF2806D14FF4A02000EBF0
:1030C00004205B49086002E0641C202CEAD300BFA6
:1030D000202C7DD3002403E0002056490855641CB1
:1030E000FF2CF9D901205349087016225249514842
:1030F0001030FDF794F80A204E4981F82E001A206E
:1031000081F82F00012081F8300081F83100084655
:103110004A49096801644A4909684164494909689A
:10312000816449490968C1640120424981F88000ED
:10313000022081F890000A2081F8A000002081F888
:10314000A40081F8A500092081F8B000012081F8D1
:10315000B10081F8B20081F8B300302081F8B400EA
:10316000312081F8B50081F8B600392081F8B70028
:10317000012081F8C000002081F8C100012081F801
:10318000C800002081F8C9003048007881F8F000BC
:103190002E48407881F8F1002C48807881F8F200C0
:1031A0002A48C07881F8F3002848007981F8F400B3
:1031B0002648407981F8F5004FF4A0201C490860AA
:1031C0000846006808F02EFF4FF48072184800E0AF
:1031D0000DE00168174808F005FE1548006800F585
:1031E0008070134908600846006808B010BD4FF4AD
:1031F00080720F4801680F4808F0CCFD0C48006849
:1032000000F580700A49086008460068B0F5A42FF0
:1032100002D34FF4A020086005480088C0F30B00DB
:1032200018B90348006808F0FDFE01480068DCE7B3
:10323000DC0100207087002088300108A4300108DC
:10324000A8300108AC300108B0300108B4300108E2
:103250002DE9F047074688463548D0F80001344943
:10326000461A002505E03248405D2C2800D102E0D6
:103270006D1CB542F7D300BF2D48405D2C2802D00D
:103280000020BDE8F08700260124A14613E0291B99
:10329000274A505C0CF020FCFF2800D10DE0291BD0
:1032A000234A505C0CF018FC00FB096609EB89000E
:1032B0004FEA4009641C032CE9D900BFB61E4645FD
:1032C00000D94646002425E0691D2144184A505C77
:1032D0000CF002FCFF2800D11FE004F0010068B1EF
:1032E000691D2144124A505C0CF0F6FB07EB5401B7
:1032F0000978084407EB540108700AE0691D21446D
:103300000B4A505C0CF0E8FB0007000E07EB540181
:103310000870641CB4EB460FD6D300BF044808F015
:10332000CFF9B4EB460F01D13046AAE70020A8E759
:103330004CAF002000200349D1F80011014A881A3F
:10334000704700004CAF002030B5C1B000254FF4ED
:10335000807101A8FCF77CFF0C2409E004F58021B2
:103360002A466D1C01ABD018012208F013FD203451
:10337000B4F5005FF2D300240BE001A8005D5528EE
:1033800006D1601CC0B201A9085CFF2800D102E090
:10339000641CFF2CF1D900BFFF2C5FD84FF4807163
:1033A00001A8FCF755FF4FF4802000EB44112022C8
:1033B00001A808F0EFFC9DF804009DF8051000EB53
:1033C00001209DF8061000EB01409DF8071000EB6E
:1033D0000160314908609DF808009DF8091000EB74
:1033E00001209DF80A1000EB01409DF80B1000EB46
:1033F00001602A4908609DF80C009DF80D1000EB53
:1034000001209DF80E1000EB01409DF80F1000EB1D
:103410000160234908609DF814009DF8151000EB29
:103420000120204908609DF816009DF8171000EB58
:1034300001201D4908609DF818009DF8191000EB47
:1034400001201A490860601C4FF4802101EB4010F4
:10345000174908600846006841B030BD00200E4999
:1034600008600E4908600E4908600E4908600E4960
:1034700008600E4908604FF480200D490860084636
:10348000006808F0CFFD0448006808F0CBFD0BF0A1
:1034900049F80020E0E70000C0010020C40100203E
:1034A000C8010020D0010020CC010020D401002060
:1034B000D801002070B50546002400BF1AE005FAC7
:1034C00004F000F0800018B101200C49086002E00F
:1034D00000200A49086028200CF076FB00200849EB
:1034E000086028200CF070FB01200649C1F8BC01DF
:1034F000601CC4B2082CE2DB70BD0000A081214238
:10350000BC0121420000214200BFFEE710B588B097
:103510006846FFF753F9044600208DF80100044B7C
:1035200022466946022008F013F808B010BD0000DA
:103530004465002010B50E48007840B90C220D49B2
:103540000D480AF067FA0120094908700FE00848A1
:103550000078012808D10C22084907480AF05AFAD5
:1035600000200349087002E000200149087010BDE6
:10357000FC02002048310108004400405431010899
:1035800010B500240B4807F03FF80A490839486095
:103590000846406860B1084641680830FDF7DEFC27
:1035A00004462CB10348083841680830FDF7B4FBE5
:1035B00010BD0000A8A5002010B500240D48FEF79E
:1035C00083F90C49083948600846406880B10846CC
:1035D00041680830FDF7A6FC04464CB1642106485A
:1035E000FCF736FE0348083841680830FDF75CFCFC
:1035F00010BD0000A8A50020E8AE002070B504466C
:1036000000250DF093F9C4F3074000F010F8C4F35F
:10361000072000F00CF804F0F80000F008F8002093
:1036200000F005F805460DF086F9284670BD10B586
:103630000446204608F052FB10BD70B504460D4606
:103640000DF074F9C4F30740FFF7F1FFC4F307204E
:10365000FFF7EDFF04F0F801091DC8B2FFF7E7FF1F
:103660002846FFF7E4FF0DF066F970BD1FB5002096
:10367000009001900290039008480068009008486C
:1036800000680190074800680290074800680390AE
:10369000602168460BF0C0FB1FBD00004602002001
:1036A0004A0200204E020020520200204CF6CC407C
:1036B00001490860704700000030004010B500F07C
:1036C0001FF810BD70B505460C4609A00BF096FD1D
:1036D00045F2555000F028F8284600F019F8204629
:1036E00000F01CF800F00CF8FFF7E0FF70BD0000E0
:1036F000BFB4C3C5B9B7C6F4B6AFA3A100000000FC
:103700004AF6AA20014908607047000000300040D6
:10371000014948607047000000300040014988605E
:103720007047000000300040014908607047000009
:103730000030004070B504460D463048006840F641
:10374000B831884204D22D480068401C2B490860DB
:103750002078012803D1207900F0020030B92078C8
:10376000022810D1607A00F0020060B1244800689D
:10377000962805D222480068401C2149086002E0D2
:1037800096201F4908602078012807D1207900F091
:10379000040070B9607900F0070050B92078022861
:1037A00014D1607A00F0040018B9A07A00F001008A
:1037B00060B114480068962805D212480068401C81
:1037C0001049086002E096200E4908602078182809
:1037D00010D1A07800F0040060B10B480068962872
:1037E00005D209480068401C0749086002E096209D
:1037F000054908600AF096FE70BD0000C80100206F
:10380000D0010020D4010020CC0100200246107F0E
:10381000012806D1107E032803D1507E08B901206B
:1038200070470020FCE700002DE9F0410446002627
:10383000002700254548006800F0807078B14348B3
:10384000008880B2A0420AD14FF000703F49086062
:103850004FF4E1620121401400F010FE03253C48C2
:10386000006800F08070B8B13948008880B2A0428A
:1038700012D14FF00070364908604FF4E162012127
:10388000102000F0FBFD4FF4E1620121880400F0FC
:10389000F5FD022D00DA02252E48006800F0807048
:1038A00070B12C48008880B2A04209D14FF000705E
:1038B000284908604FF4E1620121202000F0DEFD7C
:1038C0002548006800F0807070B12348008880B2FD
:1038D000A04209D14FF000701F4908604FF4E16227
:1038E0000121802000F0CAFD1C48006800F08070B3
:1038F00070B11A48008880B2A04209D14FF0007020
:10390000164908604FF4E1620121402000F0B6FD45
:1039100013480068844217D111480068401C1049C0
:1039200008601048007848B900221146012000F0D4
:10393000A5FD00220121022000F0A0FD204608F094
:1039400081FC0120BDE8F0810020FBE77800002029
:10395000680000206C00002070000020740000202F
:10396000640000201302002010B586B04FF461629D
:103970000221080200F082FD4FF0FF3128200AF0FA
:103980001FFF1248006840F080701049086005A9C8
:103990000F4803F041FC04461CB105A90C4803F094
:1039A00025FB05A800210B4A0123CDE90032CDE912
:1039B00002100B46084A09A1054803F093FA05A92D
:1039C000034803F0D3FB06B010BD00007C000020CC
:1039D000106300203D280008E0220200447574793D
:1039E000566F696365746D720000000010B5024681
:1039F0000023D07E02281BD1107FC0EBC00404EB53
:103A00000010202404EB4000884211D100BF0BE0DD
:103A10002E2403FB04F02430105C00F0020008B1F7
:103A2000012010BD581CC3B2107F9842F0DC3DE06D
:103A3000D07E012819D1107F00EB8000202404EBF8
:103A40004000884211D100230BE003EB83004000CB
:103A50001F30105C00F0020008B10120E1E7581CA3
:103A6000C3B2107F9842F0DC20E0D07E042807D15A
:103A70002A2905D1D07F00F00400B8B10120D0E799
:103A8000D07E152807D1272905D1507F00F00200EC
:103A900060B10120C5E7D07E182807D1282905D1BB
:103AA000507F00F0040008B10220BAE70020B8E718
:103AB00070B503460C4615460022002100BF11E0F8
:103AC00001EB81101F4E06EBC00202F10800834299
:103AD00006D15068A04203D132462970104670BD0D
:103AE000481CC1B20329EBDB002111E001EB81107E
:103AF000154E06EBC00202F10800834206D1506861
:103B0000A04203D1324629701046E8E7481CC1B2F2
:103B10000329EBDB002111E001EB81100B4E06EBDA
:103B2000C00202F10800834206D15068A04203D1CE
:103B3000324629701046D2E7481CC1B20329EBDB9C
:103B40000020CCE7944E0020AC540020C45A002042
:103B5000F0B503460024012000BF08E013F8016B14
:103B600011F8017BBE4201D0002002E0641C9442A7
:103B7000F4D300BFF0BD2DE9F04706460F461546C9
:103B80000024A0463846FCF796FBA84202D9002044
:103B9000BDE8F087002413E03846FCF78CFB814633
:103BA00030194A46394609F0B1FB8046B8F1010F99
:103BB00005D13846FCF77FFB04442046E8E7641C47
:103BC0003846FCF778FB691C081AA042E4D838464E
:103BD000FCF771FB691C081AA04200D100242046A2
:103BE000D6E70146CA1701EB92729210A1EB82024E
:103BF00092B9642091FBF0F200FB121050B94FF41F
:103C0000C87091FBF0F200FB121008B90120704758
:103C10000020FCE70120FAE70020F8E710B588B0A3
:103C20000A480068B0F1007F0ED100200749086003
:103C3000022208216846FEF7B1FD0446044B2246E5
:103C40006946022007F084FC08B010BD680000201F
:103C5000DC60002008B50121084606F0A1FB012127
:103C60004048FEF7ABFF01213F48FEF7A7FF0121C7
:103C7000102006F095FB0121082006F091FB0121A0
:103C8000042006F08DFB0220ADF8000048208DF8DE
:103C9000030003208DF8020069463448FEF702FF56
:103CA0000120ADF8000010208DF8030003208DF8EE
:103CB000020069462D48FEF7F5FE0820ADF8000029
:103CC00048208DF8030003208DF80200694627483C
:103CD000FEF7E8FE0420ADF8000010208DF8030088
:103CE00003208DF8020069462048FEF7DBFE102015
:103CF000ADF8000048208DF8030003208DF8020085
:103D000069461B48FEF7CEFE0820ADF800001020E3
:103D10008DF8030003208DF8020069461448FEF771
:103D2000C1FE05211148FEF79AFF08211048FEF751
:103D300096FF0A210D48FEF794FF10210C48FEF76C
:103D400090FFFEF7D1FD4FF40070ADF80000482061
:103D50008DF8030003208DF8020069460448FEF741
:103D6000A1FE08BD00043000000230000010014038
:103D7000000C014070B500240025002602210948EE
:103D8000FEF764FF044608210648FEF75FFF44EA99
:103D9000800410210448FEF759FFC50044EA0506D7
:103DA000304670BD00100140000C014070B5002489
:103DB000002501214F48FEF754FF04214D48FEF72E
:103DC00050FF08214C48FEF74CFF01214948FEF7FF
:103DD00046FF00BF01E0601CC4B2DC2CFBDBFFF738
:103DE000C9FF0546002401E0601CC4B2142CFBDBB3
:103DF00001214048FEF735FF04213E48FEF731FF20
:103E000008213D48FEF72DFF04213A48FEF727FF21
:103E1000002401E0601CC4B2DC2CFBDBFFF7AAFF2E
:103E200005EB0015002401E0601CC4B2142CFBDB80
:103E300001213048FEF715FF04212E48FEF711FF3F
:103E400008212D48FEF70DFF08212B48FEF707FF3C
:103E5000002401E0601CC4B2DC2CFBDBFFF78AFF0E
:103E600005EB0025002401E0601CC4B2142CFBDB30
:103E700001212048FEF7F3FE04211E48FEF7EFFE65
:103E800008211D48FEF7EBFE40F6DD504540054099
:103E90002DB90020194908701949086012E0174827
:103EA0000078401C1549087008460078042804DA98
:103EB000144800681249086004E004200F490870A3
:103EC0000F4805600E4805680E4800680C490968EF
:103ED00048400B49096808400949086009480560DD
:103EE0000846006820B10846006840F0004070BDF8
:103EF0002846FCE700100140000C01404C00002067
:103F000044000020480000201CB50121082006F0D4
:103F100047FA0121042006F043FA0121084606F081
:103F20003FFA01211D48FEF749FE01211C48FEF71A
:103F300045FE4FF4C070ADF8000010208DF803006E
:103F400003208DF8020069461648FEF7ABFD4FF4DA
:103F5000C0711448FEF785FE4FF40040ADF8000034
:103F600010208DF8030003208DF8020069460E48EA
:103F7000FEF798FD4FF400410B48FEF772FE01AAD0
:103F80000AA10D4801F002F900210C4800F020F8C8
:103F90000121480400F01CF81CBD000000043000A2
:103FA00000023000000C0140000801404C65645FD5
:103FB0004D75746578000000984B0020FFFFFD00F0
:103FC00002480068401C01490860704764000020F6
:103FD0002DE9FC4704460E464FF000090025002756
:103FE000A846B4F1807F7DD2002C7BD0022E79DCF4
:103FF0005848007800280DDD5748007850B95748D8
:104000000068574908605748006857490860012010
:104010005149087000BF00BF00BFFCF7B9F88046E7
:1040200000BF00BF51480078401C5049087000BFD5
:1040300000BF4046FCF7B0F800BF00BF00BF26B18C
:10404000012E0DD0022E21D115E0444800682043F6
:104050004249086043480068A0434249086016E0AE
:104060003E480068A0433D4908603E480068A043C0
:104070003C4908600BE039480068604037490860F7
:104080003848006820433749086000E000BF00BF9F
:1040900030480078E0B930480078012818D130481D
:1040A000056825F003052D48007800F003073D441E
:1040B00025F480452948008800F480473D4327487F
:1040C00005602948006827490860002022490870D7
:1040D00000BF00BF00BFFCF75BF8804600BF00BF19
:1040E000224800E034E00078401E2049087008466D
:1040F0000078A0B91E480088002809DD00BF00BF75
:104100004046FCF749F800BF00BF04F01DFA0DE07F
:1041100000BF00BF4046FCF73FF800BF06E000BF0D
:1041200000BF4046FCF738F800BF00BF00BF01A841
:1041300000231A46194600900E4801F089F80748F6
:1041400000680AF0CFF901AA00210A4801F0ECF951
:10415000BDE8FC871302002034000020400000204E
:1041600038000020300000203C00002034010020F6
:10417000F8000020984B002070B504460D46A17849
:10418000E07801EB0026A07E052812D1E07E1528FC
:104190000FD10020B3490860002211464FF400708F
:1041A00000F06CF906F094FC282802D100210AF0F6
:1041B00007FBE07E012808D105EB85001F2101EBFC
:1041C0004000205C00F00200C8B9E07E02280AD15D
:1041D000C5EBC50000EB0510242101EB4000205C7D
:1041E00000F0020058B9E07E042823D105EB8500D9
:1041F0001F2101EB4000205C00F00400D0B10DF065
:10420000BBFA99480660006840F0807096490860E3
:104210004FF4E1620221102000F030F94FF4E16226
:104220000221480400F02AF94FF0FF3124200AF05F
:10423000C7FA15E1E07E012811D105EB450000EB3E
:10424000C5001E30205C00F0040008BB05EB8500B3
:10425000202101EB4000205C00F00700C0B9E07EA7
:10426000022828D1C5EBC50000EB0510242101EB85
:104270004000205C00F0040050B9C5EBC50000EB25
:104280000510252101EB4000205C00F0010090B1F9
:1042900076480660006840F08070744908604FF40A
:1042A000E1620221202000F0E9F84FF0FF312620E2
:1042B0000AF086FAD4E0E07E012808D105EB8500FB
:1042C0001F2101EB4000205C00F0080068B9E07E8F
:1042D000022818D1C5EBC50000EB0510242101EB25
:1042E0004000205C00F0080068B16148066000688A
:1042F00040F080705E4908604FF4E1620221402086
:1043000000F0BCF8ACE0E07E012808D105EB8500A8
:104310001F2101EB4000205C00F0700068B9E07ED6
:10432000022818D1C5EBC50000EB0510242101EBD4
:104330004000205C00F0700068B14E4806600068E4
:1043400040F080704B4908604FF4E1620221802008
:1043500000F094F884E0E07E182874D1607F102883
:1043600062D008DC01280DD002280CD0042827D008
:10437000082873D137E0202857D0402865D08028FE
:104380006CD163E06BE04FF4E1620121C80300F0FF
:1043900075F80021FE200AF013FA3248006870B167
:1043A0004FF461620221080200F068F806F090FB09
:1043B000282804D04FF4616128200AF001FA4EE069
:1043C0002D48006800F0807038B10DF0D5F94FF439
:1043D000E1620221C80100F051F84FF0FF312420C2
:1043E0000AF0EEF93BE04FF4E16200214FF4802047
:1043F00000F044F806F06CFB242802D100210AF0FA
:10440000DFF91848006870B14FF4616202210802B8
:1044100000F034F806F05CFB282804D04FF461610A
:1044200028200AF0CDF91AE019E0002211464FF4D5
:10443000007000F023F806F04BFB282802D1002181
:104440000AF0BEF90BE00BE008E008E006F040FBE4
:10445000262802D100210AF0B3F900E000BF00BF16
:1044600070BD00007C000020680000206C0000206F
:104470007400002070000020780000202DE9F04139
:1044800086B007460D4690460024B7F1807F74D26F
:10449000002F72D0022D70DC25B900213846FFF7BD
:1044A00097FD6EE0012D04D101213846FFF790FD04
:1044B0001DE0022D1BD102213846FFF789FD05A919
:1044C000314802F0A9FE06468EB905A800212F4A00
:1044D0000223CDE90032CDE9021032231A462CA185
:1044E000294802F0FFFC05A9274802F03FFE0024FE
:1044F0003FE00120A0403840C8B304EB840101EB49
:10450000C401274A02EB810005A902F085FE064698
:104510004EB104EB840101EBC401214A02EB81009E
:1045200005A902F063FDB8F1000F20D005A91D48D0
:1045300020441D4A0123CDE90032CDE9020108EBF8
:1045400088018A0004EB840101EBC401144B03EBE6
:104550008100002315A102F0C5FC04EB840101EBEE
:10456000C4010F4A02EB810005A902F0FFFD601CA7
:10457000C4B2182CBDDB04E0FFE7002006B0BDE8A4
:10458000F0810120FAE70000644B0020890C01084B
:104590006C6564746F67676C65746D720000000011
:1045A00084460020482E0108550C0108746D72786D
:1045B0000000000010B564200BF048FB10BD7047F0
:1045C00030B589B00222042101A8FEF7E7F80546BC
:1045D000074B2A4601A9022006F0BAFF0446054807
:1045E0000460006840F080700249086009B030BD86
:1045F000DC6000207800002000BFFEE730B50546F3
:104600000C4622460021284600F001F830BD2DE975
:10461000F04105460B4694460027002402E03F0285
:104620001F43641C042CFAD3604605F00306294698
:1046300046B1344603E001F8013B401E641C08B15A
:10464000042CF8D30A4601E080C2001F0428FBD2E4
:10465000114602E001F8013B401E0028FAD1BDE8F6
:10466000F081000008B50121042005F099FE012128
:10467000102005F095FE4FF40050ADF8000010201A
:104680008DF8030003208DF8020069460648FEF706
:1046900009FA4FF400510448FEF7E1FA4FF41650BE
:1046A00009F034F908BD00000010014070B504465F
:1046B0000D462946204609F0E1F970BD0021012888
:1046C00000D068B9002107E0064A525C42EA401275
:1046D000044B5A544A1CD1B2034A12789142F3DB7C
:1046E0007047000020870020B4010020704708B503
:1046F0004FF4E06000F048F814208DF8000001202D
:104700008DF8010000208DF8020001208DF80300D3
:10471000684600F001F808BD70B5002100230F22A3
:10472000C47804B3154C246804F4E064C4F5E06470
:10473000210AC1F10403CA40447804FA03F18478E1
:104740001440214309010E4C0678A155047804F069
:104750001F050124AC4005786D11AD0005F1E02581
:10476000C5F8004109E0047804F01F050124AC40BD
:10477000044D0678761145F8264070BD0CED00E03A
:1047800000E400E080E100E002490143024A1160D8
:10479000704700000000FA050CED00E0F8B5074690
:1047A0000C4615461E468DF800408DF801508DF8D8
:1047B000026001208DF803006846FFF7ADFF01227B
:1047C00040F22551384609F024FA0121384609F013
:1047D0008EF9F8BD10B51548007898B90120FFF79B
:1047E0006DFF1348007840F0200011490870002246
:1047F00011460220FFF742FE002201210846FFF782
:104800003DFE12E00020FFF759FF0948007820F034
:10481000200007490870002211460120FFF72EFEF4
:10482000002201210220FFF729FE10BD8100002097
:104830000600002009480078022806D108480078C0
:1048400008B9002070470120FCE7064800780128DD
:1048500001D10020F6E70120F4E70000A5010020C7
:10486000240300208100002008B56946014801F0BA
:10487000A7FE08BD8C3D002008B56946014802F03E
:10488000F3F808BD8C3D0020F8B500240025002673
:1048900088480078401C8749087008460078864997
:1048A0000978884202DB002082490870834800783A
:1048B000022879D182480078012871D08148007897
:1048C000401C80490870084600780A2851DD002005
:1048D00008707D4800787D4908700BF08FFF7A4999
:1048E00008707B480078012804D10846017879A037
:1048F0000AF084FC75480078002830D072480078AF
:1049000000282CD072480078012804D1744801781E
:1049100074A00AF073FC72480078401C704908705B
:1049200008460078012803D0084600785A280BD1A1
:1049300067480078012805D16948027801786EA09F
:104940000AF05CFCFFF790FF654800785A2802DB0C
:1049500000206349087001205C49087009E00020CC
:104960005A4908705A480078012802D168A00AF014
:1049700045FCFEF7DFFC6A49086008460068142819
:104980000ED953480078012804D10846016865A073
:104990000AF034FC6A464FF40041664801F064FFB7
:1049A0004A4805784EE0FFE7FF20634908706348F6
:1049B0000078012803D00BF045FC5F49087044489B
:1049C0000078012804D15C4801785DA00AF016FC4B
:1049D0005948007801280BD15C49087000205C49D7
:1049E00008706A464FF40041524801F03DFF29E04B
:1049F0005148007830B901205449087000205449CA
:104A000008701FE0002051490870012550480078C7
:104A1000401C4F490870084600780A2190FBF1F2CB
:104A200001FB120020B96A46E903424801F01CFF6D
:104A3000474800783C2190FBF1F201FB120008B9D5
:104A4000FFF712FF6807000E42491A4A127888548D
:104A500000240EE03F48005D00F020003D49154A6B
:104A60001278895C01F02001884200D005E0601CCA
:104A7000C4B2114800788442ECDB00BF0E480078D5
:104A8000844213DB33480B490978405C00F0200076
:104A900030B93148007820F020002F49087005E037
:104AA0002D48007840F020002B4908702A480078F3
:104AB000F8BD0000B6010020B4010020A5010020CF
:104AC00024030020BA010020BC010020BB0100200B
:104AD000D00200204E42733D2564A3A10D0A0000C0
:104AE000B50100204E42CDF8C2E7D2ECB3A33D257C
:104AF00064A3A10D0A0000004E42D0C2D7A2B2E1C9
:104B00003D2564A3A1B4CECAFD3D25640D0A000075
:104B10004E42CDF8C2E7D5FDB3A3A3A10D0A000014
:104B2000A80100204E42CAD5CAFD2564B8F60D0A78
:104B300000000000F00E0020B80100202503002036
:104B40005735733D2564A3A10000000081000020BB
:104B5000B901002020870020B701002000B589B0EE
:104B6000302101A805F0BAFF9DF804001049087033
:104B700008460078022809D114200E490870FFF772
:104B800071FD48F6A0400C49086008E0462009493C
:104B900008700AF0AFF840F6B830074908602022E4
:104BA000044801780548FBF74CFB09B000BD000044
:104BB000A5010020B4010020AC01002020870020C6
:104BC0000EB5002400BF00BF35480078022801D090
:104BD000FFF752FE63E033A00AF010FB3048007884
:104BE000022836D101203449087041033348FEF7CA
:104BF00038F802A80021C8230A46CDE9001008466B
:104C000002F032F84FF400512C48FEF728F802A8C1
:104C100000210B460622CDE90010084602F024F8D8
:104C20000BF034FE0446012C0AD11D4800780228FE
:104C300006D123A00AF0E2FA02201F49087005E01D
:104C400000201D49087022A00AF0D8FAFFF714FED0
:104C500025E001202249087022480078012809D067
:104C60000020214908700BF0AFFC0446012C01D153
:104C7000FEF7FCFC02A800210B460122CDE9001042
:104C8000084601F0F1FF0BF00BFD0446012C01D1A9
:104C900006F0C8FB002012490870FFF7EDFD9AE707
:104CA000A5010020CDF8C2E7D2ECB3A3D6D8C6F454
:104CB000A3A10D0A00000000240300200010014001
:104CC0004E42B9D2CDF8CAA7B0DCA3A10A0D0000AC
:104CD0004E42B9D2CDF8B3C9B9A6A3A10A0D0000BE
:104CE00025030020A40100205F02002070B50546C6
:104CF000002413480078022818D112480078E8B937
:104D000011480068142819D94FF400712846FEF79D
:104D10009FFA04460D480078012803D121460CA0D3
:104D20000AF06CFA00200849086007E00C48007897
:104D3000012803D028460BF0ADFA0446204670BD8A
:104D4000A501002024030020A8010020D00200209B
:104D50004E42BDD3CAD52564B8F6210D0A00000025
:104D60002503002070B504460D460026094800784A
:104D7000022804D129462046FDF775FF07E00648C2
:104D80000078012803D0294620460BF0EDFA304682
:104D900070BD0000A50100202503002010B50446C9
:104DA00000BFFFF70DFF10BD1548164816481748FD
:104DB000174818481848194819481A481A481B48EB
:104DC0001B481C481C481D481D481E481E481F48BB
:104DD0001F4820482048214821482248224823488B
:104DE000234824482448254825482648264827485B
:104DF0002748284828482948294800BF704700000C
:104E0000182F0108782E01087C2E0108802E010839
:104E1000842E0108882E01088C2E0108902E01088E
:104E2000942E0108982E01089C2E0108A02E01083E
:104E3000A42E0108A82E0108AC2E0108B02E0108EE
:104E4000B42E0108B82E0108BC2E0108C02E01089E
:104E5000C42E0108C82E0108CC2E0108D02E01084E
:104E6000D42E0108D82E0108DC2E0108E02E0108FE
:104E7000E42E0108E82E0108EC2E0108F02E0108AE
:104E8000F42E0108F82E0108FC2E0108002F01085D
:104E9000042F0108082F01080C2F0108102F01080A
:104EA000142F010810B50348006810B101480068CC
:104EB000804710BDD800002070B5044600F0C2F84D
:104EC0000020484908704849087048490870484916
:104ED00008604849086048490870484908704849CE
:104EE00008704849086048490860484908604849CE
:104EF0000870484800680A21B0FBF1F04649086094
:104F00004648006858B14648056845B143480668B8
:104F100003E0761E002028602D1D002EF9D1002010
:104F200040490860404908604049086040490860BD
:104F3000404908604049086040490860404908709D
:104F400003F06AF903F04AFA204602F085FA208855
:104F500000B170BD204602F067FE208800B1F8E77E
:104F6000204602F089FE208800B1F2E7204602F0D8
:104F7000A1FF208800B1ECE7204603F07DF92088EE
:104F800000B1E6E7204603F0B9FB208800B1E0E776
:104F9000204603F0DBFE208800B1DAE7204602F06D
:104FA000AFFD208800B1D4E7204602F0C7FB20887F
:104FB00000B1CEE7204604F039FE208800B1C8E7F2
:104FC000204603F007FE208800B1C2E7204604F027
:104FD000CDFE208800B1BCE702F066F9FFF7E4FEE1
:104FE00000BFB6E7EC000020ED00002034010020F7
:104FF0008C010020900100201A0100201B010020DC
:105000001C010020280100202C010020300100207C
:105010003C010020D82E010838010020A82E0108EC
:10502000A42E0108CC000020D0000020D4000020D5
:10503000D8000020DC000020E0000020E400002078
:105040006A0100200A4A1168002002E0002204C11F
:10505000401C084A12689042F8D3054A1268054B72
:105060001B6802EB8302121F034B1A60704700009B
:10507000A42E0108A82E01089401002008480078F9
:10508000012800D0704707480078FA2800DBF9E7CC
:1050900004480078401C0349087000BFF2E7000094
:1050A000ED000020EC00002010B500242E48007810
:1050B000012800D010BD00BFFBF76AF8044600BF0E
:1050C0002A48007828B900BF2046FBF765F800BFE2
:1050D000F0E726480078401E24490870084600780A
:1050E000002805DD00BF2046FBF756F800BFE1E7CA
:1050F0001F480078002805DD00BF2046FBF74CF86C
:1051000000BFD7E703F074F81A4908700846007822
:1051100000EB4000184951F8200018490860084683
:10512000006817490968884205D100BF2046FBF78F
:1051300033F800BFBEE711480068D0F89000401C6B
:105140000E490968C1F890000E480068401C0D49DE
:1051500008604FF080500C49086000BF2046FBF704
:105160001BF800BF00BFA5E7ED000020EC00002009
:10517000340100201B010020C07D00209001002090
:105180008C0100206001002004ED00E02DE9F041D9
:1051900004460E461546002729480078002804DDFD
:1051A00042F6E1602880BDE8F0811CB945F6C350A5
:1051B0002880F8E700BF00BF00BFFAF7E9FF074605
:1051C00000BF00BF1F480078401C1E49087000BF88
:1051D00000BF3846FAF7E0FF00BF00BF00BF1A4823
:1051E000206066600020206284F82500A0624020D4
:1051F00084F8240004F1080002F013FF204602F0B6
:1052000041FE12480088401C1049088000BF00BFC2
:1052100000BFFAF7BDFF074600BF00BF094800788E
:10522000401E0849087000BF00BF3846FAF7B4FFB7
:1052300000BF00BF00BF0020288000BFB3E7000010
:10524000EC000020340100204D5554581801002076
:105250002DE9F04788B00546894690461C46109EC9
:105260004FF0000AAB480078002805DD46F2AE108A
:10527000308008B0BDE8F0871DB945F6C3503080D6
:10528000F7E7B8F1000F03D0B8F5004F02D100E006
:1052900000BF03E045F625603080EAE700BF9E4985
:1052A0002868884203D045F6C4503080E1E70CB14D
:1052B0000020206000BF00BFFAF76AFF824600BFEF
:1052C00000BF95F82500C0B994480068286293484B
:1052D000006890F8370085F82400012085F8250043
:1052E0000CB1A86A206000BF00BF5046FAF754FF17
:1052F00000BF00BF00203080BBE78849286A0968EA
:10530000884212D195F82500401C85F825000CB183
:10531000A86A206000BF00BF5046FAF73DFF00BFFB
:1053200000BF45F282703080A3E708F4004050B11E
:1053300000BF00BF5046FAF72FFF00BF00BF46F284
:10534000B010308095E77648007800280ADD00BF6D
:1053500000BF5046FAF720FF00BF00BF46F663507B
:10536000308086E700BF6E480078401C6C490870AA
:1053700000BF00BF5046FAF70FFF00BF00BF00BFDD
:105380002F6A97F837006549096891F83710884205
:1053900060DD97F8360008282AD2DFE800F004150F
:1053A0001E1F17162021384603F0A0F85B4800683E
:1053B00090F8370087F8370097F8370002F038FF89
:1053C000384603F033F844E000BF00BF534800689C
:1053D00090F8370087F837003BE000BF00BF00BF00
:1053E0004E48006890F83710384602F0F7FD30E07C
:1053F00000BF00BF00BFFAF7CBFE824600BF00BF70
:1054000047480078401E4649087008460078A0B911
:1054100044480088002809DD00BF00BF5046FAF765
:10542000BBFE00BF00BF03F08FF80DE000BF00BF60
:105430005046FAF7B1FE00BF06E000BF00BF50467D
:10544000FAF7AAFE00BF00BF00BF46F62D6030800D
:105450000FE700BF4B4604222946684602F036FD9E
:1054600000BF00BF00BFFAF793FE824600BF00BF37
:105470002B480078401E2A49087000BF00BF5046E4
:10548000FAF78AFE00BF00BF00BF00F073F900BF4B
:1054900000BFFAF77DFE824600BF00BF1F480068CC
:1054A00090F8350030B101280CD002281AD003281A
:1054B00021D110E01CB119480068006C2060002068
:1054C00030801CE01CB115480068006C206046F27A
:1054D000A910308013E00CB10020206047F2D920E1
:1054E00030800CE01CB10D480068006C206045F66F
:1054F000C250308003E046F62E60308000BF00BF0F
:1055000000BF00BF5046FAF747FE00BF00BF00BF14
:10551000AFE60000EC0000204D5554588C010020EF
:1055200034010020F80000202DE9F84F0446884699
:1055300015464FF0000A89480078002804DD46F23D
:105540000E202880BDE8F88F1CB945F6C35028808E
:10555000F8E7B8F1000F03D0B8F5004F02D100E032
:1055600000BF03E045F625602880EBE700BF7C49DB
:105570002068884203D045F6C4502880E2E700BF87
:1055800000BFFAF705FE824600BF00BF7549206ADA
:10559000096888420AD000BF00BF5046FAF7FCFDF8
:1055A00000BF00BF45F281702880CBE700BF6E4886
:1055B0000078401C6C49087000BF00BF5046FAF7E5
:1055C000EBFD00BF00BF00BFFCF7DCFA0746A76297
:1055D00094F82500401E84F8250094F82500002842
:1055E00030DD00BF00BF00BFFAF7D2FD824600BF2A
:1055F00000BF5D480078401E5B490870084600788F
:10560000A0B95A480088002809DD00BF00BF5046F5
:10561000FAF7C2FD00BF00BF02F096FF0DE000BF29
:1056200000BF5046FAF7B8FD00BF06E000BF00BF5C
:105630005046FAF7B1FD00BF00BF00BF45F28370CE
:1056400028807FE704F10809B9F8080098BB00201A
:10565000206284F8250000BF00BF00BFFAF798FD64
:10566000824600BF00BF40480078401E3E49087097
:1056700008460078A0B93D480088002809DD00BF31
:1056800000BF5046FAF788FD00BF00BF02F05CFF84
:105690000DE000BF00BF5046FAF77EFD00BF06E0F8
:1056A00000BF00BF5046FAF777FD00BF00BF00BF44
:1056B0000020288046E7FFE72A48006890F8370076
:1056C00094F82410884219D02648006802F00EFF92
:1056D00094F824002349096881F8370021490968B2
:1056E00091F8370002F0A4FD1E48006802F0BEFEEB
:1056F0001C48006890F837001D490870D9F8000070
:105700008668266296F8370084F82400012084F821
:10571000250000231A4631462046009702F0F2FC8D
:1057200000BF00BF00BFFAF733FD824600BF00BFD5
:105730000D480078401E0C49087000BF00BF50465D
:10574000FAF72AFD00BF00BF00BF08F4004008B907
:1057500000F010F80020288000BFF3E6EC000020E5
:105760004D5554588C01002034010020F8000020D1
:105770001A01002010B5002420480078002800DD20
:1057800010BD1F480078002800DDF9E700BFFAF7D8
:10579000FFFC044600BF02F02BFD1A4908700846C2
:1057A000007800EB4000184951F8200017490860C4
:1057B0000846006816490968884205D100BF20469E
:1057C000FAF7EAFC00BFDBE710480068D0F8900069
:1057D000401C0E490968C1F890000E480068401C42
:1057E0000C4908604FF080500B49086000BF20460C
:1057F000FAF7D2FC00BF00BFC2E70000EC000020B7
:10580000340100201B010020C07D002090010020F9
:105810008C0100206001002004ED00E070B504461A
:10582000002518480078002803DD46F662502080E5
:1058300070BD15480078012803D045F689602080A6
:10584000F6E712480078FA2803DB45F209202080A9
:10585000EEE700BF00BFFAF79BFC054600BF00BFA4
:105860000A480078401C0949087002F09BFE00BFFE
:1058700000BF2846FAF790FC00BF00BF0020208040
:1058800000BFD5E7EC000020ED000020340100202F
:105890002DE9F04105460C461646002700BF00BF23
:1058A000FAF776FC074600BF00BF012D03D00020A9
:1058B0000D49087002E001200B49087014B10B4833
:1058C000046006E00A4800680A21B0FBF1F00749CD
:1058D000086000BF00BF3846FAF75EFC00BF00BF9B
:1058E00000203080BDE8F0813C010020380100201C
:1058F000D82E010870B504460025204800780028FD
:1059000003DD46F66550208070BD1D4800780128F3
:1059100003D045F689602080F6E71A48007818B968
:1059200046F664502080EFE700BF00BFFAF730FC76
:10593000054600BF00BF13480078401E114908709B
:105940000846007800280ADD00BF00BF2846FAF7A5
:1059500023FC00BF00BF46F663502080D4E702F06E
:105960002FFE00BF00BF2846FAF716FC00BF00BF9D
:10597000FFF700FF0020208000BFC5E7EC000020FB
:10598000ED000020340100202DE9F04104460E46D0
:1059900017461D464FF0000826480078002804DD11
:1059A00042F6E1602880BDE8F0811CB945F6C3509D
:1059B0002880F8E700BF00BF00BFFAF7E9FB804688
:1059C00000BF00BF1C480078401C1B49087000BF86
:1059D00000BF4046FAF7E0FB00BF00BF00BF17481A
:1059E0002060276200206062666004F1080002F017
:1059F00018FB204602F06AFE11480088401C10493E
:105A0000088000BF00BF00BFFAF7C2FB804600BF9E
:105A100000BF09480078401E0749087000BF00BF5A
:105A20004046FAF7B9FB00BF00BF00BF0020288046
:105A300000BFB8E7EC0000203401002053454D4181
:105A4000440100202DE9F04788B00646894690467B
:105A50001C46109D4FF0000A6E480078002806DDB5
:105A600046F2AE102880002008B0BDE8F08726B9C5
:105A700045F6C35028800020F6E7B8F1000F03D0A8
:105A8000B8F5004F02D100E000BF04E045F6256004
:105A900028800020E8E700BF5F493068884204D0D2
:105AA00045F6C45028800020DEE70CB100202060BD
:105AB00000BF00BFFAF76CFB824600BF00BF306A30
:105AC00088B1306A401E30620CB1706A2060376A5B
:105AD00000BF00BF5046FAF75FFB00BF00BF0020C9
