:020000040800F2
:1000000020BD002065010008A13D0008512C00081A
:10001000AD3C00084D10000835DC00080000000071
:1000200000000000000000000000000045B80008CB
:10003000851E0008000000005F070008EDC80008EA
:100040007F0100087F0100087F010008F19E000881
:100050007F0100087F0100087F010008B11F000830
:100060007F010008C91F0008E11F00087F01000888
:100070007F0100087F0100087F0100087F01000860
:100080007F0100087F0100087F0100087F01000850
:100090007F0100087F0100087F0100087F01000840
:1000A0007F0100087F0100087F0100087F01000830
:1000B00015CA000891CA000811CB00087F0100088A
:1000C0007F0100087F0100087F0100087F01000810
:1000D000D9B3000839CF00087F01000865CF0008B8
:1000E0007F0100087F0100087F0100080000000078
:1000F0000000000000000000000000000000000000
:10010000000000000000000091CB00087F01000803
:1001100099CD0008E1CE00087F0100087F010008AA
:100120007F0100087F0100087F0100087F010008AF
:100130007F0100087F0100087F0100087F0100089F
:100140007F0100087F0100087F0100087F0100088F
:10015000DFF80CD000F0AAFA00480047910201082D
:1001600020BD00200648804706480047FEE7FEE71E
:10017000FEE7FEE7FEE7FEE7FEE7FEE7FEE7FEE757
:1001800009C900085101000872B6704762B670478D
:10019000EFF3108072B6704780F31088704730BF5D
:1001A000704720BF7047B0FA80F0704790FAA0F017
:1001B000B0FA80F0704790FAA0F070472DE9F05F38
:1001C0000546002092469B468846064681464024C6
:1001D0001BE0284641464746224600F0C2F95346F6
:1001E0005A46C01A914110D311461846224600F0D3
:1001F000A9F92D1A67EB01084F462246012000217C
:1002000000F0A0F917EB00094E41201EA4F10104F3
:10021000DFDC484631462A464346BDE8F09F40EAC7
:1002200001039B0703D009E008C9121F08C0042A74
:10023000FAD203E011F8013B00F8013B521EF9D25B
:100240007047D2B201E000F8012B491EFBD2704783
:100250000022F6E710B513460A4604461946FFF792
:10026000F0FF204610BD30B505462A460B4612F871
:10027000010B13F8014B08B1A042F8D01CB10028C3
:1002800002D06D1CF1E7284630BD10B5044604E0ED
:100290000B7800F8013B03B1491C521EF8D22046EE
:1002A00010BDCAB2401E10F8011F8A4202D00029B8
:1002B000F9D100207047421C10F8011B0029FBD126
:1002C000801A704730B504460020034600E05B1CEE
:1002D000934203D2E05CCD5C401BF8D030BD0346B6
:1002E00011F8012B00F8012B002AF9D118467047AC
:1002F00080EA010210B502F00043400022D04A001B
:100300001FD0010E01EB1261C0F35600C2F356027A
:1003100040F4000042F40002A0FB022000047F39F8
:10032000140400D0401C50EA124001D44000491E81
:10033000C2B20C0604EBD010401C4008802A02D048
:1003400003E0002010BD20F00100002900DA0020A9
:10035000184310BD30B480EA010202F0004530F0CD
:10036000004221F0004013D090B1C30DD40DC2F370
:100370001601C0F31600E41A41F4000140F4000233
:100380007D34914201D3641C00E04900002C02DA64
:1003900030BC002070474FF400000023914201D38D
:1003A000891A034340084FEA4101F7D151B1914204
:1003B00002D14FF0004105E002D24FF0010101E00F
:1003C0006FF0010103EBC450284430BC00F0D9B8F1
:1003D0002DE9FE4F81EA030404F0004421F00041BE
:1003E00000944FF0000B23F0004350EA01045ED06C
:1003F00052EA03045BD0C3F30A54C1F30A552C44F8
:10040000A4F2F3340194A0FB0254C1F3130141F4AC
:100410008011C3F3130343F4801301FB024400FB78
:10042000034E840A970A44EA815447EA8357A4FB9F
:10043000076802958D0A05FB07854FEA932C04FB9C
:100440000C542705029D4FEA065847EA1637B5EBCC
:1004500008056EEB070C870E920E47EA811742EAF9
:100460008312A7FB0201B6EB0B0164EB00042B0D1A
:1004700043EA0C335E1844EB1C50DA465146E7FB66
:100480000201C5F313044FEA0B3343EA14534FEA56
:100490000432019C43EA0603A4F10C040294009C7C
:1004A000CDE900B400F0B3F803B0BDE8F08F002050
:1004B0000146F9E796230022114600F06BB820F0C0
:1004C0000040C10DC0F3160040F400007F2901DA9E
:1004D00000207047962903DCC1F19601C84070479F
:1004E00096398840704700F0004230F000400AD052
:1004F000C10D01F56071C0F3160042EA0151C20856
:1005000040071143704700200146704701F0004347
:1005100030B421F0004150EA010206D00A0DA2F5E4
:100520006072C1F31301002A02DC30BC0020704766
:10053000440F44EAC104C100E01830BC00EBC250D3
:1005400000F01FB8202A04DB203A00FA02F1002054
:1005500070479140C2F1200320FA03F31943904001
:100560007047202A04DB203A21FA02F0002170476C
:1005700021FA02F3D040C2F120029140084319460B
:1005800070470029A8BF7047401C490008BF20F0F1
:100590000100704710B4B0FA80FC00FA0CF050EA89
:1005A000010404BF10BC704749B1CCF1200421FA0A
:1005B00004F411FA0CF118BF012121430843A3EB05
:1005C0000C01CB1D4FEA00614FEA102042BF002012
:1005D00010BC704700EBC35010440029A4BF10BCEE
:1005E0007047401C490008BF20F0010010BC704754
:1005F00010B5141E73F1000408DA401C41F100012B
:1006000092185B411A4301D120F0010010BD2DE981
:10061000F04D92469B4611B1B1FA81F202E0B0FA78
:1006200080F220329046FFF78DFF04460F4640EAE5
:100630000A0041EA0B0153465A46084313D01146BB
:1006400053EA010019D0C8F140025046FFF789FF74
:1006500005460E46504659464246FFF773FF08438B
:1006600005D0012004E020463946BDE8F08D002089
:10067000054346EAE0762C4337430A986305E40ACB
:10068000A0EB08000022FD0A44EA47540A3002D5D4
:1006900000200146E9E7010510196941DDE9084537
:1006A00000196941BDE8F04DA2E70000064C074D76
:1006B00006E0E06840F0010394E807009847103432
:1006C000AC42F6D3FFF748FDA4270108C427010870
:1006D00070B58C1810F8015B15F0070301D110F804
:1006E000013B2A1106D110F8012B03E010F8016B31
:1006F00001F8016B5B1EF9D12B0705D40023521EB4
:100700000DD401F8013BFAE710F8013BCB1A921C1B
:1007100003E013F8015B01F8015B521EF9D5A14219
:10072000D8D3002070BD00001D484FF6FF71017046
:10073000002080F309881B48016881F308881A4863
:100740004FF08051016062B6FEE717484FF08051CC
:100750000160704714484FF080510160704772B6D5
:10076000EFF3098028B1203880E8F00F0F490968BD
:10077000086000B50E4880475DF804EB0D480E494F
:100780000A78027009480D490A680260106890E80A
:10079000F00F203080F309884EF0040E62B67047E7
:1007A00022ED00E09401002004ED00E08C01002027
:1007B000556100081A0100201B0100209001002053
:1007C00021B1826842F00102826003E0826822F077
:1007D000010282607047000010B50446124884424E
:1007E00008D10121401509F025F90021601509F013
:1007F00021F917E00D48844208D10121001509F0C4
:1008000019F90021201509F015F90BE00848844278
:1008100008D10121C80309F00DF900214FF400406F
:1008200009F008F910BD0000002401400028014033
:10083000003C0140014600208A6802F004020AB12F
:10084000012000E0002070470146C86C80B270476C
:100850000246002013680B400BB1012000E000208D
:100860007047014600208A6802F008020AB10120A0
:1008700000E000207047000030B502460020002351
:1008800050680F4C20400D790C6844EA0524204341
:10089000506090680B4C2040D1E902542C434D79B4
:1008A00044EA450420439060D06A20F470000C7C38
:1008B000641EE4B2234340EA0350D06230BD00001E
:1008C000FFFEF0FFFDF7F1FFF0B504460D460020F6
:1008D0000021092D11DDE068A5F10A0606EB4607A7
:1008E000072606FA07F18843A5F10A0606EB460635
:1008F00003FA06F10843E0600CE0206905EB4507C8
:10090000072606FA07F1884305EB450603FA06F1C8
:1009100008432061072A0FDA606B561E06EB860734
:100920001F2606FA07F18843561E06EB860605FACF
:1009300006F10843606322E00D2A0FDA206BD61F10
:1009400006EB86071F2606FA07F18843D61F06EB3B
:10095000860605FA06F10843206310E0E06AA2F17A
:100960000D0606EB86071F2606FA07F18843A2F15B
:100970000D0606EB860605FA06F10843E062F0BDB7
:10098000816841F008018160704721B1826842F4BA
:10099000A002826003E0826822F4A00282607047B5
:1009A000816841F0040181607047000010B507487C
:1009B0000CF0D4FD0549083948600846406820B16C
:1009C00008460179083000F02FFE10BDA0B50020C8
:1009D00000B587B001214FF4017009F01BF84FF406
:1009E000004008F0EBFF0220ADF8040000208DF875
:1009F000070001A9174801F0DDFB1748FFF7ECFEDF
:100A0000002002908DF80C008DF80D004FF460204E
:100A100004900020059001208DF8180002A90E48CE
:100A2000FFF72AFF01210C48FFF7CAFE0A48FFF72B
:100A3000A7FF00BF0848FFF714FF0028FAD10648B7
:100A4000FFF7AEFF00BF0448FFF7F4FE0028FAD11D
:100A500007B000BD000801400024014000B587B088
:100A6000012140F2044008F0D5FF4FF4004008F0A7
:100A7000A5FF0120ADF8040000208DF8070001A9B2
:100A8000174801F097FB1748FFF7A6FE00200290D9
:100A90008DF80C008DF80D004FF4602004900020BC
:100AA000059001208DF8180002A90E48FFF7E4FE1A
:100AB00001210C48FFF784FE0A48FFF761FF00BFE1
:100AC0000848FFF7CEFE0028FAD10648FFF768FF76
:100AD00000BF0448FFF7AEFE0028FAD107B000BD02
:100AE000000801400028014010B500220346C41749
:100AF00000EB1474C4F307140C70C41700EB1474E7
:100B00002411A0EB04144C7000BF0BE08B5C0A2B8B
:100B100003DA8B5C30338B5402E08B5C37338B54BD
:100B2000531CDAB2022AF1DB10BD10B5012008F027
:100B300091FF002008F08EFF10BD000008B50146AF
:100B4000002000900348009000980844009000980E
:100B5000008808BD006C004008B500220092044ADD
:100B60000092009A02440092009A116008BD0000B1
:100B7000006C004000B585B0684608F071FF019830
:100B800005B000BD2DE9F04104460E460027B846E9
:100B900040203249087048703148007888703148E8
:100BA0000078C8702F480088001208712E4800781D
:100BB00048712E48007888710F212848C01DFFF722
:100BC00047FB2648C01D2A490A680260898881803F
:100BD0000F210F30FFF73CFB20482530002101603A
:100BE000416001818172253880F8304000201B4926
:100BF00081F8310081F8320081F83300084631680D
:100C00004163BB2C0AD11B480078144981F8340099
:100C1000184800880112114880F835100F4DED1C5E
:100C20004FF0000807E028783844C7B26D1C08F17F
:100C3000010000F0FF08B8F1350FF4DB074880F839
:100C400038702320054981F8390081F83A000548B9
:100C50000088401C03490880BDE8F081E4B800200A
:100C60003003002032030020360300203703002029
:100C70000C020020582601081FB504462246102108
:100C80006846FFF7DEFA802168460DF03DFB1FBD88
:100C90002DE9F047044689464FF0000800272078E8
:100CA000412834D16078412831D165794FF6FF7001
:100CB00000EA05252079284485B2022604E0A05DDB
:100CC0003844C7B2701C86B2681C8642F7DB205CD1
:100CD000B84202D194F8158005E0681C225C3946C0
:100CE0000CA00DF0EDFCE0780F49086008460068A4
:100CF00000020860A078096808440B4908600BA04E
:100D00000DF0DEFC0848016809A00DF0D9FC404652
:100D1000BDE8F087D0A3D1E9B4EDCEF3A3A1257847
:100D20003D25780D0A0000003C0300200D0A00005C
:100D3000CAFDBEDDB0FCD0F2C1D0BAC53D2564A36A
:100D4000A10D0A002DE9F04104460F4600250026BA
:100D500039462046FFF79CFF0646EE2E02D00020C3
:100D60002A49086008202A490870A12E33D0A32EF2
:100D700017D0A52E02D0A72E39D121E0A07D25497C
:100D80000870E07D2449087000F038F922480278A4
:100D90002048017821A00DF093FCA5202749087078
:100DA0002CE000F033F90025E57D2D02A07D0544FF
:100DB000294623A00DF084FCA320204908701DE0E3
:100DC0003946204600F00AF925A00DF079FCA7204D
:100DD0001A49087012E0AA20FFF74EFFAB2017490E
:100DE000087024A00DF06CFC0BF048FD06E02FA06D
:100DF0000DF066FC002000F0D5F800BF00BF3B21DD
:100E00002F4803F0F5FA0120BDE8F08140030020EF
:100E1000440300203603002037030020312E4135E3
:100E2000BFAACABCC3FCC1EE2CB0E6B1BEA3BA25B2
:100E3000785F25580D0A0D0A0000000038030020D5
:100E4000322E4133B2C1B3FDC3FCC1EE2CD7DCB0AE
:100E5000FCCAFD3D2564A3A10D0A0D0A0000000097
:100E6000332E4137B4ABCAE4C3FCC1EEA3A10D0AD3
:100E70000D0A0000342E2A2A2A2A2A2A2A2A2A2A55
:100E80002A2A2A2A2A2A2A2A2A2ACDCBB3F64150EC
:100E9000502A2A2A2A2A2A2A2A2A2A2A2A2A2A2A8C
:100EA0002A2A2A2A2A0D0A0D0A000000302E585834
:100EB000D2ECB3A3B7B5BBD80D0A0D0A00000000F1
:100EC000E4B8002010B51548007818B3144800683D
:100ED000401C134908600846016812A00DF0F0FBA1
:100EE0000F4800680321B0FBF1F201FB120088B942
:100EF0001248007801280DDD10480078401E0F4987
:100F000008700F480068401C00F04CF83B210D4869
:100F100003F06EFA00F018F810BD0000380300204E
:100F200040030020506572696F645F526563436ED1
:100F3000743D2564A3A10D0A0000000044030020B5
:100F40003C030020E4B8002010B512480078F8B146
:100F50001148007801281BDD0F480078401E0E491B
:100F600008700E480078AB2807D10C48407820B9AB
:100F70000A49B520FFF706FE03E00849EE20FFF717
:100F800001FE3B21064803F033FA0120FFF774FE0F
:100F900010BD00004A030020450300204603002046
:100FA000E4B8002038B50446002000900A480078D4
:100FB0008DF8000008480078A72808D1E0B28DF825
:100FC0000100200A8DF80200200C8DF8030069460C
:100FD000EE20FFF7D7FD38BD3803002038B50446B2
:100FE0000D4600200090294620460DF067F88DF848
:100FF00000006946B920FFF7C5FD38BD08B50020DF
:1010000000906946BB20FFF7BDFD08BD38B500253F
:101010000024002000904FF4A81528460CF0DEFFB5
:101020000446022C05D14FF4D81528460CF0D6FF03
:101030000446022C05D16946BD20FFF7A3FD01201F
:1010400038BD2046FFF7AEFF0020F9E700BFFEE7FE
:1010500010B504462CB94FF40071054801F0A3F90E
:1010600004E04FF40071024801F09FF910BD000048
:101070000010014030B585B0044604A9104805F0C1
:1010800011FC05461DB104A90D4805F0F5FA04A8A8
:1010900000210C4A0123CDE90032CDE902106200A3
:1010A0000B4609A1064805F063FA04A9044805F0B7
:1010B000A3FB0120FFF7CCFF012005B030BD0000ED
:1010C000B44B002085210108746D725F62757A7AD5
:1010D0006572000008B50121102008F09BFC4FF458
:1010E0000070ADF8000010208DF8030003208DF88B
:1010F00002006946044801F05DF84FF400710248AF
:1011000001F051F908BD00000010014010B500F0D9
:101110001FF800F019F810BD10B5002400BF00BF83
:10112000FFF736F8044600BF00BF1021054802F063
:10113000BFFD00BF00BF2046FFF72EF800BF00BF75
:1011400010BD00007A67002010B5FFF7E5FF10BD65
:1011500010B500200249086000F00AF810BD000038
:10116000C00000200149086070470000C000002056
:1011700010B5FFF7FFFC04460848006840F0807097
:10118000064908600020064948600846006840F0AB
:10119000010008602046FFF7E5FF10BDFCED00E010
:1011A000001000E00149486870470000001000E0AE
:1011B00010B5002007490860002211464FF4007066
:1011C00002F0B6FC08F0DCFF282802D100210CF068
:1011D0006FFD10BD7C00002010B50020064908609E
:1011E00006490860064908600120064908600CF0BD
:1011F00011FC0448006810BDD0010020CC01002083
:10120000D4010020C80100202DE9F04104460D461C
:1012100017460026082C2FD2DFE804F02E040A100F
:10122000161C2228F02128460DF06EF8064624E010
:10123000302128460DF068F806461EE010212846A9
:101240000DF062F8064618E02E2128460DF05CF8F5
:10125000064612E0502128460DF056F806460CE0EE
:10126000602128460DF050F8064606E07021284619
:101270000DF04AF8064600E000BF00BF3046BDE86A
:10128000F081000038B5002440A00DF019FA00BF2D
:1012900006E04148015D41A00DF012FA601CC4B2A5
:1012A000062CF6DB3FA00DF00BFA3F4801783FA07B
:1012B0000DF006FA3C480078022803D141A00DF059
:1012C000FFF902E043A00DF0FBF946A00DF0F8F99C
:1012D000002406E04748015D47A00DF0F1F9601CCD
:1012E000C4B2062CF6DB2FA00DF0EAF9444945A064
:1012F0000DF0E6F949A00DF0E3F9002406E04C48B2
:10130000015D4CA00DF0DCF9601CC4B2042CF6DBCE
:1013100024A00DF0D5F94848018848A00DF0D0F977
:101320004C48C07800904B488378427801784AA0B6
:101330000DF0C6F95048C07800904F488378427845
:1013400001784EA00DF0BCF95448C0780090534885
:1013500083784278017852A00DF0B2F95848C078ED
:101360000090574883784278017856A00DF0A8F98C
:101370005C4801785CA00DF0A3F9664966A00DF009
:101380009FF96A496AA00DF09BF938BD312EB1BEB4
:10139000BBFAB5D8D6B73A000C0200202020257839
:1013A000000000000D0A0000A5010020322EB1BE91
:1013B000BBFACDF8C2E7C4A3CABD3A2020256420F9
:1013C00000000000CEDECFDFC4A3CABDA1A30A0D7A
:1013D00000000000D3D0CFDFC4A3CABDA1A30A0D73
:1013E00000000000332ED3D0CFDF4D4143B5D8D617
:1013F000B73A0000300200202578202000000000CD
:10140000588D0020342ED3D0CFDFB7FECEF1C6F7F3
:10141000D3F2C3FB3A25730D0A000000352ED3D05A
:10142000CFDFB7FECEF1C6F7B5D8D6B73A00000089
:101430004802002025642E004C020020362ED3D016
:10144000CFDFB7FECEF1C6F7B6CBBFDA3A25640DD3
:101450000A00000036020020372ED3D0CFDF4950DB
:10146000B5D8D6B7202020203A25642E25642E2515
:10147000642E25640D0A00003A020020382ED3D0D5
:10148000CFDFD7D3CDF8D1DAC2EB20203A25642EB6
:1014900025642E25642E25640D0A00003E020020DE
:1014A000392ED3D0CFDFC4ACC8CFCDF8B9D82020E7
:1014B0003A25642E25642E25642E25640D0A00002D
:1014C0004202002031302ED3D0CFDF444E53B7FE3E
:1014D000CEF1C6F73A25642E25642E25642E2564A8
:1014E0000D0A0000A401002031312ED3D0CFDF49F6
:1014F00050C4A3CABD2020203A256420A3A8313DB2
:10150000CAD6B6AFA3AC323DD7D4B6AFA3A90D0AA5
:10151000000000004423010831322EB3CCD0F2B0D9
:10152000E6B1BE20A3BA25730A0D00001C260108EF
:1015300031332ED0ADD2E9B0E6B1BE20A3BA2573C7
:101540000A0D000010B52949294802680A60808800
:1015500088802748F03890F83000264908701E220D
:101560002349E0392448FEF75AFE24482049F0393F
:10157000096C016022481E49F039C98D018021485B
:101580001B49F0390A6D0260B1F8541081801E4881
:101590001749F039096E01601C481549F039496E48
:1015A00001601B481249F039896E016019481049E1
:1015B000F039C96E01600E48F03890F87000164995
:1015C00008700D480EF08AF9144908700848F03880
:1015D00090F88000AB2808D111490548F038D0F8C0
:1015E0008000086004200F49087010BD0C02002024
:1015F00050880020A5010020588D002048020020BE
:101600004C02002030020020360200203A02002066
:101610003E02002042020020A4010020E001002040
:1016200046030020450300202DE9F041B6B00446F2
:101630000D4620212EA8FEF70BFE48211CA8FEF720
:1016400007FE202114A8FEF703FE0026B04600275F
:1016500050228E496846FEF7E2FD20783C2803D1EF
:10166000681E205C3E2806D089A00DF029F80120D4
:1016700036B0BDE8F08120212EA8FEF7E9FD482113
:101680001CA8FEF7E5FD202114A8FEF7E1FD607817
:10169000422814D1A078542811D1E0782B280ED1FB
:1016A00060682E90A0682F900D2D02DDA5F10D0031
:1016B000C6B2324604F10C011CA8FEF7B0FD0822A8
:1016C0002EA968460BF090F8002855D0052E1FD1A2
:1016D0009DF8700046281BD19DF87100422817D153
:1016E0009DF87200312813D19DF8730031280FD175
:1016F0009DF8740041280BD101206F49087000202B
:101700006E4908706E4908606EA00CF0D9FFBAE00F
:10171000052E2AD19DF87000462826D19DF871002B
:10172000422822D19DF8720031281ED19DF8730005
:1017300031281AD19DF87400422816D101205F4942
:10174000087000205C4908705D49086063A00CF0D7
:10175000B7FF68A00CF0B4FF71A00CF0B1FFFFF769
:1017600091FD73A00CF0ACFF8DE000205249087091
:101770007AA00CF0A5FF86E05048007801287FD1C0
:10178000002708222EA90DF10A000BF02DF820B138
:1017900076A00CF095FF012768E008222EA905A885
:1017A0000BF022F860B19DF870003038C0B28DF8AF
:1017B0005000324614A90220FFF726FD074655E0E7
:1017C00008222EA90DF11E000BF00EF830B13246A2
:1017D0001CA90320FFF718FD074647E008222EA9A1
:1017E0000AA80BF001F858B132461CA914A80DF054
:1017F000F0FB324614A90420FFF706FD074635E04A
:1018000008222EA90DF132000AF0EEFF20B157A0F8
:101810000CF056FF012729E008222EA90FA80AF094
:10182000E3FF58B146221CA914A80DF0FAFB1022C0
:1018300014A90620FFF7E8FC074617E008222EA9A6
:101840000DF146000AF0D0FF68B19DF87000303805
:10185000C0B28DF85000324614A90720FFF7D4FC1F
:10186000074603E00CE045A00CF02AFF012F03D14E
:1018700045A00CF025FF06E04AA00CF021FF02E095
:101880004CA00CF01DFF0120F2E600000427010827
:10189000C3FCC1EEB8F1CABDB4EDCEF3A3A1C3FC45
:1018A000C1EEBAF3C3E6B2BBD3A6BCD3BBD8B3B5C3
:1018B000A3A10D0A00000000C0020020C102002008
:1018C000C4020020C3DCC2EBD5FDC8B7A3ACB5F79A
:1018D000CAD4B4F2D3A1A3A10D0A0000C3DCC2EBA9
:1018E000D5FDC8B72CC5E4D6C3CAB9C4DCA3A10DC5
:1018F0000A0000002A2A2A2A2A2A2A2AD7A2D2E261
:10190000A3BAC5E4D6C3B2CECAFDBAF3B8B4CEBB4F
:10191000C9E8B1B82A2A2A2A2A2A2A0D0A00000070
:10192000CFB5CDB3B2CECAFDA3BA0D0A00000000F8
:101930002A2A2A2A2A2A2A2A2A2A2A2A2A2A2A2A07
:101940002A2A2A2A2A2A2A2A2A2A2A2A2A2A2A2AF7
:101950002A2A2A2A2A2A0D0A00000000C3DCC2EB28
:10196000B4EDCEF3A3A10D0A00000000CEDED0A797
:10197000C3FCC1EEA3A10D0A00000000CEDED0A77B
:10198000C3FCC1EE3A0D0A00C3FCC1EEB4EDCEF3C8
:10199000A3ACBBF2D6D8B8B4D0B4C8EBA3A10D0A9F
:1019A00000000000B3C9B9A6D0B4C8EBA3A10D0ACA
:1019B00000000000C3FCC1EEB4EDCEF3A3A10D0AFC
:1019C0000000000070B58CB004460D46002035497B
:1019D000087048708870C870087148718871C87143
:1019E000087248728872C8720873487388730861F5
:1019F000A0790870207A487000208870A07AC8709A
:101A000000200871E078012806D1022048710020EA
:101A100088714873887309E0E078022806D10420B1
:101A20002049487100208871487388731E484079A6
:101A30001C4908731C480079C8721B48C07888721A
:101A4000194880784872184840780872164800781B
:101A5000C87108460069897B124A527B114B1B7B77
:101A6000CDE90832CDE90A100E48C27A807A0D49D4
:101A7000497A0C4B1B7ACDE90431CDE906020948BD
:101A8000C17982794079074B1B79064ECDE9003048
:101A9000CDE90221F378B2787178307808F03AFF16
:101AA0000CB070BDC4AE0020B10200207FB504466A
:101AB0000D461A4800781A4908706078AA2801D1A2
:101AC000012048706078AB2802D102201449487088
:101AD000144840791249C871124800798871114838
:101AE000C07848710F48807808710E484078C870F7
:101AF0000C48007888700846C0798979084A52797C
:101B0000074B1B79064ECDE90032CDE90210F37880
:101B1000B2787178307808F075FF7FBDF40200204C
:101B2000EC020020B10200204FF416500749086073
:101B300000208880C880088148810C208881272067
:101B400088730020C873032008747047FC86002047
:101B50007047000030B589B00024122104A8FEF7B8
:101B600077FB0A4A07CA01AB07C3002501F086F8D4
:101B700007480068022806D9082101A808F086F85D
:101B800000200349086009B030BD00005C26010850
:101B9000BC0200202DE9FE4304460D464FF000092B
:101BA000C846002600BF00BF00BFFEF7F1FA81461D
:101BB00000BF00BFAA480078401CA949087000BFB8
:101BC00000BF4846FEF7E8FA00BF00BF00BF294645
:101BD000204601F065FA8046B8F1020F52D1A148C3
:101BE000007800EB8010A04911F83000002848D19F
:101BF00004209C49097801EB81119B4A02F83100CD
:101C00009848007800EB8010114601EBC000456059
:101C10009449097801EB811102EBC10101F108003F
:101C20004FF40071FEF714FB8E49097801EB811126
:101C30008D4A02EBC10101F108002A462146FEF758
:101C4000EEFA884806780078401C864908700846F5
:101C50000078032801DB0020087002A8CDE900709D
:101C600006EB8610804B03EBC000406882B206EBA7
:101C7000861003EBC00000F1080100237B4806F04A
:101C80001FFCBDE0B8F1010F52D17948007800EB9C
:101C90008010784911F830000028F2D104207449EE
:101CA000097801EB8111734A02F83100704800781D
:101CB00000EB8010114601EBC00045606C490978CB
:101CC00001EB811102EBC10101F108004FF4007139
:101CD000FEF7BEFA6649097801EB8111654A02EB0D
:101CE000C10101F108002A462146FEF798FA604832
:101CF00006780078401C5E49087008460078032882
:101D000001DB0020087002A8CDE9007006EB861008
:101D1000584B03EBC000406882B206EB861003EB21
:101D2000C00000F108010023504806F0C9FB67E03D
:101D30005148007800EB8010504911F8300000281D
:101D40005ED1A07E022808D104204B49097801EB1E
:101D500081114A4A02F8310007E002204649097819
:101D600001EB8111454A02F831004348007800EB4D
:101D70008010424901EBC00045603F49097801EB02
:101D800081113E4A02EBC10101F108004FF40071DC
:101D9000FEF75EFA3849097801EB8111374A02EB08
:101DA000C10101F108002A462146FEF738FA3248FF
:101DB00006780078401C30490870084600780328EF
:101DC00001DB00200870A07E022805D0A07E052837
:101DD00016D1E07E152813D102A8CDE9007006EBDC
:101DE0008610264B03EBC000406882B206EB8610DB
:101DF00003EBC00000F1080100231C4806F060FB63
:101E000000BF00BF00BFFEF7C3F9814600BF00BF9F
:101E100013480078401E1249087008460078A0B99F
:101E200017480088002809DD00BF00BF4846FEF7BC
:101E3000B3F900BF00BF05F0CDFE0DE000BF00BF4D
:101E40004846FEF7A9F900BF06E000BF00BF4846BC
:101E5000FEF7A2F900BF00BF00BF2846BDE8FE8321
:101E60003401002060000020B45A0020F02B002034
:101E70005E0000209C5400205C000020844E002066
:101E8000F8000020704700000EB50749096800916E
:101E90000549496801910449896802919DE80E004D
:101EA00080E80E000EBD0000F802002070B5044668
:101EB0000D4616461820207001206070A570E6704F
:101EC000201D07F01DFF0A2070BD000010B504465C
:101ED00015202070012060700448007840F0010057
:101EE000A070E01C07F00CFF092010BD06000020C8
:101EF00010B504461C20207001206070A01C07F063
:101F0000FFFE082010BD00000146192008700120C6
:101F10004870044800788870024800880012C87031
:101F2000042070475826010870B504460D46207FEE
:101F3000012808D1207E032805D1607E18B901F060
:101F40006DF8012070BD0020FCE7000070B504466C
:101F50000D46002007490860002211464FF400702A
:101F600001F0E6FD08F00CF9282802D100210BF061
:101F70009FFE70BD7C00002010B588B00A48006844
:101F800000F07F4070B10020074908600222202144
:101F90006846FFF78BFF0446044B22466946022041
:101FA00008F038FE08B010BD7C000020CC60002096
:101FB00008B56946034803F049FE022000F070F8B6
:101FC00008BD00002C29002008B56946034803F02D
:101FD0003DFE082000F064F808BD00002C29002018
:101FE00008B56946034803F031FE102000F058F8A8
:101FF00008BD00002C2900200EB50121022000F0B0
:10200000B9F80220019000208DF808000C208DF80E
:10201000090001208DF80A0001A800F047F803210B
:10202000022000F0A7F80820019001A800F03EF877
:102030000421012000F09EF81020019001A800F07A
:1020400035F807208DF8000002208DF801000320EC
:102050008DF8020001208DF80300684601F0A2FE11
:1020600009208DF8000002208DF8010003208DF872
:10207000020001208DF80300684601F093FE0A205B
:102080008DF8000002208DF8010003208DF8020079
:1020900001208DF80300684601F084FE0EBD0000AB
:1020A00001490860704700001404014000212349E1
:1020B0008279002A3AD00A46126803689A430B468E
:1020C0001A600A1D126803689A430B1D1A60027990
:1020D00011440A6803681A430A60184A08321268F1
:1020E00003689A43154B08331A601A1D1268036877
:1020F0009A43124B0C331A604279102A0ED11A1FE0
:10210000126803681A430D4B08331A601A1D1268CF
:1021100003681A43094B0C331A600DE007494279F2
:1021200011440A6803681A430A6005E00279114401
:102130000A6803689A430A6070470000000401407F
:1021400010B588B008F01CF8FE280FD008F018F879
:1021500028280BD0022211466846FFF7A7FE044646
:10216000034B22466946022008F054FD08B010BD1A
:10217000CC60002030B500228B071C0F0F2303FA20
:1021800004F20B4B8C1053F824309343084C8D1001
:1021900044F8253023468C1053F824308C07240F44
:1021A00000FA04F42343024C8D1044F8253030BD6E
:1021B000080001402DE9F0410246002500260020DC
:1021C00000230024002791F803C00CF00F0591F8BC
:1021D00003C00CF0100CBCF1000F03D091F802C04A
:1021E0004CEA050591F800C0BCF1000F31D014682D
:1021F00000202BE04FF0010C0CFA00F3B1F800C006
:102200000CEA03069E4220D183004FF00F0C0CFA1B
:1022100003F7BC4305FA03FC4CEA040491F803C03D
:10222000BCF1280F06D14FF0010C0CFA00FCC2F8EB
:1022300014C00AE091F803C0BCF1480F05D14FF07B
:10224000010C0CFA00FCC2F810C0401C0828D1D3C5
:102250001460B1F800C0BCF1FF0F34DD54680020F9
:102260002EE000F1080C4FF0010808FA0CF3B1F869
:1022700000C00CEA03069E4221D183004FF00F0CF0
:102280000CFA03F7BC4305FA03FC4CEA040491F88A
:1022900003C0BCF1280F05D100F1080C08FA0CF8B6
:1022A000C2F8148091F803C0BCF1480F07D100F1C7
:1022B000080C4FF0010808FA0CF8C2F81080401C16
:1022C0000828CED35460BDE8F0810000F0B50A467E
:1022D000002300240021002500F00046B6F1004F45
:1022E00002D11D4EF16901E01B4E7168C0F3034538
:1022F00083B200F44016B6F5401F08D121F070619A
:10230000154E766826F07066134F7E6012E000F47A
:102310008016B6F5801F06D1032606FA05F4A14300
:1023200041F0706106E0460D360103FA06F6B1434E
:1023300041F0706122B1460D360103FA06F63143D1
:1023400000F00046B6F1004F02D1034EF16101E00A
:10235000014E7160F0BD00000000014008B5012190
:10236000042007F057FB4FF48070ADF800001020F8
:102370008DF8030003208DF8020069460448FFF73A
:1023800019FF4FF48071024800F00DF808BD0000FD
:10239000000801400246002093680B400BB1012069
:1023A00000E000207047416170470161704770B5DF
:1023B00004460D462946204600F004F806463046FD
:1023C00070BD00002DE9F04385B081460C46002524
:1023D000A8464B480078142802D1B4F5007F03D9F1
:1023E000002005B0BDE8F083002784E0454808F0F0
:1023F000C9FC14216846FDF72BFF4FF400714248D9
:10240000FDF726FF0026404840A10A68026049689F
:1024100041600825A01C0DF095FD804642466946A6
:10242000A01C0DF06FFD00BF06E01DF80620284639
:102430006D1C35490A54761C4645F6D32C22284695
:102440006D1C31490A546946C4F30720FEF74CFB62
:102450009DF8002028466D1C2B490A549DF8012048
:1024600028466D1C0A54E0B26946FEF73DFB9DF814
:10247000002028466D1C24490A549DF80120284656
:102480006D1C0A542946204801F06AFC002609E028
:1024900019F806001C49FEF727FB02211A4801F033
:1024A0005FFC761CA642F3D30D20174908700A2062
:1024B00048700221144801F053FC42F210700BF0F6
:1024C000EDFEFF211448FDF7C3FEFF2212490D481F
:1024D0000BF0D0F900F0FF08B8F1050F06D30F4953
:1024E0000D48FDF7C0FE08B100207AE74FF47A707E
:1024F0000CF00EFE7F1C002F3FF478AF012070E738
:10250000040300203CAF00206EB0002041542B4E4D
:102510004D47533D000000006EB2002068260108C0
:1025200010B504460723012221460948FEF7CCF9DD
:1025300001210748FEF729FA00BF02210448FEF7EF
:1025400087F90028F9D00248FEF77EF910BD000097
:10255000002401402DE9F04F91B04FF0000B002412
:10256000A24600200490039002902820069007A81D
:102570000699FDF76DFEA14612E00120FFF7D0FF9E
:1025800007A921F8190005A8002105230A46CDE96D
:102590000010084603F0AEFE09F1010000F0FF094B
:1025A000B9F1140FE9DB4FF0000A20E0002416E037
:1025B00007A830F8141007AA601C32F810008142F6
:1025C0000BDD07A830F814B007A9601C31F8100023
:1025D00021F81400601C21F810B0601CC4B2CAF1CC
:1025E0001300A042E4DC0AF1010000F0FF0ABAF196
:1025F000140FDBDB002406E0BDF83000FDF75AFFC6
:102600000290601CC4B2142CF6DB4FF08B41029890
:10261000FDF7A0FE02900298FDF765FF07464FF018
:102620006632164BFDF7D4FE0546FDF76FFF0290AC
:1026300013490298FDF75CFE0546FDF740FF049044
:1026400010490298FDF754FE05464FF08041FDF712
:1026500081FE02900A490298FDF74AFE0546FDF701
:102660002EFF0390BDF8300040F6AA21884203DD1A
:10267000012011B0BDE8F08F0020FAE766660A403D
:1026800000007A44000040402DE9F04F91B04FF037
:10269000000B0024A2460020049003900290282002
:1026A000069007A80699FDF7D3FDA14612E0002089
:1026B00000F070F807A921F8190005A800210523EA
:1026C0000A46CDE90010084603F014FE09F10100A6
:1026D00000F0FF09B9F1140FE9DB4FF0000A20E028
:1026E000002416E007A830F8141007AA601C32F87E
:1026F000100081420BDD07A830F814B007A9601C58
:1027000031F8100021F81400601C21F810B0601C92
:10271000C4B2CAF11300A042E4DC0AF1010000F0E7
:10272000FF0ABAF1140FDBDB002406E0BDF830002D
:10273000FDF7C0FE0290601CC4B2142CF6DB4FF013
:102740008B410298FDF706FE02900298FDF7CBFE42
:1027500007464FF066320D4BFDF73AFE0546FDF792
:10276000D5FE02900A490298FDF7C2FD0546FDF725
:10277000A6FE0490BDF8300040F62631884203DD05
:10278000012011B0BDE8F08F0020FAE766660A402C
:1027900000007A4410B50446072301222146094867
:1027A000FEF792F801210748FEF7EFF800BF02217B
:1027B0000448FEF74DF80028F9D00248FEF744F827
:1027C00010BD00000028014010B588B0002400BFF3
:1027D00008E0220202F5A0210DEB0400012208F01E
:1027E0003BFE641C202CF4D3002412E01DF80400EE
:1027F000FF280DD0601C00F01F001DF80000FF280E
:1028000006D14FF4A02000EB04205B49086002E0F1
:10281000641C202CEAD300BF202C7DD3002403E0CD
:10282000002056490855641CFF2CF9D90120534952
:1028300008701622524951481030FDF7F0FC0A206A
:102840004E4981F82E001A2081F82F00012081F8CE
:10285000300081F8310008464A49096801644A4954
:102860000968416449490968816449490968C16442
:102870000120424981F88000022081F890000A205E
:1028800081F8A000002081F8A40081F8A5000920AB
:1028900081F8B000012081F8B10081F8B20081F820
:1028A000B300302081F8B400312081F8B50081F800
:1028B000B600392081F8B700012081F8C00000205F
:1028C00081F8C100012081F8C800002081F8C9000A
:1028D0003048007881F8F0002E48407881F8F10007
:1028E0002C48807881F8F2002A48C07881F8F300FB
:1028F0002848007981F8F4002648407981F8F500ED
:102900004FF4A0201C4908600846006808F0ECFE5F
:102910004FF48072184800E00DE00168174808F095
:10292000C3FD1548006800F580701349086008462B
:10293000006808B010BD4FF480720F4801680F485E
:1029400008F08AFD0C48006800F580700A490860AC
:1029500008460068B0F5A42F02D34FF4A020086009
:1029600005480088C0F30B0018B90348006808F058
:10297000BBFE01480068DCE7DC0100206087002026
:1029800098250108B4250108B8250108BC250108CF
:10299000C0250108C42501082DE9F04707468846EF
:1029A0003548D0F800013449461A002505E0324880
:1029B000405D2C2800D102E06D1CB542F7D300BF6A
:1029C0002D48405D2C2802D00020BDE8F08700266D
:1029D0000124A14613E0291B274A505C0CF0DEFAC3
:1029E000FF2800D10DE0291B234A505C0CF0D6FAD9
:1029F00000FB096609EB89004FEA4009641C032CBF
:102A0000E9D900BFB61E464500D94646002425E058
:102A1000691D2144184A505C0CF0C0FAFF2800D10F
:102A20001FE004F0010068B1691D2144124A505CA6
:102A30000CF0B4FA07EB54010978084407EB540191
:102A400008700AE0691D21440B4A505C0CF0A6FA9C
:102A50000007000E07EB54010870641CB4EB460F2E
:102A6000D6D300BF044808F08DF9B4EB460F01D16E
:102A70003046AAE70020A8E73CAF00200020034929
:102A8000D1F80011014A881A704700003CAF0020BD
:102A900030B5C1B000254FF4807101A8FDF7D8FB17
:102AA0000C2409E004F580212A466D1C01ABD018E6
:102AB000012208F0D1FC2034B4F5005FF2D30024E9
:102AC0000BE001A8005D552806D1601CC0B201A929
:102AD000085CFF2800D102E0641CFF2CF1D900BF84
:102AE000FF2C5FD84FF4807101A8FDF7B1FB4FF4C4
:102AF000802000EB4411202201A808F0ADFC9DF8D5
:102B000004009DF8051000EB01209DF8061000EB75
:102B100001409DF8071000EB0160314908609DF805
:102B200008009DF8091000EB01209DF80A1000EB49
:102B300001409DF80B1000EB01602A4908609DF8E8
:102B40000C009DF80D1000EB01209DF80E1000EB1D
:102B500001409DF80F1000EB0160234908609DF8CB
:102B600014009DF8151000EB0120204908609DF825
:102B700016009DF8171000EB01201D4908609DF814
:102B800018009DF8191000EB01201A490860601C1C
:102B90004FF4802101EB4010174908600846006897
:102BA00041B030BD00200E4908600E4908600E4952
:102BB00008600E4908600E4908600E4908604FF42D
:102BC00080200D4908600846006808F08DFD044823
:102BD000006808F089FD0AF01DFF0020E0E7000012
:102BE000C0010020C4010020C8010020D001002045
:102BF000CC010020D4010020D801002070B505468A
:102C0000002400BF1AE005FA04F000F0800018B1BB
:102C100001200C49086002E000200A4908602820D1
:102C20000CF034FA00200849086028200CF02EFA35
:102C300001200649C1F8BC01601CC4B2082CE2DBCB
:102C400070BD0000A0812142BC0121420000214250
:102C500000BFFEE710B588B06846FFF737F90446B5
:102C600000208DF80100044B22466946022007F03F
:102C7000D1FF08B010BD00003465002010B500245D
:102C80000A4806F0FBFF09490839486008464068D1
:102C900058B1091D081D0DF0CEF804462CB10348AB
:102CA0000838416808300DF0A3F810BD98A5002041
:102CB00070B5044600250DF0C1F8C4F3074000F0DC
:102CC00010F8C4F3072000F00CF804F0F80000F04E
:102CD00008F8002000F005F805460DF0B4F8284685
:102CE00070BD10B50446204608F05AFB10BD70B503
:102CF00004460D460DF0A2F8C4F30740FFF7F1FFBC
:102D0000C4F30720FFF7EDFF04F0F801091DC8B276
:102D1000FFF7E7FF2846FFF7E4FF0DF094F870BDDA
:102D20001FB50020009001900290039008480068B1
:102D30000090084800680190074800680290074822
:102D400000680390602168460BF0DEFA1FBD0000AA
:102D5000360200203A0200203E02002042020020FB
:102D60004CF6CC400149086070470000003000403C
:102D700010B500F01FF810BD70B505460C4609A04F
:102D80000BF09EFC45F2555000F028F8284600F064
:102D900019F8204600F01CF800F00CF8FFF7E0FFEF
:102DA00070BD0000BFB4C3C5B9B7C6F4B6AFA3A128
:102DB000000000004AF6AA200149086070470000A0
:102DC000003000400149486070470000003000407A
:102DD00001498860704700000030004001490860E8
:102DE000704700000030004070B504460D46304882
:102DF000006840F6B831884204D22D480068401C73
:102E00002B4908602078012803D1207900F00200C6
:102E100030B92078022810D1607A00F0020060B149
:102E200024480068962805D222480068401C2149A1
:102E3000086002E096201F4908602078012807D129
:102E4000207900F0040070B9607900F0070050B9F3
:102E50002078022814D1607A00F0040018B9A07A12
:102E600000F0010060B114480068962805D21248AD
:102E70000068401C1049086002E096200E49086076
:102E80002078182810D1A07800F0040060B10B4819
:102E90000068962805D209480068401C0749086068
:102EA00002E09620054908600AF0B4FD70BD0000FC
:102EB000C8010020D0010020D4010020CC01002056
:102EC0000246107F012806D1107E032803D1507ED0
:102ED00008B9012070470020FCE700002DE9F0410F
:102EE00004460026002700254548006800F0807051
:102EF00078B14348008880B2A0420AD14FF00070F8
:102F00003F4908604FF4E1620121401400F010FED7
:102F100003253C48006800F08070B8B1394800884B
:102F200080B2A04212D14FF00070364908604FF4D1
:102F3000E1620121102000F0FBFD4FF4E16201216C
:102F4000880400F0F5FD022D00DA02252E48006805
:102F500000F0807070B12C48008880B2A04209D186
:102F60004FF00070284908604FF4E16201212020F1
:102F700000F0DEFD2548006800F0807070B1234845
:102F8000008880B2A04209D14FF000701F4908604C
:102F90004FF4E1620121802000F0CAFD1C48006866
:102FA00000F0807070B11A48008880B2A04209D148
:102FB0004FF00070164908604FF4E1620121402093
:102FC00000F0B6FD13480068844217D1114800682C
:102FD000401C104908601048007848B9002211468A
:102FE000012000F0A5FD00220121022000F0A0FD3B
:102FF000204608F089FC0120BDE8F0810020FBE7B5
:1030000078000020680000206C0000207000002084
:1030100074000020640000201302002010B586B068
:103020004FF461620221080200F082FD4FF0FF318F
:1030300028200AF03DFE1248006840F080701049D8
:10304000086005A90F4803F02DFC04461CB105A932
:103050000C4803F011FB05A800210B4A0123CDE920
:103060000032CDE902100B46084A09A1054803F0D9
:103070007FFA05A9034803F0BFFB06B010BD0000AE
:103080007C000020006300204D1F0008E0220200A9
:1030900044757479566F696365746D720000000041
:1030A00010B502460023D07E02281BD1107FC0EB52
:1030B000C00404EB0010202404EB4000884211D12E
:1030C00000BF0BE02E2403FB04F02430105C00F062
:1030D000020008B1012010BD581CC3B2107F9842F5
:1030E000F0DC3DE0D07E012819D1107F00EB80009C
:1030F000202404EB4000884211D100230BE003EBB5
:10310000830040001F30105C00F0020008B1012075
:10311000E1E7581CC3B2107F9842F0DC20E0D07E7B
:10312000042807D12A2905D1D07F00F00400B8B1C6
:103130000120D0E7D07E152807D1272905D1507F5F
:1031400000F0020060B10120C5E7D07E182807D149
:10315000282905D1507F00F0040008B10220BAE709
:103160000020B8E770B503460C4615460022002142
:1031700000BF11E001EB81101F4E06EBC00202F10F
:103180000800834206D15068A04203D1324629701C
:10319000104670BD481CC1B20329EBDB002111E0D1
:1031A00001EB8110154E06EBC00202F108008342CC
:1031B00006D15068A04203D1324629701046E8E794
:1031C000481CC1B20329EBDB002111E001EB8110A7
:1031D0000B4E06EBC00202F10800834206D1506894
:1031E000A04203D1324629701046D2E7481CC1B232
:1031F0000329EBDB0020CCE7844E00209C54002008
:10320000B45A0020F0B503460024012000BF08E0B6
:1032100013F8016B11F8017BBE4201D0002002E0DF
:10322000641C9442F4D300BFF0BD2DE9F04706467C
:103230000F4615460024A0463846FDF73CF8A84244
:1032400002D90020BDE8F087002413E03846FDF7DE
:1032500032F8814630194A46394609F0FBFA804671
:10326000B8F1010F05D13846FDF725F80444204692
:10327000E8E7641C3846FDF71EF8691C081AA042EE
:10328000E4D83846FDF717F8691C081AA04200D1A7
:1032900000242046D6E70146CA1701EB927292102D
:1032A000A1EB820292B9642091FBF0F200FB1210B4
:1032B00050B94FF4C87091FBF0F200FB121008B93E
:1032C000012070470020FCE70120FAE70020F8E722
:1032D00010B588B00A480068B0F1007F0ED1002018
:1032E00007490860022208216846FEF7DFFD044610
:1032F000044B22466946022007F08CFC08B010BD42
:1033000068000020CC60002008B50121084606F0C6
:1033100081FB01214048FEF7D9FF01213F48FEF71C
:10332000D5FF0121102006F075FB0121082006F0D1
:1033300071FB0121042006F06DFB0220ADF80000B6
:1033400048208DF8030003208DF8020069463448B8
:10335000FEF730FF0120ADF8000010208DF80300CB
:1033600003208DF8020069462D48FEF723FF082050
:10337000ADF8000048208DF8030003208DF802000E
:1033800069462748FEF716FF0420ADF8000010201C
:103390008DF8030003208DF8020069462048FEF7EF
:1033A00009FF1020ADF8000048208DF8030003202D
:1033B0008DF8020069461B48FEF7FCFE0820ADF8B8
:1033C000000010208DF8030003208DF802006946EC
:1033D0001448FEF7EFFE05211148FEF7E4FF08212F
:1033E0001048FEF7E0FF0A210D48FEF7DEFF10212E
:1033F0000C48FEF7DAFFFEF7FFFD4FF40070ADF862
:10340000000048208DF8030003208DF80200694673
:103410000448FEF7CFFE08BD000430000002300073
:1034200000100140000C014070B50024002500266A
:1034300002210948FEF7AEFF044608210648FEF7C0
:10344000A9FF44EA800410210448FEF7A3FFC50049
:1034500044EA0506304670BD00100140000C0140F2
:1034600070B50024002501214F48FEF79EFF04217E
:103470004D48FEF79AFF08214C48FEF796FF0121C0
:103480004948FEF790FF00BF01E0601CC4B2DC2C8D
:10349000FBDBFFF7C9FF0546002401E0601CC4B256
:1034A000142CFBDB01214048FEF77FFF04213E483E
:1034B000FEF77BFF08213D48FEF777FF04213A48DD
:1034C000FEF771FF002401E0601CC4B2DC2CFBDBC2
:1034D000FFF7AAFF05EB0015002401E0601CC4B251
:1034E000142CFBDB01213048FEF75FFF04212E483E
:1034F000FEF75BFF08212D48FEF757FF08212B48F8
:10350000FEF751FF002401E0601CC4B2DC2CFBDBA1
:10351000FFF78AFF05EB0025002401E0601CC4B220
:10352000142CFBDB01212048FEF73DFF04211E483F
:10353000FEF739FF08211D48FEF735FF40F6DD5044
:10354000454005402DB90020194908701949086007
:1035500012E017480078401C1549087008460078AA
:10356000042804DA144800681249086004E00420C2
:103570000F4908700F4805600E4805680E4800683E
:103580000C49096848400B49096808400949086026
:10359000094805600846006820B10846006840F008
:1035A000004070BD2846FCE700100140000C0140BF
:1035B0004C00002044000020480000201CB50121E0
:1035C000082006F027FA0121042006F023FA012141
:1035D000084606F01FFA01211D48FEF777FE01217B
:1035E0001C48FEF773FE4FF4C070ADF800001020C9
:1035F0008DF8030003208DF8020069461648FEF797
:10360000D9FD4FF4C0711448FEF7CFFE4FF40040CF
:10361000ADF8000010208DF8030003208DF80200A3
:1036200069460E48FEF7C6FD4FF400410B48FEF711
:10363000BCFE01AA0AA10D4801F0EEF800210C48D9
:1036400000F020F80121480400F01CF81CBD000027
:103650000004300000023000000C0140000801406E
:103660004C65645F4D75746578000000884B0020E0
:10367000FFFFFD0002480068401C014908607047D8
:10368000640000202DE9FC4704460E464FF0000977
:1036900000250027A846B4F1807F7DD2002C7BD086
:1036A000022E79DC5848007800280DDD5748007854
:1036B00050B957480068574908605748006857494B
:1036C000086001205149087000BF00BF00BFFCF72F
:1036D0005FFD804600BF00BF51480078401C504944
:1036E000087000BF00BF4046FCF756FD00BF00BF9A
:1036F00000BF26B1012E0DD0022E21D115E0444885
:10370000006820434249086043480068A04342499A
:10371000086016E03E480068A0433D4908603E4806
:103720000068A0433C4908600BE0394800686040ED
:10373000374908603848006820433749086000E08E
:1037400000BF00BF30480078E0B930480078012859
:1037500018D13048056825F003052D48007800F0A1
:1037600003073D4425F480452948008800F480473C
:103770003D43274805602948006827490860002024
:103780002249087000BF00BF00BFFCF701FD804662
:1037900000BF00BF224800E034E00078401E20490E
:1037A000087008460078A0B91E480088002809DD86
:1037B00000BF00BF4046FCF7EFFC00BF00BF04F0B5
:1037C00009FA0DE000BF00BF4046FCF7E5FC00BF72
:1037D00006E000BF00BF4046FCF7DEFC00BF00BFB4
:1037E00000BF01A800231A46194600900E4801F0B8
:1037F00075F8074800680AF0EDF801AA00210A48A8
:1038000001F0D8F9BDE8FC87130200203400002045
:103810004000002038000020300000203C00002044
:1038200034010020F8000020884B002070B50446C9
:103830000D46A178E07801EB0026A07E052812D184
:10384000E07E15280FD10020B34908600022114600
:103850004FF4007000F06CF906F092FC282802D1B9
:1038600000210AF025FAE07E012808D105EB850049
:103870001F2101EB4000205C00F00200C8B9E07E8F
:1038800002280AD1C5EBC50000EB0510242101EB8D
:103890004000205C00F0020058B9E07E042823D1EB
:1038A00005EB85001F2101EB4000205C00F00400C7
:1038B000D0B10DF0E9F999480660006840F08070D9
:1038C000964908604FF4E1620221102000F030F9BF
:1038D0004FF4E1620221480400F02AF94FF0FF3171
:1038E00024200AF0E5F915E1E07E012811D105EB6D
:1038F000450000EBC5001E30205C00F0040008BB52
:1039000005EB8500202101EB4000205C00F0070062
:10391000C0B9E07E022828D1C5EBC50000EB051038
:10392000242101EB4000205C00F0040050B9C5EBFD
:10393000C50000EB0510252101EB4000205C00F0E4
:10394000010090B176480660006840F080707449CC
:1039500008604FF4E1620221202000F0E9F84FF006
:10396000FF3126200AF0A4F9D4E0E07E012808D136
:1039700005EB85001F2101EB4000205C00F00800F2
:1039800068B9E07E022818D1C5EBC50000EB051030
:10399000242101EB4000205C00F0080068B1614880
:1039A0000660006840F080705E4908604FF4E16294
:1039B0000221402000F0BCF8ACE0E07E012808D1F4
:1039C00005EB85001F2101EB4000205C00F070003A
:1039D00068B9E07E022818D1C5EBC50000EB0510E0
:1039E000242101EB4000205C00F0700068B14E48DB
:1039F0000660006840F080704B4908604FF4E16257
:103A00000221802000F094F884E0E07E182874D130
:103A1000607F102862D008DC01280DD002280CD06D
:103A2000042827D0082873D137E0202857D0402811
:103A300065D080286CD163E06BE04FF4E162012136
:103A4000C80300F075F80021FE200AF031F9324871
:103A5000006870B14FF461620221080200F068F85A
:103A600006F08EFB282804D04FF4616128200AF06C
:103A70001FF94EE02D48006800F0807038B10DF05D
:103A800003F94FF4E1620221C80100F051F84FF050
:103A9000FF3124200AF00CF93BE04FF4E1620021F1
:103AA0004FF4802000F044F806F06AFB242802D18D
:103AB00000210AF0FDF81848006870B14FF4616207
:103AC0000221080200F034F806F05AFB282804D03E
:103AD0004FF4616128200AF0EBF81AE019E00022A7
:103AE00011464FF4007000F023F806F049FB282837
:103AF00002D100210AF0DCF80BE00BE008E008E05E
:103B000006F03EFB262802D100210AF0D1F800E0A1
:103B100000BF00BF70BD00007C00002068000020D6
:103B20006C0000207400002070000020780000204D
:103B30002DE9F04186B007460D4690460024B7F1C6
:103B4000807F74D2002F72D0022D70DC25B9002145
:103B50003846FFF797FD6EE0012D04D1012138466C
:103B6000FFF790FD1DE0022D1BD102213846FFF723
:103B700089FD05A9314802F095FE06468EB905A8D3
:103B800000212F4A0223CDE90032CDE90210322371
:103B90001A462CA1294802F0EBFC05A9274802F09F
:103BA0002BFE00243FE00120A0403840C8B304EBC6
:103BB000840101EBC401274A02EB810005A902F050
:103BC00071FE06464EB104EB840101EBC401214AAB
:103BD00002EB810005A902F04FFDB8F1000F20D0E3
:103BE00005A91D4820441D4A0123CDE90032CDE935
:103BF000020108EB88018A0004EB840101EBC40197
:103C0000144B03EB8100002315A102F0B1FC04EB7F
:103C1000840101EBC4010F4A02EB810005A902F007
:103C2000EBFD601CC4B2182CBDDB04E0FFE70020F4
:103C300006B0BDE8F0810120FAE70000544B0020F7
:103C4000990101086C6564746F67676C65746D72C7
:103C50000000000074460020582301086501010897
:103C6000746D72780000000010B564200BF050FAFB
:103C700010BD704730B589B00222042101A8FEF7BB
:103C800015F90546074B2A4601A9022006F0C2FF96
:103C9000044605480460006840F0807002490860EE
:103CA00009B030BDCC6000207800002000BFFEE7E6
:103CB00030B505460C4622460021284600F001F8A2
:103CC00030BD2DE9F04105460B46944600270024FF
:103CD00002E03F021F43641C042CFAD3604605F047
:103CE0000306294646B1344603E001F8013B401E75
:103CF000641C08B1042CF8D30A4601E080C2001FFE
:103D00000428FBD2114602E001F8013B401E0028C6
:103D1000FAD1BDE8F081000008B50121042005F0CA
:103D200079FE0121102005F075FE4FF40050ADF82A
:103D3000000010208DF8030003208DF80200694672
:103D40000648FEF737FA4FF400510448FEF72BFB04
:103D50004FF4165009F044F808BD0000001001406F
:103D600070B504460D462946204609F0FFF870BD9F
:103D70000021012800D068B9002107E0064A525C02
:103D800042EA4012044B5A544A1CD1B2034A1278F8
:103D90009142F3DB7047000010870020B40100203F
:103DA0007047000070B5002100230F22C47804B3CF
:103DB000154C246804F4E064C4F5E064210AC1F100
:103DC0000403CA40447804FA03F184781440214380
:103DD00009010E4C0678A155047804F01F05012452
:103DE000AC4005786D11AD0005F1E025C5F8004146
:103DF00009E0047804F01F050124AC40044D067866
:103E0000761145F8264070BD0CED00E000E400E0BE
:103E100080E100E002490143024A1160704700005E
:103E20000000FA050CED00E0F8B507460C46154613
:103E30001E468DF800408DF801508DF8026001207B
:103E40008DF803006846FFF7ADFF012240F22551CF
:103E5000384609F056F90121384609F0C0F8F8BD96
:103E600010B51548007898B90120FFF781FF134875
:103E7000007840F02000114908700022114602200D
:103E8000FFF756FE002201210846FFF751FE12E01F
:103E90000020FFF76DFF0948007820F02000074957
:103EA0000870002211460120FFF742FE0022012186
:103EB0000220FFF73DFE10BD81000020060000201B
:103EC00009480078022806D10848007808B900207F
:103ED00070470120FCE706480078012801D1002046
:103EE000F6E70120F4E70000A501002014030020FC
:103EF0008100002008B56946014801F0A7FE08BD11
:103F00007C3D002008B56946014802F0F3F808BD81
:103F10007C3D0020F8B50024002500268848007864
:103F2000401C87490870084600788649097888420D
:103F300002DB00208249087083480078022879D18A
:103F400082480078012871D081480078401C80495F
:103F50000870084600780A2851DD002008707D4866
:103F600000787D4908700BF0ABFE7A4908707B48F9
:103F70000078012804D10846017879A00AF0A0FB56
:103F800075480078002830D07248007800282CD07E
:103F900072480078012804D17448017874A00AF0AE
:103FA0008FFB72480078401C704908700846007802
:103FB000012803D0084600785A280BD167480078BA
:103FC000012805D16948027801786EA00AF078FBD3
:103FD000FFF790FF654800785A2802DB002063490C
:103FE000087001205C49087009E000205A490870F7
:103FF0005A480078012802D168A00AF061FBFEF758
:104000003DFD6A4908600846006814280ED95348E7
:104010000078012804D10846016865A00AF050FB29
:104020006A464FF40041664801F064FF4A4805784B
:104030004EE0FFE7FF2063490870634800780128DD
:1040400003D00BF061FB5F490870444800780128F9
:1040500004D15C4801785DA00AF032FB5948007831
:1040600001280BD15C49087000205C4908706A4641
:104070004FF40041524801F03DFF29E051480078DB
:1040800030B90120544908700020544908701FE0DD
:10409000002051490870012550480078401C4F49C4
:1040A0000870084600780A2190FBF1F201FB12002B
:1040B00020B96A46E903424801F01CFF47480078EE
:1040C0003C2190FBF1F201FB120008B9FFF712FF4F
:1040D0006807000E42491A4A1278885400240EE0FC
:1040E0003F48005D00F020003D49154A1278895C88
:1040F00001F02001884200D005E0601CC4B21148E4
:1041000000788442ECDB00BF0E480078844213DB69
:1041100033480B490978405C00F0200030B9314841
:10412000007820F020002F49087005E02D48007825
:1041300040F020002B4908702A480078F8BD0000A4
:10414000B6010020B4010020A501002014030020C6
:10415000BA010020BC010020BB010020C0020020E9
:104160004E42733D2564A3A10D0A0000B501002055
:104170004E42CDF8C2E7D2ECB3A33D2564A3A10D16
:104180000A0000004E42D0C2D7A2B2E13D2564A38E
:10419000A1B4CECAFD3D25640D0A00004E42CDF803
:1041A000C2E7D5FDB3A3A3A10D0A0000A80100201A
:1041B0004E42CAD5CAFD2564B8F60D0A00000000BB
:1041C000E00E0020B8010020150300205735733D94
:1041D0002564A3A10000000081000020B901002097
:1041E00010870020B701002000B589B0302101A858
:1041F00005F0D6FF9DF804001049087008460078C5
:10420000022809D114200E490870FFF785FD48F6F1
:10421000A0400C49086008E046200949087009F0F0
:10422000E1FF40F6B83007490860202204480178D1
:104230000548FCF706F809B000BD0000A501002004
:10424000B4010020AC010020108700200EB500242E
:1042500000BF00BF35480078022801D0FFF752FEAA
:1042600063E033A00AF02CFA30480078022836D1F7
:1042700001203449087041033348FEF796F802A83C
:104280000021C8230A46CDE90010084602F032F8A2
:104290004FF400512C48FEF786F802A800210B4687
:1042A0000622CDE90010084602F024F80BF050FD7C
:1042B0000446012C0AD11D480078022806D123A00B
:1042C0000AF0FEF902201F49087005E000201D4990
:1042D000087022A00AF0F4F9FFF714FE25E001208F
:1042E0002249087022480078012809D0002021497D
:1042F00008700BF0CBFB0446012C01D1FEF710FD3A
:1043000002A800210B460122CDE90010084601F069
:10431000F1FF0BF027FC0446012C01D106F0E4FB71
:10432000002012490870FFF7EDFD9AE7A501002073
:10433000CDF8C2E7D2ECB3A3D6D8C6F4A3A10D0A38
:104340000000000014030020001001404E42B9D2CA
:10435000CDF8CAA7B0DCA3A10A0D00004E42B9D225
:10436000CDF8B3C9B9A6A3A10A0D0000150300201A
:10437000A40100204F02002070B505460024134818
:104380000078022818D112480078E8B9114800686E
:10439000142819D94FF400712846FEF7FDFA044697
:1043A0000D480078012803D121460CA00AF088F9B5
:1043B00000200849086007E00C480078012803D075
:1043C00028460BF0C9F90446204670BDA50100201F
:1043D00014030020A8010020C00200204E42BDD3DB
:1043E000CAD52564B8F6210D0A0000001503002087
:1043F00070B504460D46002609480078022804D10D
:1044000029462046FDF7D3FF07E00648007801283B
:1044100003D0294620460BF009FA304670BD000053
:10442000A50100201503002010B5044600BFFFF7CA
:104430000DFF10BD1548164816481748174818486C
:104440001848194819481A481A481B481B481C485C
:104450001C481D481D481E481E481F481F4820482C
:1044600020482148214822482248234823482448FC
:1044700024482548254826482648274827482848CC
:1044800028482948294800BF70470000282401080F
:10449000882301088C230108902301089423010834
:1044A000982301089C230108A0230108A4230108E4
:1044B000A8230108AC230108B0230108B423010894
:1044C000B8230108BC230108C0230108C423010844
:1044D000C8230108CC230108D0230108D4230108F4
:1044E000D8230108DC230108E0230108E4230108A4
:1044F000E8230108EC230108F0230108F423010854
:10450000F8230108FC230108002401080424010801
:10451000082401080C2401081024010814240108AF
:10452000182401081C24010820240108242401085F
:1045300010B50348006810B101480068804710BDFD
:10454000D800002070B5044600F0C2F800204849A9
:104550000870484908704849087048490860484947
:104560000860484908704849087048490870484937
:104570000860484908604849086048490870484848
:1045800000680A21B0FBF1F046490860464800681F
:1045900058B14648056845B14348066803E0761EB1
:1045A000002028602D1D002EF9D100204049086010
:1045B0004049086040490860404908604049086037
:1045C00040490860404908604049087003F06AF9B2
:1045D00003F04AFA204602F085FA208800B170BD47
:1045E000204602F067FE208800B1F8E7204602F07E
:1045F00089FE208800B1F2E7204602F0A1FF208862
:1046000000B1ECE7204603F07DF9208800B1E6E731
:10461000204603F0B9FB208800B1E0E7204603F014
:10462000DBFE208800B1DAE7204602F0AFFD2088EB
:1046300000B1D4E7204602F0C7FB208800B1CEE7E6
:10464000204604F039FE208800B1C8E7204603F078
:1046500007FE208800B1C2E7204604F0CDFE208886
:1046600000B1BCE702F066F9FFF7E4FE00BFB6E771
:10467000EC000020ED000020340100208C0100201F
:10468000900100201A0100201B0100201C010020C5
:10469000280100202C010020300100203C010020D6
:1046A000E823010838010020B8230108B4230108D9
:1046B000CC000020D0000020D4000020D800002032
:1046C000DC000020E0000020E40000206A0100205F
:1046D0000A4A1168002002E0002204C1401C084A76
:1046E00012689042F8D3054A1268054B1B6802EB2A
:1046F0008302121F034B1A6070470000B4230108A5
:10470000B82301089401002008480078012800D04F
:10471000704707480078FA2800DBF9E7044800787A
:10472000401C0349087000BFF2E70000ED000020C4
:10473000EC00002010B500242E480078012800D09D
:1047400010BD00BFFBF724FD044600BF2A480078D7
:1047500028B900BF2046FBF71FFD00BFF0E7264841
:104760000078401E2449087008460078002805DDBE
:1047700000BF2046FBF710FD00BFE1E71F480078AF
:10478000002805DD00BF2046FBF706FD00BFD7E788
:1047900003F074F81A4908700846007800EB4000EE
:1047A000184951F820001849086008460068174960
:1047B0000968884205D100BF2046FBF7EDFC00BF29
:1047C000BEE711480068D0F89000401C0E49096807
:1047D000C1F890000E480068401C0D4908604FF079
:1047E00080500C49086000BF2046FBF7D5FC00BF95
:1047F00000BFA5E7ED000020EC0000203401002000
:104800001B010020B07D0020900100208C010020C1
:104810006001002004ED00E02DE9F04104460E4661
:104820001546002729480078002804DD42F6E1609B
:104830002880BDE8F0811CB945F6C3502880F8E710
:1048400000BF00BF00BFFBF7A3FC074600BF00BFCF
:104850001F480078401C1E49087000BF00BF384642
:10486000FBF79AFC00BF00BF00BF1A4820606660DB
:104870000020206284F82500A062402084F82400F3
:1048800004F1080002F013FF204602F041FE124836
:104890000088401C1049088000BF00BF00BFFBF724
:1048A00077FC074600BF00BF09480078401E084952
:1048B000087000BF00BF3846FBF76EFC00BF00BFAA
:1048C00000BF0020288000BFB3E70000EC000020FC
:1048D000340100204D555458180100202DE9F047AF
:1048E00088B00546894690461C46109E4FF0000A47
:1048F000AB480078002805DD46F2AE10308008B0E5
:10490000BDE8F0871DB945F6C3503080F7E7B8F130
:10491000000F03D0B8F5004F02D100E000BF03E064
:1049200045F625603080EAE700BF9E492868884246
:1049300003D045F6C4503080E1E70CB10020206080
:1049400000BF00BFFBF724FC824600BF00BF95F804
:104950002500C0B99448006828629348006890F820
:10496000370085F82400012085F825000CB1A86ADD
:10497000206000BF00BF5046FBF70EFC00BF00BF29
:1049800000203080BBE78849286A0968884212D134
:1049900095F82500401C85F825000CB1A86A206018
:1049A00000BF00BF5046FBF7F7FB00BF00BF45F25A
:1049B00082703080A3E708F4004050B100BF00BF10
:1049C0005046FBF7E9FB00BF00BF46F2B010308055
:1049D00095E77648007800280ADD00BF00BF504602
:1049E000FBF7DAFB00BF00BF46F66350308086E776
:1049F00000BF6E480078401C6C49087000BF00BFC3
:104A00005046FBF7C9FB00BF00BF00BF2F6A97F8F5
:104A100037006549096891F83710884260DD97F8DA
:104A2000360008282AD2DFE800F004151E1F1716EA
:104A30002021384603F0A0F85B48006890F8370062
:104A400087F8370097F8370002F038FF384603F050
:104A500033F844E000BF00BF5348006890F83700C7
:104A600087F837003BE000BF00BF00BF4E4800683A
:104A700090F83710384602F0F7FD30E000BF00BF75
:104A800000BFFBF785FB824600BF00BF47480078A8
:104A9000401E4649087008460078A0B9444800887E
:104AA000002809DD00BF00BF5046FBF775FB00BFC3
:104AB00000BF03F08FF80DE000BF00BF5046FBF7CA
:104AC0006BFB00BF06E000BF00BF5046FBF764FB76
:104AD00000BF00BF00BF46F62D6030800FE700BF6B
:104AE0004B4604222946684602F036FD00BF00BF4F
:104AF00000BFFBF74DFB824600BF00BF2B4800788C
:104B0000401E2A49087000BF00BF5046FBF744FB17
:104B100000BF00BF00BF00F073F900BF00BFFBF78C
:104B200037FB824600BF00BF1F48006890F8350081
:104B300030B101280CD002281AD0032821D110E06E
:104B40001CB119480068006C2060002030801CE017
:104B50001CB115480068006C206046F2A910308036
:104B600013E00CB10020206047F2D92030800CE027
:104B70001CB10D480068006C206045F6C2503080C2
:104B800003E046F62E60308000BF00BF00BF00BFCC
:104B90005046FBF701FB00BF00BF00BFAFE60000BF
:104BA000EC0000204D5554588C01002034010020A9
:104BB000F80000202DE9F84F0446884615464FF0CE
:104BC000000A89480078002804DD46F20E2028807B
:104BD000BDE8F88F1CB945F6C3502880F8E7B8F156
:104BE000000F03D0B8F5004F02D100E000BF03E092
:104BF00045F625602880EBE700BF7C4920688842A5
:104C000003D045F6C4502880E2E700BF00BFFBF7A1
:104C1000BFFA824600BF00BF7549206A0968884212
:104C20000AD000BF00BF5046FBF7B6FA00BF00BF76
:104C300045F281702880CBE700BF6E480078401CA9
:104C40006C49087000BF00BF5046FBF7A5FA00BFD3
:104C500000BF00BFFCF7A6FA0746A76294F825003C
:104C6000401E84F8250094F82500002830DD00BFA0
:104C700000BF00BFFBF78CFA824600BF00BF5D4853
:104C80000078401E5B49087008460078A0B95A4871
:104C90000088002809DD00BF00BF5046FBF77CFA02
:104CA00000BF00BF02F096FF0DE000BF00BF5046FE
:104CB000FBF772FA00BF06E000BF00BF5046FBF7EB
:104CC0006BFA00BF00BF00BF45F2837028807FE70A
:104CD00004F10809B9F8080098BB0020206284F8A4
:104CE000250000BF00BF00BFFBF752FA824600BF9D
:104CF00000BF40480078401E3E49087008460078D2
:104D0000A0B93D480088002809DD00BF00BF50461B
:104D1000FBF742FA00BF00BF02F05CFF0DE000BFEE
:104D200000BF5046FBF738FA00BF06E000BF00BFE7
:104D30005046FBF731FA00BF00BF00BF00202880BB
:104D400046E7FFE72A48006890F8370094F82410F7
:104D5000884219D02648006802F00EFF94F824001B
:104D60002349096881F837002149096891F837001B
:104D700002F0A4FD1E48006802F0BEFE1C48006858
:104D800090F837001D490870D9F80000866826623F
:104D900096F8370084F82400012084F825000023C9
:104DA0001A4631462046009702F0F2FC00BF00BFD1
:104DB00000BFFBF7EDF9824600BF00BF0D48007849
:104DC000401E0C49087000BF00BF5046FBF7E4F9D5
:104DD00000BF00BF00BF08F4004008B900F010F8A1
:104DE0000020288000BFF3E6EC0000204D55545809
:104DF0008C01002034010020F80000201A0100205E
:104E000010B5002420480078002800DD10BD1F48A0
:104E10000078002800DDF9E700BFFBF7B9F9044688
:104E200000BF02F02BFD1A4908700846007800EB1D
:104E30004000184951F820001749086008460068EA
:104E400016490968884205D100BF2046FBF7A4F93E
:104E500000BFDBE710480068D0F89000401C0E4906
:104E60000968C1F890000E480068401C0C490860B1
:104E70004FF080500B49086000BF2046FBF78CF9CB
:104E800000BF00BFC2E70000EC000020340100209A
:104E90001B010020B07D0020900100208C0100202B
:104EA0006001002004ED00E070B5044600251848BC
:104EB0000078002803DD46F66250208070BD15485A
:104EC0000078012803D045F689602080F6E7124873
:104ED0000078FA2803DB45F209202080EEE700BFC6
:104EE00000BFFBF755F9054600BF00BF0A48007830
:104EF000401C0949087002F09BFE00BF00BF284615
:104F0000FBF74AF900BF00BF0020208000BFD5E7B3
:104F1000EC000020ED000020340100202DE9F041DC
:104F200005460C461646002700BF00BFFBF730F9C8
:104F3000074600BF00BF012D03D000200D490870B7
:104F400002E001200B49087014B10B48046006E030
:104F50000A4800680A21B0FBF1F00749086000BF69
:104F600000BF3846FBF718F900BF00BF00203080B3
:104F7000BDE8F0813C01002038010020E823010851
:104F800070B50446002520480078002803DD46F669
:104F90006550208070BD1D480078012803D045F67B
:104FA00089602080F6E71A48007818B946F6645000
:104FB0002080EFE700BF00BFFBF7EAF8054600BF1F
:104FC00000BF13480078401E114908700846007859
:104FD00000280ADD00BF00BF2846FBF7DDF800BF50
:104FE00000BF46F663502080D4E702F02FFE00BFDA
:104FF00000BF2846FBF7D0F800BF00BFFFF700FF57
:105000000020208000BFC5E7EC000020ED0000205C
:10501000340100202DE9F04104460E4617461D4696
:105020004FF0000826480078002804DD42F6E160D1
:105030002880BDE8F0811CB945F6C3502880F8E708
:1050400000BF00BF00BFFBF7A3F8804600BF00BF52
:105050001C480078401C1B49087000BF00BF404638
:10506000FBF79AF800BF00BF00BF17482060276217
:1050700000206062666004F1080002F018FB204620
:1050800002F06AFE11480088401C1049088000BFE9
:1050900000BF00BFFBF77CF8804600BF00BF094897
:1050A0000078401E0749087000BF00BF4046FBF76C
:1050B00073F800BF00BF00BF0020288000BFB8E722
:1050C000EC0000203401002053454D4144010020F4
:1050D0002DE9F04788B00646894690461C46109D4B
:1050E0004FF0000A6E480078002806DD46F2AE1048
:1050F0002880002008B0BDE8F08726B945F6C350E7
:1051000028800020F6E7B8F1000F03D0B8F5004F73
:1051100002D100E000BF04E045F6256028800020B1
:10512000E8E700BF5F493068884204D045F6C450C4
:1051300028800020DEE70CB10020206000BF00BF07
:10514000FBF726F8824600BF00BF306A88B1306A9C
:10515000401E30620CB1706A2060376A00BF00BF29
:105160005046FBF719F800BF00BF002028803846E2
:10517000C0E708F4004060B1376A00BF00BF504686
:10518000FBF70AF800BF00BF46F2B010288038468F
:10519000B0E74548007800280BDD00BF00BF50464F
:1051A000FAF7FAFF00BF00BF46F6635028800020E0
:1051B000A0E700BF3C480078401C3B49087000BF96
:1051C00000BF5046FAF7E8FF00BF00BF00BF4B46E4
:1051D00006223146684602F0BFF900BF00BF00BF9B
:1051E000FAF7D6FF824600BF00BF2F480078401E66
:1051F0002D49087000BF00BF5046FAF7CDFF00BF31
:1052000000BF00BFFFF7FCFD00BF00BFFAF7C0FF03
:10521000824600BF00BF2548006890F8350030B1D5
:1052200001280CD002281AD0032821D110E01CB18B
:105230001E480068006C20600020288024E01CB11B
:105240001A480068006C206046F2A91028801BE014
:105250000CB10020206047F2D920288014E01CB156
:1052600012480068006C206045F6C25028800BE0B0
:1052700046F62E60288000BF00BF5046FAF78CFF2C
:1052800000BF00BF002035E700BF376A00BF00BF86
:105290005046FAF781FF00BF00BF38462AE70000FA
:1052A000EC00002053454D41340100208C010020CA
:1052B0002DE9FF4105460F46144635B945F6C35062
:1052C0002080002004B0BDE8F0814FB1B7F5007F29
:1052D00007D0B7F5004F05D0B7F5024F04D102E073
:1052E00000BF00BF00BF04E045F62560208000201D
:1052F000E8E700BF12492868884204D045F6C45048
:1053000020800020DEE7FBF74DFF06460D480078C1
:1053100000280CDD0020034602462946CDE901762F
:1053200003940090064801F087FD0020CAE7234659
:1053300032463946284602F033FD80464046C1E7F2
:1053400053454D41EC00002010B50446124800784A
:10535000E8B902F093FA114908700846007810493C
:1053600008700E48007800EB40000E4951F820000C
:105370000D490860084600680C490860012006498C
:105380000870FBF7D1F943F69920208002E045F63A
:105390008A60208010BD0000ED0000201B0100206D
:1053A0001A010020B07D0020900100208C01002017
:1053B0002DE9F04107464FF0000800BF00BFFAF7A3
:1053C000E7FE804600BF00BF00203D4908603D4920
:1053D00008803D4908803D4908603D4908603D49D5
:1053E00008603D4908603D49088100BF00BF404654
:1053F000FAF7D2FE00BF00BF00BF00BFFAF7C8FE39
:10540000804600BF00BF3648046800BF00BF40466A
:10541000FAF7C2FE00BF00BF21E000BF00BFFAF7ED
:10542000B7FE804600BF00BF00207834E0632060F4
:105430002063A061A082E0826062A062FBF7B2FEFE
:105440002062783C04F164060020B081D4F8BC40AE
:1054500000BF00BF4046FAF79FFE00BF00BF002C10
:10546000DBD100BF00BFFAF793FE804600BF00BF4C
:105470001C48056800BF00BF4046FAF78DFE00BF1C
:1054800000BF12E000BF00BFFAF782FE804600BFF7
:1054900000BF05F120060020B081AD6900BF00BF4C
:1054A0004046FAF779FE00BF00BF002DEAD103F0B5
:1054B000DFFD04F09DF800203880BDE8F081000099
:1054C00000010020FA0000204A0100205C010020B9
:1054D000700100207C0100202C010020A47D002010
:1054E0006401002020010020F8B50446002669462A
:1054F000324800F0FFFDBDF8000018B1BDF8000013
:105500002080F8BD6A460021022000F067FEBDF849
:10551000000018B1BDF800002080F2E700BF00BF16
:10552000FAF736FE064600BF00BF00202449086097
:1055300000BF00BF3046FAF72FFE00BF00BF0025B6
:105540002048006820490968884205D91D4800683C
:105550001D490968B0FBF1F525B91A4800680A2110
:10556000B0FBF1F56A460021284600F037FE694697
:10557000124800F06BFBBDF8000018B1BDF8000048
:105580002080BEE700BF00BFFAF702FE064600BF5C
:1055900000BF00200D490860094800680C490860F8
:1055A00001200C49087000BF00BF3046FAF7F4FD37
:1055B00000BF00BF0020208000BFA2E7388200208B
:1055C0004C010020E8230108D02301085C010020E1
:1055D000500100205801002010B50348006810B1A8
:1055E00001480068804710BDDC0000202DE9FF4F16
:1055F00087B004469046DDE91BA5DDE91496179FA8
:105600000020039087480078002805DD47F24A1003
:1056100028800BB0BDE8F08F1CB947F2AD10288090
:10562000F7E7B8F1000F03D147F24F102880F0E7F9
:105630001EB946F62F602880EBE77B48006887425A
:1056400003D246F630602880E3E71698B84203D3C9
:1056500046F631602880DCE7B9F1400F03D346F20B
:1056600073202880D5E7B9F1000F06D16F48844236
:1056700003D046F273202880CBE7B9F13F0F06D163
:105680006B48844203D046F273202880C1E720464D
:1056900002F0B2FE002028800AF0010090B10AF06A
:1056A000020078B105960020069008E000210598D8
:1056B00001600598001D05900698401C069006980C
:1056C000B842F3D3169806EB80000490CDE9007A37
:1056D00032464046049B0A9900F0ACFC0590C4F8A1
:1056E00028800A98E0620898206284F8379005982C
:1056F00020600498A06019986065199818B94D4801
:105700000068A06501E01998A0651A98606066625B
:10571000A763A4F83CA04FF0000B08E0002104F1BF
:105720007C0040F82B100BF1010000F0FF0BBBF1E7
:10573000000FF3D004F16400189901F063FE2046D5
:1057400000F082F800BF00BF00BFFAF721FD039010
:1057500000BF00BF38480078401C3749087000BFC0
:1057600000BF0398FAF718FD00BF00BF00BF94F810
:10577000370002F0A3F8204602F0BEF9204602F0FE
:10578000F1FD2E480088401C2C4908802C480078E8
:1057900001282DD000BF00BF00BFFAF7F9FC03902D
:1057A00000BF00BF24480078401E23490870084607
:1057B0000078A0B923480088002809DD00BF00BF99
:1057C0000398FAF7E9FC00BF00BF02F003FA0DE00E
:1057D00000BF00BF0398FAF7DFFC00BF06E000BF80
:1057E00000BF0398FAF7D8FC00BF00BF00BF10E766
:1057F00000BF00BF00BFFAF7CBFC039000BF00BFA3
:105800000D480078401E0C49087000BF00BF039887
:10581000FAF7C2FC00BF00BF00BFFFF7F1FA00BFFC
:10582000F7E60000EC000020E4230108E07C002003
:105830001C7C002038010020340100206801002079
:10584000ED000020F800002010B504460348006871
:1058500018B1204601490968884710BDCC000020D6
:1058600070B504460D46002667480078002803DD21
:1058700047F24E10288070BD6448844203D147F23D
:105880004C102880F7E76248844203D147F24D105C
:105890002880F0E77CB900BF00BFFAF779FC064624
:1058A00000BF00BF5B48046800BF00BF3046FAF786
:1058B00073FC00BF00BF00BF00BF00BFFAF768FC69
:1058C000064600BF00BF54480078401C524908708B
:1058D00000BF00BF3046FAF75FFC00BF00BF00BF4B
:1058E00094F8360008282DD2DFE800F004090E10E5
:1058F000080A0F11204602F03FF954E053E000BFC0
:10590000204603F099FB4EE000BF00BF00BF2046D9
:1059100003F092FB94F83400082810D2DFE800F07E
:1059200004070508090A0B0600BF00BF08E000BF16
:1059300000BF00BF00BF204601F0F1FE00E000BF45
:1059400000BF30E000BF00BF00BFFAF721FC0646F1
:1059500000BF00BF30480078401E2F49087008463D
:105960000078A0B92D480088002809DD00BF00BFDD
:105970003046FAF711FC00BF00BF02F02BF90DE032
:1059800000BF00BF3046FAF707FC00BF06E000BFCB
:1059900000BF3046FAF700FC00BF00BF00BF46F66C
:1059A0002D60288067E700BF04F1640001F0D4FC9B
:1059B000204600F037F8204602F0ECFC184800883A
:1059C000401E17490880204602F016FDFF2084F88B
:1059D000360000BF00BF00BFFAF7DAFB064600BF83
:1059E00000BF0D480078401E0B49087000BF00BF83
:1059F0003046FAF7D1FB00BF00BF00BF002028806F
:105A0000FFF7FEF900BF36E7EC0000201C7C002009
:105A1000E07C00208C01002034010020F8000020F0
:105A20006801002010B504460348006818B12046FC
:105A300001490968884710BDD00000202DE9F05FBA
:105A400080460F4616461C460A9D4FF0000B7C48C8
:105A50000078002805DD46F2AE1028800020BDE861
:105A6000F09F26B946F2D52028800020F7E71FB125
:105A7000B7F5004F02D100E000BF04E045F6256015
:105A800028800020EBE700BF0CB10020206000BFA1
:105A900000BFFAF77DFB834600BF00BF694800687E
:105AA00000F164092B4622463146484601F076FC57
:105AB00082462888F0B9A4B1FBF774FB2168401A2C
:105AC0006049096848675F480068806F5D490968F8
:105AD000496F884205D25B480068406F59490968A0
