:020000040800F2
:10000000A88200201D02000823280008751F000890
:1000100099270008B91000086BB200080000000022
:10002000000000000000000000000000EF88000851
:100030001F15000800000000EF08000811970008D5
:10004000370200083702000837020008D578000898
:10005000370200083702000837020008370200089C
:10006000370200083702000837020008370200088C
:10007000370200083702000837020008370200087C
:10008000370200083702000837020008370200086C
:10009000370200083702000837020008370200085C
:1000A000370200083702000837020008370200084C
:1000B0008D97000837020008370200083702000851
:1000C000370200083702000837020008370200082C
:1000D0003702000831A50008A1AB00081DAE0008DA
:1000E000370200083702000837020008370200080C
:1000F00037020008370200083702000837020008FC
:1001000037020008370200083702000837020008EB
:10011000059A000837020008370200083702000875
:1001200037020008370200083702000837020008CB
:1001300000F002F800F062F80AA090E8000C824497
:100140008344AAF10107DA4501D100F057F8AFF274
:10015000090EBAE80F0013F0010F18BFFB1A43F0A5
:1001600001031847ACDB0000CCDB00000A444FF071
:10017000000C10F8013B13F0070408BF10F8014B06
:100180001D1108BF10F8015B641E05D010F8016B4B
:10019000641E01F8016BF9D113F0080F1EBF10F8AF
:1001A000014BAD1C0C1B09D16D1E58BF01F801CBD2
:1001B000FAD505E014F8016B01F8016B6D1EF9D555
:1001C0009142D6D37047000000230024002500266A
:1001D000103A28BF78C1FBD8520728BF30C148BFAA
:1001E0000B607047642900F08B80732900F0148342
:1001F000002070471FB51FBD10B510BD00F02EFBCD
:100200001146FFF7F7FF0BF0E7FC00F04CFB03B4DF
:10021000FFF7F2FF03BC0BF03AF9000009488047F2
:1002200009480047FEE7FEE7FEE7FEE7FEE7FEE7D8
:10023000FEE7FEE7FEE7FEE704480549054A064BF0
:10024000704700002D97000831010008A8780020B1
:10025000A8820020A87A0020A87A002072B67047F1
:1002600062B67047EFF3108072B6704780F3108863
:10027000704730BF704720BF7047B0FA80F07047BA
:1002800090FAA0F0B0FA80F0704790FAA0F07047B2
:10029000704700000FB4044910B503AA029800F09B
:1002A000BFFA10BC5DF814FB1C09002070B50C46A9
:1002B0000546012A05D02878800600D5EA69002382
:1002C00002E0012305E05B1C934202D2E05C0028BF
:1002D000F9D1A869E618C01AA861286A18442862EA
:1002E0002846AFF3008004E0D5E9012114F8010BA2
:1002F0009047B442F8D32846AFF3008070BD0000A9
:100300002DE9F0410646002410687529314616A5EE
:1003100010D0AFF30080002802DA404213A507E0B6
:1003200031688A0701D512A502E0490704D511A555
:10033000012401E0AFF3008000210A2206F1240726
:1003400009E0B0FBF2FCB0FBF2F302FB1C00303022
:1003500078541846491C0028F3D123462A463046D3
:10036000BDE8F04100F0D4B9000000002D0000000D
:100370002B000000200000002DE9F05F89460446B4
:100380004FF0000ADFF874B1FB44C0F820A020460B
:10039000E1688847002874D0252806D0D4E90121D7
:1003A0009047206A401C2062F1E700265F46204605
:1003B000E16888472028054607DB312D05D27819EA
:1003C00010F8200C08B10643F1E7B00701D526F07C
:1003D0000406C4F81CA00027C4F818A02A2D09D0D0
:1003E00028460BF04DF838B304EB8708303DC8F8C9
:1003F000185019E059F8041B204604EB870291615C
:10040000E1688847012F054618D1E069002820DA05
:1004100026F020061DE0D8F8180000EB800005EB60
:1004200040003038C8F818002046E1688847054683
:100430000BF026F80028EED1012F0AD02E2D08D17E
:100440002046E16888477F1C0546022F46F02006BB
:10045000C4DBA069002803DA404246F00106A0612F
:10046000F00701D026F010066C2D0BD0682D09D0B6
:100470004C2D39D06A2D35D0742D35D07A2D33D00E
:1004800016E038E0E1682F4620468847B842054626
:1004900009D16C2F26D04FF48060E16806432046D6
:1004A0008847054604E06C2F1AD04FF4807006434D
:1004B0000DB3A5F14100192802D8203546F4006695
:1004C0004A462946204626604E46FFF78BFE80B1FD
:1004D00001280BD0F61D26F0070000F1080956E7A9
:1004E0004020E4E78020D8E70020D6E706F10409A1
:1004F0004DE7284652E7206ABDE8F09FDCD80000AF
:1005000030B505460B462A4613F8014B12F8010B8D
:1005100008B1A042F8D01CB1002802D06D1CF1E750
:10052000284630BD10B5431C02E010F8011B71B124
:100530008107FAD14FF0013202C88C1A8C4314EAB9
:10054000C211F9D0C01A0A0603D0C01E10BDC01ACD
:1005500010BD0A0401D0801E10BD0902FCD0401E4F
:1005600010BD032A40F2308010F0030C00F015801B
:1005700011F8013BBCF1020F624498BF11F801CBA6
:1005800000F8013B38BF11F8013BA2F1040298BF0B
:1005900000F801CB38BF00F8013B11F0030300F075
:1005A0002580083AC0F0088051F8043B083A51F819
:1005B00004CBA0E80810F5E7121D5CBF51F8043B1E
:1005C00040F8043BAFF30080D20724BF11F8013B91
:1005D00011F801CB48BF11F8012B24BF00F8013BF3
:1005E00000F801CB48BF00F8012B704710B5203A46
:1005F000C0F00B80B1E81850203AA0E81850B1E8DC
:100600001850A0E81850BFF4F5AF5FEA027C24BF91
:10061000B1E81850A0E8185044BF18C918C0BDE888
:1006200010405FEA827C24BF51F8043B40F8043B51
:1006300008BF7047D20728BF31F8023B48BF11F806
:10064000012B28BF20F8023B48BF00F8012B704760
:1006500002F0FF0343EA032242EA024200F002B83A
:100660004FF000020429C0F0128010F0030C00F0DB
:100670001B80CCF1040CBCF1020F18BF00F8012B59
:10068000A8BF20F8022BA1EB0C0100F00DB85FEA27
:10069000C17C24BF00F8012B00F8012B48BF00F8F3
:1006A000012B70474FF0000200B513469446964662
:1006B000203922BFA0E80C50A0E80C50B1F1200175
:1006C000BFF4F7AF090728BFA0E80C5048BF0CC023
:1006D0005DF804EB890028BF40F8042B08BF704781
:1006E00048BF20F8022B11F0804F18BF00F8012BF3
:1006F0007047704770477047704710B500F0A2F818
:10070000006810BD10B5044600F09CF8046010BDF0
:100710002DE9F0470D4699469246044600F124081B
:100720000168880604D5E06921F01001216000E02D
:100730000120A84201DD471B00E00027A1697A19CA
:1007400002EB0900081AA0612078C00602D42046F6
:10075000AFF30080002608E0D4E901211AF8060072
:100760009047206A401C761C20624E45F4DB2078BE
:10077000C0060AD52046AFF3008006E0D4E9012187
:1007800030209047206A401C2062381EA7F10107E4
:10079000F4DC07E0D4E9012118F805009047206A4D
:1007A000401C2062281EA5F10105F3DC2046AFF3B2
:1007B00000802078000602D50220BDE8F0870120E5
:1007C000FBE7000001694A1C02610878704700B528
:1007D0008FB0CDE901310021059105497944CDE97A
:1007E000031011466846FFF7C7FD0FB000BD0000BB
:1007F000E5FFFFFF10B5436913B1AFF3008001E0DF
:10080000FFF754FD012010BD127800F124010A7099
:1008100000224A700122EDE711684FF0FF32E9E74C
:10082000074B70B50D467B44FFF7D1FF04462846C1
:1008300000F00CF810B14FF0FF3070BD204670BDD5
:100840001FAF00000048704748780020007B00F090
:100850008000704700487047487800207546FFF7D1
:10086000F9FFAE4605006946534620F0070085466D
:1008700018B020B5FFF7E0FCBDE820404FF00006BF
:100880004FF000074FF000084FF0000B21F0070178
:10089000AC46ACE8C009ACE8C009ACE8C009ACE8BB
:1008A000C0098D46704710B50446AFF3008020465E
:1008B000BDE81040FFF7ABBC1D484FF6FF7101705B
:1008C000002080F309881B48016881F308881A48D2
:1008D0004FF08051016062B6FEE717484FF080513B
:1008E0000160704714484FF080510160704772B644
:1008F000EFF3098028B1203880E8F00F0F4909682C
:10090000086000B50E4880475DF804EB0D480E49BD
:100910000A78027009480D490A680260106890E878
:10092000F00F203080F309884EF0040E62B6704755
:1009300022ED00E05C09002004ED00E02C0A00201C
:1009400081400008BA090020BB090020300A0020BD
:1009500070B505460126FF2D01D9002070BD642128
:100960001248FFF77DFE124807F097FC0F4911A0CF
:1009700002680A6042684A60007A0872104800788B
:1009800048722C2088720B3128460BF0B7F80446C9
:100990000D2104F10B00054A11540A21401C115489
:1009A000411C104601F035FF3046D7E7A148002032
:1009B0007044002041542B4E534F52463D000000DE
:1009C000E008002010B500220346C41700EB1474A1
:1009D000C4F307140C70C41700EB14742411A0EBBB
:1009E00004144C7000BF0BE08B5C0A2B03DA8B5CA9
:1009F00030338B5402E08B5C37338B54531CDAB2A8
:100A0000022AF1DB10BD10B5012006F0CDFD00205B
:100A100006F0CAFD10BD000008B501460020009098
:100A2000034800900098084400900098008808BD92
:100A3000006C004008B500220092044A0092009A1F
:100A400002440092009A116008BD0000006C004052
:100A500000B585B0684606F0ADFD019805B000BD53
:100A600070B5C2B0782124A8FFF71CFE64210BA842
:100A7000FFF718FE142106A8FFF714FE142101A8A1
:100A8000FFF710FE002401250026F948006818B180
:100A9000F84800780F283ADB0020F6490870F6483D
:100AA0000068F349086041208DF8040054208DF857
:100AB00005002B208DF8060053208DF807007420C8
:100AC0008DF8080061208DF8090072208DF80A0069
:100AD00074208DF80B0053208DF80C0063208DF8E6
:100AE0000D0061208DF80E006E208DF80F000D2096
:100AF0008DF810000A208DF811000E2101A809F0D0
:100B000061F8DEA0FFF7C6FBE2A0FFF7C3FBE248F7
:100B10000068002876D1E1480068DF4908600024B9
:100B200015E1DF4850F8240000286CD1102C6BD25E
:100B3000DFE804F00810182028303840485058608A
:100B40006B737B83D74800884FF6FE710840D54908
:100B500008807AE0D34800884FF6FD710840D149FB
:100B6000088072E0CF4800884FF6FB710840CD49FD
:100B700008806AE0CB4800884FF6F7710840C94901
:100B8000088062E0C74800884FF6EF710840C54909
:100B900008805AE0C34800884FF6DF710840C14919
:100BA000088052E0BF4800884FF6BF710840BD4939
:100BB00008804AE0BB4800884FF67F710840B94979
:100BC000088042E0B74800884FF6FF610840B54909
:100BD00008803AE0B34800884FF6FF510840B14919
:100BE000088032E0AF4800884FF6FF310840AD4939
:100BF00008802AE0AB4800884FF2FF710840A949FD
:100C0000088022E01EE121E01EE0A64800884EF6A2
:100C1000FF710840A349088017E0A24800884DF6FC
:100C2000FF7108409F4908800FE09E4800884BF6FE
:100C3000FF7108409B49088007E09A480088C0F38C
:100C40000E009849088000E000BF7EE0102C7AD2A8
:100C5000DFE804F0080F161D242B323940474E55AB
:100C60005C636A728F48008840F001008D490880FB
:100C70006AE08C48008840F002008A49088063E0FE
:100C80008848008840F00400864908805CE0854878
:100C9000008840F008008349088055E081480088BA
:100CA00040F010007F4908804EE07E48008840F008
:100CB00020007C49088047E07A48008840F04000E6
:100CC0007849088040E07748008840F08000754906
:100CD000088039E07348008840F4807071490880CA
:100CE00032E07048008840F400706E4908802BE0C4
:100CF0006C48008840F480606A49088024E06948B4
:100D0000008840F40060674908801DE0654800885D
:100D100040F480506349088016E06248008840F43F
:100D20000050604908800FE05E48008840F4804031
:100D30005C49088008E006E05A48008840F400401A
:100D40005849088000E000BF00BF601CC4B256488C
:100D500000788442FFF6E5AE52480088534909887E
:100D600088426FD000246BE1102C7BD2DFE804F0C6
:100D7000080F161D242B323940474E555C636C73A7
:100D80004848007800F00100494908806BE0454878
:100D9000007800F002004649088064E0414800788D
:100DA00000F00400424908805DE03E48007800F011
:100DB00008003F49088056E03A48007800F01000EB
:100DC0003B4908804FE03748007800F02000384960
:100DD000088048E03348007800F04000344908803B
:100DE00041E03048007800F08000314908803AE066
:100DF0002C48008800F480702D49088033E0294891
:100E0000008800F400702A4908802CE025480088FA
:100E100000F480602649088025E02248008800F41C
:100E20000060234908801EE01E48008800F48050BE
:100E30001F49088017E01B48008800F400501C4937
:100E4000088010E02AE10DE01648008800F4804098
:100E50001749088007E01348008800F4004014494F
:100E6000088000E000BF00BF102C73D222E0000019
:100E70002C0000209C080020A80800202F2A2A2AE5
:100E80002A2A2A2A2A2A2A2A2A2A2A2A2A2A2A2FBD
:100E9000000000000D0A000028000020AC0800201F
:100EA0008C2600209E08002046000020A00800207C
:100EB000BA080020DFE804F0080F161D242B323991
:100EC00040474F565D646B727548007800F0010032
:100ED000744908806AE07248007800F002007149A5
:100EE000088063E06E48007800F004006D490880D7
:100EF0005CE06B48007800F008006A49088055E023
:100F00006748007800F01000664908804EE06448A9
:100F1000007800F020006349088047E060480078CE
:100F200000F040005F49088040E05D48007800F034
:100F300080005C49088039E05948008800F48070DE
:100F40005849088032E05648008800F4007055493E
:100F500008802BE029E05248008800F48060514965
:100F6000088023E04E48008800F400604D49088066
:100F70001CE04B48008800F480504A49088015E086
:100F80004748008800F40050464908800EE0444875
:100F9000008800F480404349088007E0404800880A
:100FA00000F400403F49088000E000BF00BF3E4819
:100FB00000883C490988884240D03B48008839492C
:100FC000098888421ADD052024A94855681CC5B245
:100FD00004EB8401354A02EB4100052206A907F023
:100FE000EBFB002607E006A8805D24A94855681C95
:100FF000C5B2701CC6B2062EF5DB1FE02A48008879
:1010000028490988884219DA022024A94855681C11
:10101000C5B204EB8401254A02EB4100052206A972
:1010200007F0CAFB002607E006A8805D24A9485502
:10103000681CC5B2701CC6B2062EF5DB601CC4B2BB
:101040001B4800788442FFF68FAE392D07DC681EFE
:10105000C0B28DF8900024A80AF0F0FE1AE0382003
:101060008DF89000A5F13900C0B28DF82C00A5F1E3
:1010700039020DF1C9010DF12D00FFF772FA3F2180
:101080000DF1C900FFF7ECFA24A80AF0D7FE0BA86F
:101090000AF0D4FE074800880149088042B070BDBC
:1010A000A0080020BC080020BA08002000080208A0
:1010B000460000209E08002000BFFEE710B500F0AB
:1010C000FBF800F003F800F0F3F810BD70B500264F
:1010D00000201849088018490880184908601849F4
:1010E0000860184908601849086018490860002419
:1010F00000BFFFF7B7F8064600BF00250BE0002051
:101100001049086000F074F800F08CF80D48006891
:101110000444681C85B2002DF1D00C480460002006
:10112000084908600849086000BF3046FFF79EF88C
:1011300000BF70BD44090020460900204809002076
:101140004C090020540900205809002050090020B3
:1011500001460846044A1268904203D9024A1268BE
:10116000801A00E0002070475009002070B500256B
:1011700000BFFFF777F8054600BF0648046800BFC8
:101180002846FFF773F800BF2046FFF7E1FF064649
:10119000304670BD5409002070B50025FFF7E6FF0A
:1011A000044600BFFFF75EF8054600BF0020044973
:1011B000086000BF2846FFF759F800BF204670BD01
:1011C0005409002070B5002500BFFFF74BF8054615
:1011D00000BF0648046800BF2846FFF747F800BF75
:1011E0002046FFF7B5FF0646304670BD580900207F
:1011F00010B509480088401C074908800748008846
:1012000018B900F083F80649086004480088401CBB
:101210000249088010BD0000440900204609002052
:101220004809002010B50F480088401E0D4908806D
:1012300008460088A0B900F069F80B490860084624
:1012400000680A490968441A09480068A04201D2A6
:101250000748046007480068A04201D205480460BE
:1012600010BD0000460900204C090020480900205C
:10127000540900205809002010B5002400BF00BF09
:10128000FEF7F0FF044600BFFFF7B2FF00BF1021DA
:10129000064801F083FA00BFFFF7C4FF00BF2046F5
:1012A000FEF7E4FF00BF00BF10BD0000345E002069
:1012B00010B5FFF7E1FF10BD10B50020024908602E
:1012C00000F00AF810BD0000400900200149086044
:1012D000704700004009002010B5FFF7B9FB044635
:1012E0000848006840F08070064908600020064900
:1012F00048600846006840F0010008602046FFF79B
:10130000E5FF10BDFCED00E0001000E00149486879
:1013100070470000001000E00EB502A84FF4CA713B
:101320000A23044ACDE9001003A1064801F028FC75
:101330000EBD00002849002053746F72616765205C
:101340004D656D000849002008B56B46142202A1C6
:10135000034801F037FD08BD4254204D736700007B
:10136000F05800202DE9F041B2B006460D46174670
:101370000024A046C8216846FFF794F900BF58E052
:10138000305D303817284DD2DFE800F00C1014180B
:101390001C2024282C304C4C4C4C4C4C4C34383CAD
:1013A0004044480000200DF804003FE001200DF803
:1013B00004003BE002200DF8040037E003200DF8A4
:1013C000040033E004200DF804002FE005200DF8A0
:1013D00004002BE006200DF8040027E007200DF89C
:1013E000040023E008200DF804001FE009200DF898
:1013F00004001BE00A200DF8040017E00B200DF894
:10140000040013E00C200DF804000FE00D200DF88F
:1014100004000BE00E200DF8040007E00F200DF88B
:10142000040003E00F200DF8040000BF00BF601CA3
:10143000C4B2AC42A4D3002412E0204604EBD07125
:101440004910A4EB410101F0FF08B8F1000F05D1EC
:101450001DF804000007000E0DF80400601CC4B263
:10146000AC42EAD300240AE01DF81400012101EB8C
:1014700044011DF8011008443855601CC4B2B4EB97
:10148000550FF1D332B0BDE8F08170B503460020AE
:10149000002400BF0EE033F810402512002606EBB2
:1014A0004006955513F81050012606EB4006955559
:1014B000451CE8B28842EED370BD30B5034600202B
:1014C000002400BF10E0002505EB40055C5D4FF6F1
:1014D000FF7505EA0424012505EB40055D5D254403
:1014E00022F81050451CE8B2B0EB510FEBD330BDE1
:1014F00014E009F02DFF08F075FB09F0B5F809F0CC
:10150000C7FB08F091F909F023FF00F0A9FDFFF7F0
:10151000A7FA00F085FD0A2009F0D8FFE9E7704737
:101520002DE9F0478AB00746142105A8FFF7BAF85D
:101530000024002514216846FFF7B4F8A2460026CF
:10154000A046A146042205A9564807F035F99DF8A2
:101550001A00554908709DF81B00097800EB01201E
:101560005149087008460078C82190FBF1F000F05E
:10157000FF0A97F80690F87900EB0929C820B9FB13
:10158000F0F0C6B2C820B9FBF0F100FB1198474952
:1015900001EBC62040F2ED32454907F00DF900BFDE
:1015A0000DE008EB880004EB40000A304049085C7D
:1015B00008EB880104EB41013D4A5054641C08EBE0
:1015C000880040F2DA71A1EB4000A042E9D8711C1A
:1015D000364A02EBC1200522694607F0EDF80024E7
:1015E00006E01DF8041004F5FA60314A1154641C39
:1015F0000A2CF6D32D4901EBC62040F2ED322C49DE
:1016000007F0EEF828480078401E27490870084681
:1016100000788DF81B000846007800128DF81A003B
:10162000042205A91F4807F0DBF8B24536D0012493
:101630002FE01E4901EBC42040F2ED321C4907F0B7
:10164000BBF8002505E01A4905F10A00085C485579
:101650006D1C40F2DA708542F5D3611C134A02EB2F
:10166000C1200522694607F0A7F8002506E01DF80D
:10167000051005F5FA600E4A11546D1C0A2DF6D3BB
:101680000A4901EBC42040F2ED32094907F0A8F8FD
:10169000641CAAEB0600401CA042CAD80AB0BDE8F0
:1016A000F087000000000208460000200008020841
:1016B0009C00002008B50121042005F055FF4FF4DF
:1016C0000060ADF8000010208DF8030003208DF8B5
:1016D00002006946044800F092F84FF400610248A5
:1016E00000F023F908BD00000008014030B50446B1
:1016F00004254FF4302000F06FF80546042D17D173
:101700000C48006940F002000A490861084644613B
:10171000006940F0400008614FF4302000F05CF8B0
:1017200005460448006941F6FD7108400149086119
:10173000284630BD0020024004200B49C96801F052
:10174000010109B101200EE00749C96801F0040157
:1017500009B1022007E00449C96801F0100109B18C
:10176000032000E004207047002002400348006985
:1017700040F08000014908617047000000200240ED
:1017800070B504460D460426F00200F025F8064622
:10179000042E11D10948006940F001000749086191
:1017A0002580F00200F018F806460448006941F66A
:1017B000FE71084001490861304670BD00200240BA
:1017C0000248034948600348486070472301674561
:1017D00000200240AB89EFCD00B502460423FFF79D
:1017E000ABFF034603E0FFF7A7FF0346521E012BA2
:1017F00001D1002AF7D102B90523184600BD2DE911
:10180000F041024600250026002000230024002786
:1018100091F803C00CF00F0591F803C00CF0100C08
:10182000BCF1000F03D091F802C04CEA050591F815
:1018300000C0BCF1000F31D0146800202BE04FF045
:10184000010C0CFA00F3B1F800C00CEA03069E424A
:1018500020D183004FF00F0C0CFA03F7BC4305FABC
:1018600003FC4CEA040491F803C0BCF1280F06D134
:101870004FF0010C0CFA00FCC2F814C00AE091F819
:1018800003C0BCF1480F05D14FF0010C0CFA00FC6D
:10189000C2F810C0401C0828D1D31460B1F800C0B1
:1018A000BCF1FF0F34DD546800202EE000F1080C7D
:1018B0004FF0010808FA0CF3B1F800C00CEA030677
:1018C0009E4221D183004FF00F0C0CFA03F7BC436A
:1018D00005FA03FC4CEA040491F803C0BCF1280F9C
:1018E00005D100F1080C08FA0CF8C2F8148091F840
:1018F00003C0BCF1480F07D100F1080C4FF00108FC
:1019000008FA0CF8C2F81080401C0828CED35460A6
:10191000BDE8F0810246002093680B400BB1012026
:1019200000E000207047416170470161704700008E
:1019300008B569461B4802F073FB31E005F012FD63
:101940000AF02EF81849086008460068002824D1DB
:10195000684602F08FFC15A0FEF79CFC0220194996
:101960000870012018490860184806F096FC69467E
:101970000C4802F00BF96946154802F051FB15A01E
:10198000FEF788FC00200F49087004201C490870ED
:1019900000200D4908600AF0FBFF322009F096FD97
:1019A000CCE70000C41900200C000020475052531F
:1019B000C4A3BFE9B3F5CABCBBAFCDEAB1CFA1A305
:1019C0000D0A0000140000200000002070440020D8
:1019D000FC10002047505253C4A3BFE9B3A4CAB1BE
:1019E000BCE4CEB4C4DCB7A2CBCDB3C9B9A6CAFDA2
:1019F000BEDDA3ACD6D8C6F4A1A30D0A000000003A
:101A00009900002008B538E00024322009F05EFD7E
:101A1000684602F02FFC0546284600F03DF81748BE
:101A2000006830B9164A1749174805F0A9FC134950
:101A300008601248006878B109F010FFC4B204B120
:101A40000FE00E4801680F4800F020F9C4B20020F2
:101A50000A49086004B104E014B90C48006860B198
:101A600000BF00240020094908606946084802F0C8
:101A70008DF86946074802F0D3FAC5E71000002048
:101A8000084900208C220020F05800204C00002043
:101A9000FC100020C419002070B505461248D0F88B
:101AA0001001281A0A281CD90F48D0F800010E4945
:101AB000401A032804DA084606F0EFFB002070BD48
:101AC00063210A4800F0D2F904462CB10749491EA7
:101AD0000C70012006490870034806F0DEFB204622
:101AE000EDE70020EBE7000070440020573B0020AA
:101AF0006400002008B54020ADF8000003208DF8F8
:101B0000020010208DF8030069461648FFF777FEA3
:101B10001020ADF8000003208DF8020010208DF891
:101B2000030069461048FFF76AFE4FF48050ADF895
:101B3000000003208DF8020010208DF80300694694
:101B40000A48FFF75CFE10210748FFF7ECFE4FF450
:101B500080510648FFF7E7FE40210248FFF7E3FE09
:101B600008BD00000010014000080140000C0140C9
:101B700030B5B5B000240025342128A8FEF792FD29
:101B8000142123A8FEF78EFD14211EA8FEF78AFD5E
:101B900000201B901C901D90642102A8FEF782FD7E
:101BA0000121082005F0E0FC0121102005F0DCFCFB
:101BB0004FF48050ADF8040003208DF8060010208B
:101BC0008DF8070001A92648FFF719FE4020ADF85F
:101BD000040003208DF8060010208DF8070001A9ED
:101BE0002048FFF70CFE8020ADF8040003208DF89C
:101BF000060048208DF8070001A91A48FFF7FFFDED
:101C00004FF40040ADF8040003208DF806001020CA
:101C10008DF8070001A91248FFF7F1FD4FF400709D
:101C2000ADF8040003208DF8060028208DF8070089
:101C300001A90C48FFF7E3FD00F026F8322202A9C3
:101C4000094806F0B9FD9DF81200AA2803D19DF8B5
:101C50002600AA2802D005A0FEF71CFB35B030BD37
:101C6000000C01400010014000000208B2E9BFB4BE
:101C70004950BACDB6CBBFDABFC9C4DCC3BBD3D0E1
:101C8000B4E6B4A20D0A0000704700002DE9F0414F
:101C900006460F463946304600F020F8044614B197
:101CA0002046BDE8F08109F00FFE04466CB96321BF
:101CB000074800F0DBF805460549491E0D70012074
:101CC00004490870044806F0E8FA2046E9E70000F5
:101CD000573B002064000020704400202DE9F043B1
:101CE00085B081460E460024002755480078162806
:101CF00002D1B6F5007F03D9002005B0BDE8F0831E
:101D00004FF0000896E04F4806F0C7FA14216846E5
:101D1000FEF7C8FC4FF400714B48FEF7A1FC00250C
:101D200049484AA10A6802604A684260097A017219
:101D30000924494802782046641C43490A542C224D
:101D40002046641C0A54081910224449FEF709FC75
:101D50000F342C222046641C3B490A54404800683A
:101D600009F02FFF07463A4669463D48006809F0EA
:101D70000AFF00BF06E01DF805202046641C32491A
:101D80000A546D1CBD42F6D32C222046641C2E49F9
:101D90000A54304609F015FF07463A466946304670
:101DA00009F0F1FE002506E01DF805202046641C20
:101DB00025490A546D1CBD42F6D32C222046641CD2
:101DC00021490A542146204800F023FD002509E05E
:101DD00019F805001C49FEF7F5FD02211A4800F02C
:101DE00018FD6D1CB542F3D30D20174908700A2069
:101DF00048700221144800F00CFD42F2107009F006
:101E00007DFAFF211748FEF72BFCFF2215490D48EC
:101E100009F0D7F9C7B2052F06D313491148FEF7C9
:101E20006FFB08B1002068E74FF47A7009F04EFBB1
:101E300008F10108B8F1030FFFF465AF01205CE77A
:101E4000D008002070440020A245002041542B4EB1
:101E5000534F53543D000000E0080020E4080020E8
:101E6000F4080020A2470020F0D800082DE9F04334
:101E700006460F464FF000093D48D0F800013C49A6
:101E8000441A00230AE03A48C05C2C2801D109F129
:101E90000109B9F1040F00D102E05B1CA342F2D3A7
:101EA00000BF3348C05C2C2802D00020BDE8F0837E
:101EB000002401254FF0010817E0591BDFF8B0C0DE
:101EC0001CF8010009F0E6FAFF2800D10FE0591BC9
:101ED000DFF89CC01CF8010009F0DCFA00FB0844A4
:101EE00008EB88004FEA40086D1C032DE5D900BFC0
:101EF0000CB90020DAE7BC4200D93C4600222BE0B6
:101F00009918491CDFF868C01CF8010009F0C2FAF2
:101F1000FF2800D123E002F0010078B19918491C94
:101F2000DFF84CC01CF8010009F0B4FA06EB5201CE
:101F30000978084406EB520108700CE09918491C16
:101F4000DFF82CC01CF8010009F0A4FA0007000E0D
:101F500006EB52010870521CB2EB440FD0D300BF05
:101F6000B2EB440F01D12046A0E700209EE700001D
:101F70007044002000BFFEE72DE9F04706460F46FB
:101F800015460024A0463846FEF7CCFAA84202D9EE
:101F90000020BDE8F087002413E03846FEF7C2FABF
:101FA000814630194A46394607F09EFB8046B8F113
:101FB000010F05D13846FEF7B5FA04442046E8E79C
:101FC000641C3846FEF7AEFA691C081AA042E4D831
:101FD0003846FEF7A7FA691C081AA04200D100246F
:101FE0002046D6E70146CA1701EB92729210A1EB88
:101FF000820292B9642091FBF0F200FB121050B9FA
:102000004FF4C87091FBF0F200FB121008B90120E8
:1020100070470020FCE70120FAE70020F8E7000005
:1020200010B50948007801280DD100200649087034
:1020300001200649087009F0B1FA642009F046FA57
:1020400003A0FEF727F910BD7000002099000020C2
:10205000B7A2CBCDB2E2CAD4D6A10D0A00000000CF
:102060003EB500240020009001900290384800689E
:1020700028B9384800683649086009F073FB3648CB
:102080000068002863D03548006800283FD102204E
:10209000324908603248007800EB8000314901EB9A
:1020A0000010007898B33048007880BB00240AE024
:1020B0002B48007800EB80002A4901EB0010005DFE
:1020C0002A490855641C2648007800EB8000254901
:1020D00001EB00100078401CA042E9D80020204904
:1020E000097801EB81011F4A02EB011108701C48BD
:1020F0000078132803DB00201949087004E0184811
:102100000078401C16490870184806F083F91648F4
:10211000007801281BD116480068A0B9154800783E
:10212000401C144908700846007802280CDB002087
:1021300008700D49087010A0FEF7ACF8FFF7A4FD79
:1021400001201849086002E0084806F063F93EBD26
:10215000300000205000002000000020340000204B
:102160005D0000202E3100205C000020CA300020DD
:10217000580000205F00002047505253C4A3BFE91D
:10218000B3A4CAB1BCE4CEB4C4DCB7A2CBCDB3C94E
:10219000B9A6CAFDBEDDA3ACD6D8C6F4A1A30D0A6C
:1021A000000000004C0000202DE9F0479AB00446E2
:1021B0004FF00008002500260027A946282110A876
:1021C000FEF770FA282106A8FEF76CFA142101A880
:1021D000FEF768FAF748007810B94FF0010806E0FA
:1021E0004FF000080025F3480078401E87B2CEE18A
:1021F000E81900EBD071C1F34F06781B012873DC9E
:10220000781B73D1C82095FBF0F0EB4901EBC0209F
:10221000C82195FBF1F201FB125101EB810100EBAA
:10222000410A032201A9504606F0C6FA10AA062167
:1022300001A8FFF742F92088BDF84010884218DB5A
:102240002088BDF84010884204D16088BDF8421053
:1022500088420EDB2088BDF8401088420DD160888E
:10226000BDF84210884208D1A088BDF844108842C9
:1022700003DA4FF00108A94689E12088BDF8401033
:1022800088420DD16088BDF84210884208D1A088EC
:10229000BDF84410884203D14FF00208A94676E108
:1022A0002088BDF84010884218DC2088BDF8401016
:1022B000884204D16088BDF8421088420EDC208834
:1022C000BDF84010884292D16088BDF84210884223
:1022D0008DD1A088BDF84410884288DD4FF00108F8
:1022E000681C1FFA80F952E1E4E0FFE7C82095FB83
:1022F000F0F0B14901EBC020C82195FBF1F201FBE0
:10230000125101EB810100EB410A032201A9504661
:1023100006F052FA10AA062101A8FFF7CEF8681CB1
:10232000C82190FBF1F0A44901EBC021C82095FB26
:10233000F0F200FB1250401C00EB800001EB400A61
:10234000032201A9504606F037FA06AA062101A881
:10235000FFF7B3F82088BDF84010884218DB2088CA
:10236000BDF84010884204D16088BDF84210884210
:102370000EDB2088BDF8401088420DD16088BDF882
:102380004210884208D1A088BDF84410884203DA80
:102390004FF00108A946FAE02088BDF840108842B5
:1023A0000DD16088BDF84210884208D1A088BDF8E0
:1023B0004410884203D14FF00208A946E7E0208884
:1023C000BDF84010884218DC2088BDF840108842D3
:1023D00004D16088BDF8421088420EDC2088BDF828
:1023E000401088422DD16088BDF84210884228D123
:1023F000A088BDF84410884223DD2088BDF818105D
:10240000884218DB2088BDF81810884204D1608803
:10241000BDF81A1088420EDB2088BDF818108842DB
:102420000FD16088BDF81A1088420AD1A088BDF883
:102430001C10884205DA4FF00108681C1FFA80F969
:10244000A5E02088BDF8181088420FD16088BDF83B
:102450001A1088420AD1A088BDF81C10884205D104
:102460004FF00208681C1FFA80F990E02088BDF840
:102470001810884218DC2088BDF81810884204D152
:102480006088BDF81A1088420EDC2088BDF818104C
:1024900088427CD16088BDF81A10884277D1A08824
:1024A000BDF81C10884272DD4FF00108A81C1FFA0D
:1024B00080F96CE0C82096FBF0F03F4901EBC020AA
:1024C000C82196FBF1F201FB126101EB810100EBE7
:1024D000410A032201A9504606F06EF910AA06210E
:1024E00001A8FEF7EAFF2088BDF84010884218DBFB
:1024F0002088BDF84010884204D16088BDF84210A1
:1025000088420EDB2088BDF8401088420CD16088DC
:10251000BDF84210884207D1A088BDF84410884217
:1025200002DA701E87B232E02088BDF8401088427F
:102530000DD16088BDF84210884208D1A088BDF84E
:102540004410884203D14FF00208B1461FE02088B2
:10255000BDF84010884218DC2088BDF84010884241
:1025600004D16088BDF8421088420EDC2088BDF896
:10257000401088420BD16088BDF84210884206D1D5
:10258000A088BDF84410884201DD701C85B2B8F106
:10259000000F3FF42DAEB8F1020F04D1A4F806905D
:1025A0000120208103E0A4F80690002020811AB0C9
:1025B000BDE8F087460000200008020810B502219F
:1025C0003048FFF7A7F9012832D12F48006818B921
:1025D00000202D49086004E02B480068401E2A496D
:1025E0000860294800682949096888420FD32648AD
:1025F000006827490968884209D8002022490860F4
:1026000024490870244908700120244908701E4894
:1026100000681F490968884233D300201A490860BE
:102620001C4908701C49087002201C49087028E0E9
:10263000154800684EF66021884204D212480068AE
:10264000401C114908601048006810490968884218
:1026500008D31048007828B901200E4908700220DC
:102660000F4908700848006809490968884208D37A
:102670000948007828B90120074908700420084952
:10268000087010BD00080140800000207800002084
:10269000740000207D0000207C00002070000020DD
:1026A0009900002008B50121082004F05DFF2020DA
:1026B000ADF8000010208DF8030003208DF8020013
:1026C00069460448FFF79BF820210248FFF72DF9DF
:1026D00008BD0000000C014021480078052839D2CF
:1026E000DFE800F003070B1E310001201D490860E0
:1026F00034E000201B49086030E01B480068401CA3
:102700001949086008460068642808D91548006817
:10271000C0431649C1F894010020134908601DE028
:1027200011480068401C10490860084600682828C5
:1027300008D90C480068C0430C49C1F89401002036
:10274000094908600AE007480068C0430749C1F822
:10275000940103E000200349086000BF00BF7047F8
:1027600014000020948121421800002000802142A2
:1027700010B510210348FFF7D6F8642008F0A6FE34
:1027800010BD00000008014010B510210148FFF7FE
:10279000CCF810BD0008014000BFFEE730B505468B
:1027A0000C4622460021284600F001F830BD2DE9F4
:1027B000F04103460C4617460FB9BDE8F08103B956
:1027C000FBE70025002202E02D022543521C042ACB
:1027D000FAD3384603F0030C1946BCF1000F08D0B9
:1027E000624603E001F8014B401E521C08B1042A66
:1027F000F8D30E4601E020C6001F0428FBD2314664
:1028000002E001F8014B401E0028FAD100BFD4E7D6
:10281000704770B504460D462946204608F028FA50
:1028200070BD704770B5002100230F22C47804B337
:10283000154C246804F4E064C4F5E064210AC1F195
:102840000403CA40447804FA03F184781440214315
:1028500009010E4C0678A155047804F01F050124E7
:10286000AC4005786D11AD0005F1E025C5F80041DB
:1028700009E0047804F01F050124AC40044D0678FB
:10288000761145F8264070BD0CED00E000E400E054
:1028900080E100E07047000010B50348006810B107
:1028A00001480068804710BD7009002070B50446DB
:1028B00000F0C2F8002048490870484908704849AB
:1028C0000870484908604849086048490870484904
:1028D00008704849087048490860484908604849F4
:1028E000086048490870484800680A21B0FBF1F0C8
:1028F000464908604648006858B14648056845B1F1
:102900004348066803E0761E002028602D1D002E37
:10291000F9D10020404908604049086040490860FA
:1029200040490860404908604049086040490860E3
:102930004049087002F0AEFC02F0C4FD204601F0F0
:10294000BDFD208800B170BD204602F0EBF9208863
:1029500000B1F8E7204602F0F1F9208800B1F2E773
:10296000204602F009FB208800B1ECE7204602F087
:10297000D9FC208800B1E6E7204602F029FF208834
:1029800000B1E0E7204603F093FA208800B1DAE7CF
:10299000204602F01FF9208800B1D4E7204601F05C
:1029A00029FF208800B1CEE7204604F0E9FA20880C
:1029B00000B1C8E7204603F0BFF9208800B1C2E7A4
:1029C000204604F039FB208800B1BCE701F09CFCF4
:1029D000FFF760FF00BFB6E7840900208C090020E4
:1029E000D40900202C0A0020300A0020BA09002057
:1029F000BB090020BC090020C8090020CC09002028
:102A0000D0090020DC090020B8DA0008D80900202D
:102A100088DA000884DA00086409002068090020C8
:102A20006C0900207009002074090020780900203A
:102A30007C0900200A0A00200A4A1168002002E0EE
:102A4000002204C1401C084A12689042F8D3054A8B
:102A50001268054B1B6802EB8302121F034B1A60BE
:102A60007047000084DA000888DA00085C0900205A
:102A700008480078012800D0704707480078FA28F5
:102A800000DBF9E704480078401C0349087000BFE8
:102A9000F2E700008C0900208409002010B5002412
:102AA0002E480078012800D010BD00BFFDF7DAFBEA
:102AB000044600BF2A48007828B900BF2046FDF729
:102AC000D5FB00BFF0E726480078401E2449087077
:102AD00008460078002805DD00BF2046FDF7C6FB4C
:102AE00000BFE1E71F480078002805DD00BF204651
:102AF000FDF7BCFB00BFD7E702F0B8FB1A4908702E
:102B00000846007800EB4000184951F820001849A9
:102B100008600846006817490968884205D100BF67
:102B20002046FDF7A3FB00BFBEE711480068D0F8C0
:102B30009000401C0E490968C1F890000E480068DA
:102B4000401C0D4908604FF080500C49086000BFE0
:102B50002046FDF78BFB00BF00BFA5E78C090020D6
:102B600084090020D4090020BB09002070740020D3
:102B7000300A00202C0A0020000A002004ED00E0AA
:102B80002DE9FF4F83B0044615461F46DDE9109638
:102B9000002000904C480078002805DD45F2B9601F
:102BA000308007B0BDE8F08F1DB945F2BB603080C2
:102BB000F7E7022F03DA45F2BC603080F1E7B9F1A4
:102BC000040F03D245F2C1603080EAE74FF0030AF8
:102BD000BAF1000F0DD005EA0A0018B145F2BB604A
:102BE0003080DEE709EA0A0018B145F2C1603080A2
:102BF000D7E7AB46A846781E80B20190002002902D
:102C000007E0C844CBF80080C3460298401C80B25D
:102C10000290DDE901108842F3DB0020CBF80000D0
:102C200000BF00BF00BFFDF71DFB009000BFFEF717
:102C3000DFFA00BF25480078401C24490870084688
:102C40000078012801D102F021FD00BFFEF7EAFA69
:102C500000BF0098FDF70AFB00BF00BF00BF1C4883
:102C600020600498A0606560E560A7826782A4F890
:102C70001090204602F042F816480088401C154982
:102C8000088000BF00BF00BFFDF7ECFA009000BF56
:102C9000FEF7AEFA00BF0D480078401E0B490870E1
:102CA0000846007808B902F0FFFC00BFFEF7BAFA48
:102CB00000BF0098FDF7DAFA00BF00BF00BF002098
:102CC000308000BF6DE7000084090020D409002097
:102CD0004D454D20B00900202DE9F04104460D4638
:102CE00000272CB945F2BF6028800020BDE8F081A4
:102CF00000BF00BFFDF7B6FA074600BFFEF778FA3F
:102D000000BFA08A68B900BFFEF78CFA00BF384642
:102D1000FDF7ACFA00BF00BF45F2C260288000207A
:102D2000E4E7E6683068E060A08A401EA08200BF49
:102D3000FEF778FA00BF3846FDF798FA00BF00BFEB
:102D4000002028803046D1E72DE9F04104460E46A8
:102D50001546002724B945F2BF602880BDE8F08100
:102D60001EB945F2BE602880F8E700BF00BFFDF73E
:102D700079FA074600BFFEF73BFA00BFA08A618AD6
:102D800088420CDB00BFFEF74DFA00BF3846FDF766
:102D90006DFA00BF00BF45F2BA602880DEE7E06848
:102DA0003060E660A08A401CA08200BFFEF73AFABD
:102DB00000BF3846FDF75AFA00BF00BF0020288048
:102DC00000BFCBE72DE9F04104460F4616461D46ED
:102DD0004FF0000833480078002804DD42F6E16037
:102DE0002880BDE8F0811CB945F6C3502880F8E77B
:102DF0001EB946F294502880F3E700BF00BF00BF21
:102E0000FDF730FA804600BFFEF7F2F900BF264812
:102E10000078401C2449087008460078012801D138
:102E200002F034FC00BFFEF7FDF900BF4046FDF79D
:102E30001DFA00BF00BF00BF1C482060676031461C
:102E400004F1200002F00EF804F1080002F028F965
:102E5000204602F04FFA16480088401C14490880AA
:102E600000BF00BF00BFFDF7FDF9804600BFFEF7C1
:102E7000BFF900BF0C480078401E0B490870084697
:102E8000007808B902F010FC00BFFEF7CBF900BFD4
:102E90004046FDF7EBF900BF00BF00BF00202880CF
:102EA00000BF9EE784090020D409002051554555F4
:102EB000C40900202DE9F04F89B0074689469046A5
:102EC0001E46DDE912544FF0000B864800780028BA
:102ED00006DD46F2AE102080002009B0BDE8F08F7C
:102EE00027B945F6C35020800020F6E726B946F200
:102EF000D52020800020F0E7B8F1000F03D0B8F50E
:102F0000004F02D100E000BF04E045F625602080BC
:102F10000020E2E700BF74493868884204D045F6D3
:102F2000C45020800020D8E70DB10020286000BFE9
:102F300000BFFDF797F9834600BFFEF759F900BFC0
:102F400023462A46314607F1200001F057FF82460A
:102F5000208850B900BFFEF765F900BF5846FDF75D
:102F600085F900BF00BF5046B7E708F4004068B1DC
:102F700000BFFEF757F900BF5846FDF777F900BFCD
:102F800000BF46F2B01020800020A6E75748007826
:102F900000280DDD00BFFEF745F900BF5846FDF7DC
:102FA00065F900BF00BF46F663502080002094E71B
:102FB00000BF4E480078401C4C4908700846007815
:102FC000012801D102F062FB00BFFEF72BF900BF20
:102FD0005846FDF74BF900BF00BF00BF4B46052226
:102FE000394601A801F0D4FF00BF00BF00BFFDF7C4
:102FF00039F9834600BFFEF7FBF800BF3B48007875
:10300000401E3A4908700846007808B902F04CFBA7
:1030100000BFFEF707F900BF5846FDF727F900BFCC
:1030200000BF00BF00F0C2F800BF00BFFDF71AF9F3
:10303000834600BFFEF7DCF800BF2D48006890F81B
:10304000350030B1012815D002282AD0032835D107
:103050001DE027480068D0F85CA025480068B0F85B
:10306000600030801DB122480068006C286000209C
:1030700020802BE04FF0000A002030801DB11C485A
:103080000068006C286046F2A91020801EE04FF016
:10309000000A0020308005B1286047F2D920208046
:1030A00014E04FF0000A002030801DB11048006885
:1030B000006C286045F6C250208007E04FF0000AFF
:1030C0000020308046F62E60208000BF00BF00BF89
:1030D000FEF7A8F800BF5846FDF7C8F800BF00BFCC
:1030E0005046FAE68409002051554555D409002080
:1030F0002C0A00202DE9FF470546884691461F46C9
:103100000C9C25B945F6C3502080BDE8FF87B7F574
:10311000004F19D009DC9FB1102F12D0B7F5007FF6
:1031200010D0B7F5047F13D10DE0A7F5004010389B
:1031300058B1B0F5F87F09D0B0F5007F08D106E0AE
:1031400000BF00BF00BF00BF00BF00BF00BF03E063
:1031500045F625602080D8E700BF124928688842DC
:1031600003D045F6C4502080CFE7FEF7CFF80646DF
:103170000D48007800280BDD00204B4642462946CA
:10318000CDE9017603940090064801F06BFBBCE7A3
:103190003B464A4641462846CDE9006402F0CEF857
:1031A00000BFB2E7515545558409002010B50024F1
:1031B00020480078002800DD10BD1F480078002856
:1031C00000DDF9E700BFFDF74DF8044600BF02F04F
:1031D0004DF81A4908700846007800EB400018497D
:1031E00051F8200017490860084600681649096828
:1031F000884205D100BF2046FDF738F800BFDBE765
:1032000010480068D0F89000401C0E490968C1F8C9
:1032100090000E480068401C0C4908604FF0805038
:103220000B49086000BF2046FDF720F800BF00BF33
:10323000C2E7000084090020D4090020BB09002057
:1032400070740020300A00202C0A0020000A0020A0
:1032500004ED00E070B5044600251A480078002807
:1032600003DD46F66250208070BD174800780128C3
:1032700003D045F689602080F6E714480078FA28E4
:1032800003DB45F209202080EEE700BF00BFFCF71A
:10329000E9FF054600BFFDF7ABFF00BF0B48007814
:1032A000401C0A49087002F0F1F900BFFDF7BAFFAF
:1032B00000BF2846FCF7DAFF00BF00BF00202080D7
:1032C00000BFD1E7840900208C090020D409002028
:1032D0002DE9F04105460C461646002700BF00BF09
:1032E000FCF7C0FF074600BFFDF782FF00BF012DBE
:1032F00003D000200E49087002E001200C4908703C
:1033000014B10C48046006E00B4800680A21B0FBC9
:10331000F1F00849086000BFFDF784FF00BF3846A0
:10332000FCF7A4FF00BF00BF00203080BDE8F081A3
:10333000DC090020D8090020B8DA000870B504467E
:10334000002523480078002803DD46F665502080DC
:1033500070BD20480078012803D045F689602080A0
:10336000F6E71D48007818B946F664502080EFE76C
:1033700000BF00BFFCF776FF054600BFFDF738FF32
:1033800000BF15480078401E1349087008460078B1
:1033900000280CDD00BFFDF745FF00BF2846FCF705
:1033A00065FF00BF00BF46F663502080D0E702F003
:1033B0007BF900BFFDF736FF00BF2846FCF756FF3C
:1033C00000BF00BFFFF7F2FE0020208000BFBFE774
:1033D000840900208C090020D409002010B504467F
:1033E00012480078E8B901F041FF11490870084619
:1033F0000078104908700E48007800EB40000E4934
:1034000051F820000D490860084600680C49086022
:10341000012006490870FDF74FFA43F699202080F5
:1034200002E045F68A60208010BD00008C09002073
:10343000BB090020BA09002070740020300A002067
:103440002C0A00202DE9F04107464FF0000800BF8C
:1034500000BFFCF707FF804600BFFDF7C9FE00BFB5
:103460000020474908604749088047490880474984
:10347000086047490860474908604749086047496C
:1034800008604749088100BFFDF7CCFE00BF4046F9
:10349000FCF7ECFE00BF00BF00BF00BFFCF7E2FE80
:1034A000804600BFFDF7A4FE00BF3E48046800BF91
:1034B000FDF7B8FE00BF4046FCF7D8FE00BF00BFD6
:1034C00026E000BF00BFFCF7CDFE804600BFFDF741
:1034D0008FFE00BF00207834E0632064206020630A
:1034E000A061A082E0826062A062FDF70FFF20620F
:1034F000783C04F164060020B081D4F8C04000BFDD
:10350000FDF790FE00BF4046FCF7B0FE00BF00BFD5
:10351000002CD6D100BF00BFFCF7A4FE804600BF40
:10352000FDF766FE00BF2048056800BFFDF77AFE84
:1035300000BF4046FCF79AFE00BF00BF16E000BF88
:1035400000BFFCF78FFE804600BFFDF751FE00BFB5
:1035500005F120060020B081AD6900BFFDF762FED5
:1035600000BF4046FCF782FE00BF00BF002DE6D141
:1035700003F0CEFB03F05CFE00203880BDE8F08154
:10358000A00900209A090020EA090020FC09002077
:10359000100A00201C0A002088090020CC09002005
:1035A00064740020040A0020C0090020F8B5044615
:1035B00000266946364800F033FDBDF8000018B11A
:1035C000BDF800002080F8BD6A460021022000F00E
:1035D000A9FDBDF8000018B1BDF800002080F2E799
:1035E00000BF00BFFCF73EFE064600BFFDF700FE31
:1035F00000BF00202749086000BFFDF713FE00BF91
:103600003046FCF733FE00BF00BF002522480068AB
:1036100022490968884205D91F4800681F4909687E
:10362000B0FBF1F525B91C4800680A21B0FBF1F5A3
:103630006A460021284600F075FD6946144800F0EE
:10364000A5FABDF8000018B1BDF800002080BAE767
:1036500000BF00BFFCF706FE064600BFFDF7C8FD31
:1036600000BF00200E4908600A4800680D49086044
:1036700001200D49087000BFFDF7D4FD00BF3046A2
:10368000FCF7F4FD00BF00BF0020208000BF9AE7D8
:1036900080770020EC090020B8DA0008A0DA0008E2
:1036A000FC090020F0090020F809002010B50348AB
:1036B000006810B101480068804710BD74090020FF
:1036C0002DE9FF4F87B004469046DDE91BA5DDE9F3
:1036D0001496179F0020039095480078002805DD78
:1036E00047F24A1028800BB0BDE8F08F1CB947F2B2
:1036F000AD102880F7E7B8F1000F03D147F24F1063
:103700002880F0E71EB946F62F602880EBE789484D
:103710000068874203D246F630602880E3E71698B7
:10372000B84203D346F631602880DCE7B9F1200FB8
:1037300003D346F273202880D5E7B9F1000F06D1F4
:103740007D48844203D046F273202880CBE7B9F14C
:103750001F0F06D17948844203D046F27320288097
:10376000C1E7204602F0B4FB002028800AF00100E7
:1037700090B10AF0020078B105960020069008E0AA
:103780000021059801600598001D05900698401CD1
:1037900006900698B842F3D3169806EB8000049082
:1037A000CDE9007A32464046049B0A9900F0D8FBE6
:1037B0000590C4F828800A98E0620898206284F88E
:1037C0003790059820600498A06019986065199852
:1037D00018B95B480068A06501E01998A0651A98BF
:1037E00060606662A763A4F83CA04FF0000B08E09D
:1037F000002104F17C0040F82B100BF1010000F0D7
:10380000FF0BBBF1000FF3D004F16400189901F035
:1038100029FB204600F09EF800BF00BF00BFFCF768
:1038200021FD039000BFFDF7E3FC00BF4548007891
:10383000401C4449087008460078012801D101F075
:1038400025FF00BFFDF7EEFC00BF0398FCF70EFD5F
:1038500000BF00BF00BF94F8370001F027FD2046ED
:1038600001F078FE204602F0E9FA37480088401C53
:103870003549088035480078012837D000BF00BF9F
:1038800000BFFCF7EFFC039000BFFDF7B1FC00BFE9
:103890002C480078401E2B49087008460078D0B9A3
:1038A00001F002FF2A48008800280BDD00BFFDF769
:1038B000B9FC00BF0398FCF7D9FC00BF00BF01F0C2
:1038C000B7FE11E000BFFDF7ADFC00BF0398FCF7A9
:1038D000CDFC00BF08E000BFFDF7A4FC00BF0398CB
:1038E000FCF7C4FC00BF00BF00BFFCE600BF00BF88
:1038F00000BFFCF7B7FC039000BFFDF779FC00BFE9
:1039000010480078401E0F4908700846007808B932
:1039100001F0CAFE00BFFDF785FC00BF0398FCF76D
:10392000A5FC00BF00BF00BFFFF740FC00BFDAE608
:1039300084090020B4DA00089C730020D4720020AF
:10394000D8090020D4090020080A00208C09002092
:103950009809002010B504460348006818B12046B5
:1039600001490968884710BD6409002070B5044604
:103970000D46002678480078002803DD47F24E10F7
:10398000288070BD7548844203D147F24C102880CE
:10399000F7E77348844203D147F24D102880F0E7DF
:1039A0009CB900BF00BFFCF75DFC064600BFFDF7F9
:1039B0001FFC00BF6B48046800BFFDF733FC00BF6D
:1039C0003046FCF753FC00BF00BF00BF00BF00BF84
:1039D000FCF748FC064600BFFDF70AFC00BF624842
:1039E0000078401C6049087008460078012801D121
:1039F00001F04CFE00BFFDF715FC00BF3046FCF7A0
:103A000035FC00BF00BF00BF94F8360008282DD257
:103A1000DFE800F004090E10080A0F11204601F03B
:103A2000D9FD5EE05DE000BF204603F055F958E0A7
:103A300000BF00BF00BF204603F04EF994F83400E9
:103A4000082810D2DFE800F004070508090A0B0671
:103A500000BF00BF08E000BF00BF00BF00BF20469E
:103A600001F056FB00E000BF00BF3AE000BF00BF1E
:103A700000BFFCF7F7FB064600BFFDF7B9FB00BF30
:103A800039480078401E3849087008460078D0B997
:103A900001F00AFE3548008800280BDD00BFFDF765
:103AA000C1FB00BF3046FCF7E1FB00BF00BF01F0E7
:103AB000BFFD11E000BFFDF7B5FB00BF3046FCF7CE
:103AC000D5FB00BF08E000BFFDF7ACFB00BF3046F0
:103AD000FCF7CCFB00BF00BF00BF46F62D6028807E
:103AE0004FE700BF04F1640001F066F9204600F0E2
:103AF00041F8204602F0BAF91D480088401E1C49D2
:103B00000880204602F0E4F9FF2084F8360000BF68
:103B100000BF00BFFCF7A6FB064600BFFDF768FB31
:103B200000BF11480078401E0F4908700846007811
:103B300008B901F0B9FD00BFFDF774FB00BF3046C6
:103B4000FCF794FB00BF00BF00BF00202880FFF7F8
:103B50002DFB00BF15E7000084090020D47200206F
:103B60009C7300202C0A0020D40900209809002012
:103B7000080A002010B504460348006818B1204622
:103B800001490968884710BD680900207FB50446CF
:103B90000D46002600BF00BFFCF764FB064600BFD1
:103BA000FDF726FB00BF1CB11748006884420CD10A
:103BB00000BFFDF737FB00BF3046FCF757FB00BFE7
:103BC00000BF47F2571028807FBD00BFFDF72AFBDA
:103BD00000BF3046FCF74AFB00BF00BF0B4800782F
:103BE00000280BDD0020009001900346024621468C
:103BF000CDE90205064800F035FEE5E729462046F6
:103C000002F012FB00BFDFE72C0A0020840900202D
:103C10005452455310B504460348006818B1204675
:103C200001490968884710BD6C0900202DE9F0475B
:103C300080460E4614461D464FF000098C48007819
:103C4000002805DD46F2AE1028800020BDE8F08790
:103C50001EB1B6F5004F02D100E000BF04E045F60A
:103C6000256028800020F1E700BF0CB10020206013
:103C700000BF00BFFCF7F6FA814600BFFDF7B8FAB7
:103C800000BF7C480068406CB8B37A480068406C5C
:103C9000401E78490968486476480068476C1CB142
:103CA00074480068006C2060FDF730FB71490968BA
:103CB000096C401A6F490968C1F8A4006D48006892
:103CC000D0F8A8006B490968D1F8A410884207D23F
:103CD00068480068D0F8A40066490968C1F8A800DF
:103CE00000BFFDF79FFA00BF4846FCF7BFFA00BFD0
:103CF00000BF002028803846A8E7FFE706F4004010
:103D000068B100BFFDF78EFA00BF4846FCF7AEFA77
:103D100000BF00BF46F2B0102880002096E756484A
:103D2000007800280DDD00BFFDF77CFA00BF484693
:103D3000FCF79CFA00BF00BF46F6635028800020C5
:103D400084E700BF4C480078401C4B490870084687
:103D50000078012801D101F099FC00BFFDF762FA5B
:103D600000BF4846FCF782FA00BF00BF00BF4346D1
:103D700007220021084601F00BF900BF00BF00BF79
:103D8000FCF770FA814600BFFDF732FA00BF3A48EF
:103D90000078401E384908700846007808B901F0DC
:103DA00083FC00BFFDF73EFA00BF4846FCF75EFA11
:103DB00000BF00BF00BFFFF7F9F900BF00BFFCF76D
:103DC00051FA814600BFFDF713FA00BF2948006889
:103DD00090F8350020B1012826D0032834D12CE0FA
:103DE000FCB124480068006C2060FDF78FFA21497F
:103DF0000968096C401A1F490968C1F8A4001D48E8
:103E00000068D0F8A8001B490968D1F8A4108842BE
:103E100007D218480068D0F8A40016490968C1F80C
:103E2000A8000020288013E01CB112480068006C34
:103E3000206046F2A91028800AE00CB10020206022
:103E400047F2D920288003E046F62E60288000BF84
:103E500000BF08480068476C00BFFDF7E3F900BFEA
:103E60004846FCF703FA00BF00BF3846EEE6000004
:103E7000840900202C0A0020D40900202DE9F047F5
:103E800005460E4617461C464FF0000A3248007899
:103E9000002804DD47F259102080BDE8F0871EB9E4
:103EA00046F2D5202080F8E71FB946F2D5202080C1
:103EB000F3E700BF00BFFCF7D5F9824600BFFDF76E
:103EC00097F900BF0DB925480568286878B900BF83
:103ED000FDF7A8F900BF5046FCF7C8F900BF00BFC6
:103EE00000203060386047F252102080D5E795F806
:103EF0003C0000F0010078B900BFFDF793F900BF66
:103F00005046FCF7B3F900BF00BF002030603860B6
:103F100047F254102080C0E700BFFDF783F900BFCF
:103F20005046FCF7A3F900BF00BF4FF00008D5F8DA
:103F3000249003E009F1040908F10108D9F8000010
:103F40000028F7D0C6F80080A86BA0EB0800386006
:103F50000020208000BFA0E7840900202C0A002058
:103F6000F0B50446DDE9055602EB85004FF0807C94
:103F7000071F3846C7F800C0071F38463C60DFF807
:103F80009CC0071F3846C7F800C04FF0123C071FFF
:103F90003846C7F800C04FF0033C071F3846C7F843
:103FA00000C04FF0023C071F3846C7F800C0071F8B
:103FB00038463B60071F384639604FF0113C071FF9
:103FC0003846C7F800C04FF0103C071F3846C7F806
:103FD00000C04FF0093C071F3846C7F800C04FF03B
:103FE000083C071F3846C7F800C04FF0073C071FC2
:103FF0003846C7F800C04FF0063C071F3846C7F8E0
:1040000000C04FF0053C071F3846C7F800C04FF00E
:10401000043C071F3846C7F800C0F0BDA563000880
:104020007FB505460C461248854203D147F25B1026
:1040300020807FBD0F48854203D147F25C1020806D
:10404000F7E70D48007800280BDD00200090019074
:10405000034602462946CDE90204084800F002FC66
:10406000E7E72146284602F07DFC00BFE1E70000BB
:10407000D47200209C7300208409002054535553AF
:1040800070B52448006810B1224800688047FDF7E9
:104090003DF904462048006820490968884215D047
:1040A0001D480068D0F89800201A1B490968C1F81B
:1040B000940019480068D0F89C0017490968D1F8A5
:1040C0009410084414490968C1F89C00134800681A
:1040D000C0F89840FDF760F805460F480068D0F832
:1040E000B400A84203D20C480068C0F8B4500A4893
:1040F0000068D0F8B8000A490968884205D2084823
:10410000006805490968C1F8B80000200449086042
:1041100070BD0000780900202C0A0020300A002021
:10412000D00900202DE9F04105460E46144600272F
:104130004D480078002804DD47F275202080BDE856
:10414000F0814A480078002803DD46F6635020805D
:10415000F5E736B1022E05D0042E0AD0082E09D17B
:1041600001E000BF00BF1DB947F27E202080E6E7D6
:1041700004E003E045F625602080E0E700BF00BFD3
:1041800000BF00BFFCF76EF8074600BFFDF730F830
:1041900000BF36480078401C344908700846007853
:1041A000012801D101F072FA00BFFDF73BF800BF12
:1041B0003846FCF75BF800BF00BF00BF01202C4968
:1041C000096881F8360023463246294628480068A7
:1041D00002F0A4FC2088F0B100BF00BF00BFFCF7D4
:1041E00041F8074600BFFDF703F800BF1F480078FD
:1041F000401E1E4908700846007808B901F054FABC
:1042000000BFFDF70FF800BF3846FCF72FF800BFDE
:1042100000BF00BF93E71648006801F0DBF900BF5C
:1042200000BF00BFFCF71EF8074600BFFCF7E0FF29
:1042300000BF0E480078401E0C4908700846007800
:1042400008B901F031FA00BFFCF7ECFF00BF3846B7
:10425000FCF70CF800BF00BF00BFFEF7A7FF00206F
:10426000208000BF6BE7000084090020D4090020F3
:104270002C0A002070B50446002600BF00BFFBF7E3
:10428000F1FF064600BFFCF7B3FF00BF0748056813
:1042900000BFFCF7C7FF00BF3046FBF7E7FF00BFDA
:1042A00000BF00202080284670BD00000C0A0020BE
:1042B00010B586B000F01EF8FDF728F8044605A8F2
:1042C00000210091CDE9011403900748007800EB2C
:1042D0004000064A02EB800100231A46044800F021
:1042E000C1FA06B010BD0000BA09002070740020A9
:1042F0005449434B10B50348006810B101480068A9
:10430000804710BD7C090020254A2649264A274AB5
:104310002749284A2848294A294A2A4A2A4A2B480A
:104320002B482C482C4A2D482D4A2E482E4A2F48DF
:104330002F4830483048314A314A324A3248334AAD
:10434000334A344834483548354836483648374883
:10435000374A384A384A394A39483A483A483B4A4B
:104360003B4A3C4A3C483D483D483E493E483F4A1E
:104370003F4A404A404A414A414A424A4248434AE7
:10438000434A44484448454A454A4648464A474ABB
:1043900047484848484800BF00BF00BF704700007A
:1043A000FCDA000864DC0008FDDA0008FEDA000828
:1043B00000DB000804DB000808DB000805DB000860
:1043C00030DB000831DB000832DB000834DB00089A
:1043D00036DB000838DB00083ADB00083CDB00086D
:1043E0005CDB00085EDB000860DB000862DB0008C5
:1043F00064DB000866DB000868DB000894DB00086B
:1044000095DB000896DB000898DB00089ADB0008C3
:104410009BDB00089CDB00089EDB0008A0DB00089B
:10442000A2DB0008A4DB0008A6DB0008A8DB00086C
:10443000D8DB0008D9DB0008DADB0008DBDB00088A
:10444000DCDB0008DEDB0008E0DB000808DC00083D
:1044500009DC00080ADC00080BDC00080CDC0008A2
:104460000EDC000810DC000814DC000815DC000875
:1044700016DC000817DC000818DC000819DC00084E
:104480001ADC00081BDC00081CDC00081EDC00082D
:104490001FDC000820DC000822DC000824DC000807
:1044A00025DC000828DC00085CDC00085DDC000876
:1044B0005EDC000860DC000862DC00080021034AC2
:1044C0001160034A1180018070470000A409002098
:1044D000A80900202DE9F04F85B004468946924690
:1044E0009B46DDF838800020009000BF00BFFBF73E
:1044F000B9FE009000BFFCF77BFE00BFBAF1000FD1
:104500000AD0BAF1010F0DD0BAF5004F05D06FF403
:104510000040504460B906E000BF206A40EA09004C
:10452000206216E000BF206A20EA0900206210E045
:1045300000BFFCF777FE00BF0098FBF797FE00BFB7
:1045400000BF45F62560A8F80000002005B0BDE8D2
:10455000F08F00BFC4F824B004F108000190019866
:10456000008968B900BFFCF75DFE00BF0098FBF74B
:104570007DFE00BF00BF0020A8F80000206AE5E72C
:1045800000BF71480078401C6F49087008460078E9
:10459000012801D101F07AF800BFFCF743FE00BF0B
:1045A0000098FBF763FE00BF00BF00BF01980768DB
:1045B000BD6889E07868029095F8880000F00F00E7
:1045C00003900398012821D002282ED0042802D07D
:1045D000082836D10EE0206AD5F8801000EA0106DE
:1045E000D5F88000B04204D15A463146284600F042
:1045F000AFF863E0206AD5F8801000EA010626B122
:104600005A463146284600F0A3F857E0D5F8800016
:10461000216A20EA0106D5F88000B04204D15A464A
:104620003146284600F094F848E0D5F88000216A29
:1046300020EA010626B15A463146284600F088F89D
:104640003CE000BF00BF00BFFBF70CFE009000BFC6
:10465000FCF7CEFD00BF3C480078401E3A49087088
:1046600008460078D0B901F01FF8384800880028C3
:104670000BDD00BFFCF7D6FD00BF0098FBF7F6FD91
:1046800000BF00BF00F0D4FF11E000BFFCF7CAFD7F
:1046900000BF0098FBF7EAFD00BF08E000BFFCF791
:1046A000C1FD00BF0098FBF7E1FD00BF00BF00BFE8
:1046B00043F6FF20A8F80000002047E700BF029F54
:1046C0000FB1BD6800E00025002D7FF473AF00BF7F
:1046D00000BF00BFFBF7C6FD009000BFFCF788FDE0
:1046E00000BF19480078401E174908700846007836
:1046F00008B900F0D9FF00BFFCF794FD00BF009897
:10470000FBF7B4FD00BF00BF00BF0AF4004008B9CA
:10471000FEF74CFD00BF00BFFBF7A4FD009000BFFB
:10472000FCF766FD00BF206A049000BFFCF77AFD2D
:1047300000BF0098FBF79AFD00BF00BF0020A8F85B
:104740000000049802E70000D40900209809002026
:1047500070B504460E461546343426650020607058
:104760002070E560A078343C082816D2DFE800F01D
:10477000040508090706101100BF00BF00BF0DE0C7
:1047800000BF204601F042FD002084F8360005E01D
:1047900000BF042084F8360000E000BF00BF2046C0
:1047A00000F0B6FC70BD0000002400BF1DE000BF9B
:1047B00000BFFBF757FD044600BFFCF719FD00BF23
:1047C0000A480068401C0949086009480068401C04
:1047D0000749086000BFFCF725FD00BF2046FBF736
:1047E00045FD00BF00BFFEF757F8E0E78009002055
:1047F000EC09002010B58AB0044600200E4908607C
:104800000B2000210591CDE90704069108460B49CC
:1048100009680B4A12680B4B1B68CDE90132CDE9E0
:1048200003101F200023084A08A100900C48FEF73F
:1048300047FF0AB010BD00008009002060DA0008C0
:104840005CDA000858DA0008A947000875432F4FC2
:10485000532D4949492049646C65205461736B00AC
:10486000D47200202DE9F84F04460D4616461F4627
:10487000DDE90BABDDF82890DDF8348000200090F6
:1048800000BF00BFFBF7EEFC009000BFFCF7B0FCE0
:1048900000BF2C4800882C49098888423EDA294804
:1048A0000088401C274908802848008809888842D9
:1048B00003DA2448008825490880254800680460F8
:1048C00023480068856022480068C6602048006868
:1048D00007821F480068C0F814901D480068A0F8BF
:1048E00018A01B480068C0F81CB019480068406850
:1048F0001749086001201749088117480860486077
:10490000002000F0D3FC1548007818B11348007857
:10491000134908700020A8F8000008E0114800883A
:10492000401C1049088044F25360A8F8000000BF02
:10493000FCF778FC00BF0098FBF798FC00BF00BFB5
:10494000BDE8F88F980900206CDA00089A09002069
:1049500090090020707400209C730020BA09002088
:10496000BC0900209C0900203EB559480068006839
:10497000584A811A904279D00FDC574908440028E0
:104980003ED056490844A8B155490844002860D093
:104990005449084400286AD13FE05348084400289D
:1049A00050D052490844002862D051490844002898
:1049B000F1D110E002A8464D00902D68EB69444DFE
:1049C0002D682A8B424D2D686969414D2D68A86874
:1049D000FFF780FD7AE002A93D480068C0693C4DC0
:1049E000CDE900012D682B8B394D2D682A8A384D71
:1049F0002D68E968364D2D68A86800F09FFC65E0D9
:104A0000334B1B68DA69324B1B68198B304B1B68C0
:104A1000986802AB00F0E8FE58E002A92C48006854
:104A2000C0692B4DCDE900012D682B8B284D2D68D9
:104A30002A8A274D2D68E968254D2D68A86801F060
:104A4000AFFA43E022490968886802A901F0ECFB4B
:104A50003CE01F4B1B68DA691D4B1B68198B1C4B14
:104A60001B68986802AB01F0A9FC2FE007E02CE07E
:104A700017490968886802A901F074FF26E01D49FA
:104A8000097801EB41011C4A02EB810000F02AFE8B
:104A90000F48006802AB0021C269184801F08EFC83
:104AA00017480068401E164908600846006858B953
:104AB000144800680860FCF729FC044602AB224653
:104AC0000021114801F07AFC00E000BF00BF3EBDAC
:104AD000940900205449434BADBAB2BE0DF90BFA0C
:104AE000F2F8F7FF0006F6FF00F7FDF700FFEFFF13
:104AF00003FE0FFEBC09002070740020B876002071
:104B0000280A0020240A002080770020002700BF08
:104B100056E0002652E000BF00BFFBF7A3FB0746AC
:104B200000BFFCF765FB00BF2648008898B900204D
:104B3000254908810860486000F0CAFB00BFFCF707
:104B400071FB00BF3846FBF791FB00BF00BFFEF7CB
:104B50002DFB012632E000BFFCF764FB00BF3846A6
:104B6000FBF784FB00BF00BFFCF7D0FB0546FFF757
:104B7000FBFEFCF7CBFB441B14480068A04201D2AB
:104B80001248046000BF00BFFBF76CFB074600BF84
:104B9000FCF72EFB00BF0E48006840680C49086017
:104BA00008480088401E0749088000BFFCF73AFB10
:104BB00000BF3846FBF75AFB00BF00BF002EAAD04B
:104BC000A7E700009809002070740020A0090020C9
:104BD00094090020F0B589B00546002031490880CD
:104BE0003148006820B944F25260288009B0F0BD15
:104BF0002E480088022803DA44F254602880F5E742
:104C000000202B49086028480468264620360027E3
:104C10000CE0284820600020A060E06020826061F5
:104C20002083666020342036781C87B21F480088B5
:104C30008742EEDB203C1C48066866601E48066022
:104C40001E48066000201E4908801E4908801E4834
:104C5000006818B944F255602880C7E71B4800680F
:104C60001B490968884203D244F256602880BDE798
:104C7000032000210591CDE907050691134800683E
:104C8000144A1268104B1B68CDE90301CDE90132CB
:104C900000910B46104A11A11748FEF711FD00BF05
:104CA000A4E700009C09002068DA00086CDA00081C
:104CB000A00900204E4F4E45900900209409002085
:104CC000980900209A09002074DA00087CDA0008AC
:104CD000B4DA000878DA00080D4B000875432F4F4E
:104CE000532D494949204953522051756575652016
:104CF0005461736B000000009C73002000218161EF
:104D00000749096811B90021C16105E00449096832
:104D1000C161034909688861014908607047000062
:104D2000AC0900200021034A1160034A1180018070
:104D300070470000AC090020B009002070B50146A2
:104D40001A4D2D681DB945F21E750D8070BD184DA8
:104D50002D881DB945F21D750D80F7E7134D2868A4
:104D60002A681032124D2D886D1EACB2002308E067
:104D70000260002545600581C560103010325D1C61
:104D8000ABB2A342F4DB0025056045600581C56038
:104D9000064D2D68074E3560054D2D88B5800025E0
:104DA000F58035810D8000BFD0E7000098DA00085B
:104DB00090DA00086474002010B5014648894B89D8
:104DC000002B17DD0A680C4B1B6813600A4C4B68FC
:104DD00023602346DB884C891B1B074CE38023465A
:104DE0009B884C892344044CA38000234B818B81F6
:104DF0000B604B6010BD000064740020F0B50446E9
:104E00000D46608940B90020288002B1106046F24A
:104E1000925018800020F0BD61684E680889288093
:104E20000AB1C868106008686060606818B900203E
:104E30002060608102E06089401E6081084800684F
:104E40000860074801608088401C054FB8803846DC
:104E5000C088401EF880002018803046DBE7000044
:104E600064740020018100224281828102604260DC
:104E7000704700002DE9F0410D46DDE90674B0F8F9
:104E80000AC0B0F80880C44505DB46F2935CA4F87C
:104E900000C0BDE8F081DFF8DCC0BCF804C0BCF1A4
:104EA000000F04D145F21D7CA4F800C0F1E7DFF843
:104EB000C4C0DCF80010DFF8BC80D1F800C0C8F82E
:104EC00000C0C446BCF804C0ACF1010CA8F804C092
:104ED000C446BCF806C00CF1010CA8F806C0C446D4
:104EE000BCF808C0B8F80680C44507DADFF884C00B
:104EF000BCF806C0DFF87C80A8F808C0B0F80AC08B
:104F0000BCF1000F0AD1016041604FF0010CA0F824
:104F10000AC04FF0000CC1F800C017E003F0100CFD
:104F2000BCF1000F07D10668316001604FF0000C42
:104F3000C1F800C004E0D0F804C0C1F800C041606E
:104F4000B0F80AC00CF1010CA0F80AC0B0F80CC00F
:104F5000B0F80A80C44503DAB0F80AC0A0F80CC063
:104F60004D600A81CF604FF0000CA4F800C000BF74
:104F70008FE70000647400200021034A1160034A97
:104F80001180018070470000B4090020B80900209A
:104F90002DE9F04105460C4616461F4615480068A7
:104FA00080F8346000201349096881F835003946DB
:104FB0001048006800F026FF6CB104F10808EC60AE
:104FC000012229460B48006800F016F829464046A1
:104FD00000F06BF806E0002006490968C88705491B
:104FE0000968086303480168204600F019F8BDE825
:104FF000F08100002C0A002010B5C2870163002355
:105000000AE000244C600C600C614C610C83CC61A4
:10501000886020315C1CA3B29342F2DB10BD00001B
:1050200030B548B14568C1F8C45000F108042268A1
:1050300093681D6AC56113E091F83450022D02D0C7
:10504000072D08D103E007A5C1F8C45007E007A564
:10505000C1F8C45003E008A5C1F8C45000BF00BFA8
:1050600030BD00005461736B205100005461736BBC
:105070002053656D000000002000000030B507A53A
:10508000C1F8C45000F1080422681AB193681D6A7F
:10509000C56101E001A5C56130BD00002000000030
:1050A00000210160416001817047F0B58E6896F87B
:1050B000375007893FB90127078100274F600F60EC
:1050C0000160416023E007897F1C0781026806E0D8
:1050D000946894F83770AF4200DD02E05268002A0D
:1050E000F6D100BF32B900274F6043680B605960AA
:1050F00041600CE017682FB9116000270F604A600B
:10510000016004E013680B604A6059601160F0BDF3
:105110002DE9F0410446256BE68F0AE0D5F80C80B6
:1051200008F108072946384600F00AF82035701EB5
:1051300086B2002EF2DC0020E0872063BDE8F0811B
:1051400010B50489012C03D100240460446011E0EF
:105150000C6824B94A680024146002600AE04C68B4
:1051600024B90B6800245C60436003E00B684A6864
:105170005A6013600489641E048100244C600C6032
:1051800010BD2DE9F84306460C4617469846089D83
:1051900094F83600082850D2DFE800F0040508092A
:1051A00006072B2C00BF00BF00BF47E000BF94F8EC
:1051B0003400032807D143463A462146304600953D
:1051C00000F03FF803E0E765A4F86080256436B19D
:1051D0002046FFF79DFF21463046FFF74FFF204650
:1051E00001F014F800203434A070607004F8340921
:1051F00024E000BF94F83400032807D143463A4620
:1052000021463046009500F01CF803E0E765A4F85D
:1052100060802564204601F05FFD36B12046FFF72F
:1052200077FF21463046FFF729FF04203434A07071
:105230000020607004F8340900E000BF00BFBDE842
:10524000F883F0B50446059E086BCD8F0AE0C76869
:10525000A74204D1046142610383C66104E02030A7
:105260006F1EBDB2002DF2DC00BFF0BD70B5002591
:10527000074C03E005F12000C5B2241D206800287A
:10528000F8D02068FAF7F9FF2844C5B2284670BD67
:1052900060090020002004E00021034A42F82010A9
:1052A000401C0028F8D070476009002030B5420942
:1052B00000F01F030121C3F11F04A140034C54F867
:1052C00022400C43014D45F8224030BD60090020CA
:1052D00030B5420900F01F030121C3F11F04A140B2
:1052E000034C54F822408C43014D45F8224030BD18
:1052F0006009002009A1C1610021416108490968D4
:1053000011B90021816105E00549096881610449FD
:1053100009684861024908607047000020000000E9
:10532000C00900200021034A1160034A1180018056
:1053300070470000C0090020C40900202DE9F04F8B
:1053400085B007468A4693461C460020029000BF5F
:1053500000BF00BFFAF786FF029000BFFBF748FFCF
:1053600000BF56480078401C544908700846007831
:10537000012801D100F08AF900BFFBF753FF00BFFD
:105380000298FAF773FF00BF00BF00BF07F10806DD
:10539000308900284CD104F0100010B94FF00008FB
:1053A00001E04FF01008DDE90E0143465A46CDE911
:1053B0000001514607F12000FFF75CFD00BF00BF70
:1053C00000BFFAF74FFF029000BFFBF711FF00BFCD
:1053D0003A480078401E3949087008460078D0B92C
:1053E00000F062F93648008800280BDD00BFFBF7AB
:1053F00019FF00BF0298FAF739FF00BF00BF00F0A5
:1054000017F911E000BFFBF70DFF00BF0298FAF794
:105410002DFF00BF08E000BFFBF704FF00BF0298AC
:10542000FAF724FF00BF00BF00BF05B0BDE8F08F52
:1054300004F4007008B1358900E00125D6F8009029
:1054400011E0D9F808000390D9F8040004900E98F0
:105450005B465246009038460399FFF792FEDDF80E
:105460001090681E85B2002DEBD100BF00BF00BFB9
:10547000FAF7F8FE029000BFFBF7BAFE00BF0F4834
:105480000078401E0D4908700846007808B900F001
:105490000BF900BFFBF7C6FE00BF0298FAF7E6FE65
:1054A00000BF00BF00BF04F4004008B9FDF77EFE56
:1054B00000210F98018000BFB7E70000D409002049
:1054C0009809002000210AE001EB4102054B03EBA3
:1054D000820000220281026042604A1CD1B220296F
:1054E000F2D370477074002010B5044694F837006A
:1054F000FFF7DCFE94F8370005490978884203D1AC
:10550000204600F027F802E0204600F003F810BD26
:10551000BA09002010B590F8373003EB43030C4C68
:1055200004EB83010B893BB901230B810023C3608A
:1055300003610860486009E00B895B1C0B810B6804
:10554000C360002303610A681061086010BD000099
:105550007074002010B590F8373003EB43030B4C08
:1055600004EB83010B893BB901230B810023C3604A
:1055700003610860486008E00B895B1C0B81002315
:10558000C3604A680261D060486010BD707400203A
:1055900010B501460C8924B1012C03D0022C0CD18A
:1055A00001E000BF14E008684A6802610024C4609A
:1055B0001461D0600A6048600AE008684A68C368FD
:1055C00000241C61C4600261D0600B60486000BFB1
:1055D00000BF10BD2DE9F041054695F8370000EBFE
:1055E0004000124901EB80042F69EE6887B946B983
:1055F000002020812060606095F83700FFF768FE8A
:105600000EE02089401E208100203061266007E0E6
:105610002089401E2081FE600EB9676000E037617E
:1056200000202861E860BDE8F0810000707400206F
:1056300010B5002400BFFAF715FE044600BF002095
:105640000D4908700D480E49086008460068D0F8FA
:105650009000401C0968C1F890000A480068401C8E
:10566000084908604FF080500749086000BF204695
:10567000FAF7FCFD00BF10BDBB0900209C730020A1
:10568000300A0020000A002004ED00E010B50448B4
:105690000078012803D1FBF739FE0249086010BDEC
:1056A000D4090020C809002010B50A48007880B944
:1056B000FBF72CFE08490968441A08480068A04214
:1056C00001D20648046006480068A04201D204489E
:1056D000046010BDD4090020C8090020CC090020B6
:1056E000D009002070B5054600263548007801280D
:1056F00000D070BD00BF00BFFAF7B4FD064600BF82
:10570000FBF776FD00BF2C684CB900BFFBF78AFDA4
:1057100000BF3046FAF7AAFD00BF00BFE9E72948FD
:10572000844209D100BFFBF77DFD00BF3046FAF788
:105730009DFD00BF00BFDCE7A06D10B1A06D401E55
:10574000A065A06D48B100BFFBF76CFD00BF3046FF
:10575000FAF78CFD00BF00BFCBE72889022809DAE1
:1057600000BFFBF75FFD00BF3046FAF77FFD00BFCB
:1057700000BFBEE714480078002809DD00BFFBF732
:1057800051FD00BF3046FAF771FD00BF00BFB0E722
:105790002846FFF7FDFE2C68606D18B90B480068BD
:1057A000A06501E0606DA06500BFFBF73BFD00BF99
:1057B0003046FAF75BFD00BF00BF00BF99E700006D
:1057C000DC090020D4720020D4090020D809002070
:1057D0000021034A1160034A1180018070470000D4
:1057E000E0090020E40900202DE9FF5F0446884617
:1057F00091461D460020019000BF00BFFAF732FD20
:10580000019000BFFBF7F4FC00BF04F108073889E2
:10581000002857D10420012804D0022816D00428DB
:105820003AD127E0206AFF280FD100BFFBF7FAFC2E
:1058300000BF0198FAF71AFD00BF00BF46F6C55039
:105840002880002004B0BDE8F09F26E04FF6FF71ED
:10585000206A88420DD100BFFBF7E4FC00BF01982D
:10586000FAF704FD00BF00BF46F6C55028800020AF
:10587000E8E712E0206A401C68B900BFFBF7D2FCE1
:1058800000BF0198FAF7F2FC00BF00BF46F6C55012
:1058900028800020D6E700E000BF00BF206A401C3F
:1058A0002062D4F820A0C4F8249000BFFBF7BAFC13
:1058B00000BF0198FAF7DAFC00BF00BF0020288083
:1058C0005046BFE700BF2D480078401C2B490870A8
:1058D00008460078012801D1FFF7D8FE00BFFBF78A
:1058E000A1FC00BF0198FAF7C1FC00BF00BF00BFD8
:1058F00008F4007008B13E8900E00126D7F800B036
:1059000011E0DBF808000290DBF8040003900023AC
:105910001A46CDF8009020460299FFF732FCDDF8D8
:105920000CB0701E86B2002EEBD1D4F820A000BFC0
:1059300000BF00BFFAF796FC019000BFFBF758FCD0
:1059400000BF0E480078401E0C49087008460078D9
:1059500008B9FFF7A9FE00BFFBF764FC00BF019880
:10596000FAF784FC00BF00BF00BF08F4004008B98C
:10597000FDF71CFC00202880504663E7D409002076
:1059800086B00020009000BF06E0D94909684800B1
:1059900001AA0021FEF7C6FBD64800780128F4D101
:1059A00001A8FDF74FFD0027D3480068D0490968DA
:1059B000884205D9D0480068CD490968B0FBF1F7A5
:1059C00027B9CD4800680A21B0FBF1F78EE1FBF75B
:1059D0009DFC8246FBF7F6FBC849086000BF00BF8C
:1059E000FAF740FC009000BFFBF702FC00BFC44880
:1059F0000068C44908600020C149086000BFFBF787
:105A000011FC00BF0098FAF731FC00BF00BFBE4890
:105A10000068BC490968884248D9BB480068BB494E
:105A2000884205D242F2107003900120029023E0D8
:105A3000B5480068B649884205D24FF47A700390A1
:105A40000A20029018E0B0480068B249884203D2A8
:105A50006420039002900FE0AB480068AE49884292
:105A600005D20A2003904FF47A70029004E00120DE
:105A7000039042F210700290A34801680298B1FBB3
:105A8000F0F9A049039809684843B0FBF9F042F2E5
:105A90001071081AA1490880A14800880988884225
:105AA00008DA9E4800889E49088003E042F21070A0
:105AB0009A490880FDF7FAFD002500BF00BFFAF7FC
:105AC000D1FB009000BFFBF793FB00BF9548046833
:105AD00000BFFBF7A7FB00BF0098FAF7C7FB00BFAA
