:020000040800F2
:1000000040810020FD0100081F2A0008052100088A
:1000100095290008290E0008A7B20008000000007A
:10002000000000000000000000000000338900080C
:10003000FF16000800000000AB080008D19400087B
:10004000170200081702000817020008357A000896
:10005000170200081702000817020008170200081C
:10006000170200081702000817020008170200080C
:1000700017020008170200081702000817020008FC
:1000800017020008170200081702000817020008EC
:1000900017020008170200081702000817020008DC
:1000A00017020008170200081702000817020008CC
:1000B0004D950008170200081702000817020008F3
:1000C00017020008170200081702000817020008AC
:1000D00017020008D5A3000881AA0008A9AD0008EE
:1000E000170200081702000817020008170200088C
:1000F000170200081702000817020008170200087C
:10010000170200081702000817020008170200086B
:10011000F5980008170200081702000817020008E7
:10012000170200081702000817020008170200084B
:1001300000F002F800F052F80AA090E8000C8244A7
:100140008344AAF10107DA4501D100F047F8AFF284
:10015000090EBAE80F0013F0010F18BFFB1A43F0A5
:1001600001031847B0C10000D0C100000A4410F8D4
:10017000014B14F00F0508BF10F8015B240908BFFC
:1001800010F8014B6D1E05D010F8013B6D1E01F8F3
:10019000013BF9D1641E03D0641E01F8015BFBD161
:1001A0009142E4D37047000000230024002500267C
:1001B000103A28BF78C1FBD8520728BF30C148BFCA
:1001C0000B607047642900F08B80732900F008836E
:1001D000002070471FB51FBD10B510BD00F01AFB01
:1001E0001146FFF7F7FF0BF0F5FB00F038FB03B407
:1001F000FFF7F2FF03BC0BF008F900000948804745
:1002000009480047FEE7FEE7FEE7FEE7FEE7FEE7F8
:10021000FEE7FEE7FEE7FEE704480549054A064B10
:1002200070470000ED94000831010008407700207D
:1002300040810020407900204079002072B670474C
:1002400062B67047EFF3108072B6704780F3108883
:10025000704730BF704720BF7047B0FA80F07047DA
:1002600090FAA0F0B0FA80F0704790FAA0F07047D2
:10027000704700000FB4044910B503AA029800F0BB
:10028000B3FA10BC5DF814FB0409002070B50C46ED
:100290000546012A05D02878800600D5EA690023A2
:1002A00002E0012305E05B1C934202D2E05C0028DF
:1002B000F9D1A869E618C01AA861286A184428620A
:1002C0002846AFF3008004E0D5E9012114F8010BC2
:1002D0009047B442F8D32846AFF3008070BD0000C9
:1002E0002DE9F0410646002410687529314616A50F
:1002F00010D0AFF30080002802DA404213A507E0D7
:1003000031688A0701D512A502E0490704D511A575
:10031000012401E0AFF3008000210A2206F1240746
:1003200009E0B0FBF2FCB0FBF2F302FB1C00303042
:1003300078541846491C0028F3D123462A463046F3
:10034000BDE8F04100F0C9B9000000002D00000038
:100350002B000000200000002DE9F05F89460446D4
:100360004FF0000ADFF874B1FB44C0F820A020462B
:10037000E1688847002874D0252806D0D4E90121F7
:100380009047206A401C2062F1E700265F46204625
:10039000E16888472028054607DB312D05D278190A
:1003A00010F8200C08B10643F1E7B00701D526F09C
:1003B0000406C4F81CA00027C4F818A02A2D09D0F0
:1003C00028460BF01BF838B304EB8708303DC8F81B
:1003D000185019E059F8041B204604EB870291617C
:1003E000E1688847012F054618D1E069002820DA26
:1003F00026F020061DE0D8F8180000EB800005EB81
:1004000040003038C8F818002046E16888470546A3
:100410000AF0F4FF0028EED1012F0AD02E2D08D1CA
:100420002046E16888477F1C0546022F46F02006DB
:10043000C4DBA069002803DA404246F00106A0614F
:10044000F00701D026F010066C2D0BD0682D09D0D6
:100450004C2D39D06A2D35D0742D35D07A2D33D02E
:1004600016E038E0E1682F4620468847B842054646
:1004700009D16C2F26D04FF48060E16806432046F6
:100480008847054604E06C2F1AD04FF4807006436D
:100490000DB3A5F14100192802D8203546F40066B5
:1004A0004A462946204626604E46FFF78BFE80B11D
:1004B00001280BD0F61D26F0070000F1080956E7C9
:1004C0004020E4E78020D8E70020D6E706F10409C1
:1004D0004DE7284652E7206ABDE8F09F94BF000030
:1004E00030B505460B462A4613F8014B12F8010BAE
:1004F00008B1A042F8D01CB1002802D06D1CF1E771
:10050000284630BD10B5431C02E010F8011B71B144
:100510008107FAD14FF0013202C88C1A8C4314EAD9
:10052000C211F9D0C01A0A0603D0C01E10BDC01AED
:1005300010BD0A0401D0801E10BD0902FCD0401E6F
:1005400010BD032A40F2308010F0030C00F015803B
:1005500011F8013BBCF1020F624498BF11F801CBC6
:1005600000F8013B38BF11F8013BA2F1040298BF2B
:1005700000F801CB38BF00F8013B11F0030300F095
:100580002580083AC0F0088051F8043B083A51F839
:1005900004CBA0E80810F5E7121D5CBF51F8043B3E
:1005A00040F8043BAFF30080D20724BF11F8013BB1
:1005B00011F801CB48BF11F8012B24BF00F8013B13
:1005C00000F801CB48BF00F8012B704710B5203A66
:1005D000C0F00B80B1E81850203AA0E81850B1E8FC
:1005E0001850A0E81850BFF4F5AF5FEA027C24BFB2
:1005F000B1E81850A0E8185044BF18C918C0BDE8A9
:1006000010405FEA827C24BF51F8043B40F8043B71
:1006100008BF7047D20728BF31F8023B48BF11F826
:10062000012B28BF20F8023B48BF00F8012B704780
:1006300002F0FF0343EA032242EA024200F002B85A
:100640004FF000020429C0F0128010F0030C00F0FB
:100650001B80CCF1040CBCF1020F18BF00F8012B79
:10066000A8BF20F8022BA1EB0C0100F00DB85FEA47
:10067000C17C24BF00F8012B00F8012B48BF00F813
:10068000012B70474FF0000200B513469446964682
:10069000203922BFA0E80C50A0E80C50B1F1200195
:1006A000BFF4F7AF090728BFA0E80C5048BF0CC043
:1006B0005DF804EB890028BF40F8042B08BF7047A1
:1006C00048BF20F8022B11F0804F18BF00F8012B13
:1006D000704770477047704770472DE9F0470D46E7
:1006E00099469246044600F124080168880604D51C
:1006F000E06921F01001216000E00120A84201DD45
:10070000471B00E00027A1697A1902EB0900081ACB
:10071000A0612078C00602D42046AFF300800026F6
:1007200008E0D4E901211AF806009047206A401C2D
:10073000761C20624E45F4DB2078C0060AD52046A0
:10074000AFF3008006E0D4E9012130209047206A11
:10075000401C2062381EA7F10107F4DC07E0D4E951
:10076000012118F805009047206A401C2062281ECD
:10077000A5F10105F3DC2046AFF3008020780006E8
:1007800002D50220BDE8F0870120FBE701694A1C81
:1007900002610878704700B58FB0CDE901310021C2
:1007A000059105497944CDE9031011466846FFF7E4
:1007B000D3FD0FB000BD0000E5FFFFFF10B543699A
:1007C00013B1AFF3008001E0FFF760FD012010BD21
:1007D000127800F124010A7000224A700122EDE72C
:1007E00011684FF0FF32E9E7074B70B50D467B44C7
:1007F000FFF7D1FF0446284600F008F810B14FF08B
:10080000FF3070BD204670BD6BAF0000007B00F074
:1008100080007047754600F029F8AE46050069462D
:10082000534620F00700854618B020B5FFF7F4FCCA
:10083000BDE820404FF000064FF000074FF00008E1
:100840004FF0000B21F00701AC46ACE8C009ACE862
:10085000C009ACE8C009ACE8C0098D467047044641
:10086000AFF300802046FFF7C2FC0000004870474D
:10087000DC7600201D484FF6FF710170002080F3E8
:1008800009881B48016881F308881A484FF0805195
:10089000016062B6FEE717484FF080510160704773
:1008A00014484FF080510160704772B6EFF3098031
:1008B00028B1203880E8F00F0F490968086000B5BA
:1008C0000E4880475DF804EB0D480E490A78027027
:1008D00009480D490A680260106890E8F00F20305E
:1008E00080F309884EF0040E62B6704722ED00E0F6
:1008F0004409002004ED00E0140A002091420008A1
:10090000A2090020A3090020180A002010B5002227
:100910000346C41700EB1474C4F307140C70C41717
:1009200000EB14742411A0EB04144C7000BF0BE016
:100930008B5C0A2B03DA8B5C30338B5402E08B5CCC
:1009400037338B54531CDAB2022AF1DB10BD10B5D9
:10095000012006F0C5FE002006F0C2FE10BD00001A
:1009600008B5014600200090034800900098084414
:1009700000900098008808BD006C004008B5002277
:100980000092044A0092009A02440092009A116078
:1009900008BD0000006C004000B585B0684606F058
:1009A000A5FE019805B000BD08B50121042006F0A0
:1009B00077FE4FF48050ADF8000010208DF8030052
:1009C00003208DF802006946044801F008F84FF44E
:1009D0008051024801F099F808BD0000000801406C
:1009E00010B50020104908600AF0D0FC4FF4FA70EE
:1009F0000AF062FD0AF0CAFC4FF4FA700AF05CFDDE
:100A00000AF0C4FC4FF4FA700AF056FD0AF0BEFC7E
:100A10004FF4FA700AF050FD0AF0B8FC01200349C7
:100A2000C1F8B00110BD0000B00121420000214218
:100A300070B5A4B064210BA8FFF724FE142106A80A
:100A4000FFF720FE142101A8FFF71CFE002401255A
:100A50000026E248006818B1E14800780F283ADB28
:100A60000020DF490870DF480068DC490860412049
:100A70008DF8040054208DF805002B208DF8060019
:100A800053208DF8070074208DF8080061208DF840
:100A9000090072208DF80A0074208DF80B00532095
:100AA0008DF80C0063208DF80D0061208DF80E008C
:100AB0006E208DF80F000D208DF810000A208DF8A3
:100AC00011000E2101A808F0F9FFC7A0FFF7D2FB23
:100AD000CBA0FFF7CFFBCB480068002870D1CA48F5
:100AE0000068C849086000248BE0C84850F824001A
:100AF000002841D1082C3DD2DFE804F0040B121984
:100B000020272E35C248007800F0FE00C04908704A
:100B100031E0BF48007800F0FD00BD4908702AE0D0
:100B2000BB48007800F0FB00B949087023E0B848E2
:100B3000007800F0F700B64908701CE0B44800786F
:100B400000F0EF00B249087015E0B148007800F0FD
:100B5000DF00AF4908700EE0AD48007800F0BF003C
:100B6000AB49087007E0AA48007800F07F00A84968
:100B7000087000E000BF42E0082C3ED2DFE804F03D
:100B8000040B121921282F36A148007840F00100EB
:100B90009F49087032E09E48007840F002009C496E
:100BA00008702BE09A48007840F0040098490870DB
:100BB00024E09748007840F00800954908701DE04F
:100BC00099E09348007840F010009149087015E0D2
:100BD0008F48007840F020008D4908700EE08C4866
:100BE000007840F040008A49087007E088480078A3
:100BF00040F080008649087000E000BF00BF601C24
:100C0000C4B2844800788442FFF66FAF8048007811
:100C10008149097888426ED00024CDE0082C3DD26D
:100C2000DFE804F0040B121920272E3578480078ED
:100C300000F001007949087031E07548007800F053
:100C40000200764908702AE07148007800F004003C
:100C50007249087023E06E48007800F008006F4980
:100C600008701CE06A48007800F010006B490870BA
:100C700015E06748007800F02000684908700EE031
:100C80006348007800F040006449087007E060485D
:100C9000007800F080006149087000E000BF00BFEC
:100CA000082C3ED2DFE804F0040B121920282F365E
:100CB0005948007800F001005949087032E0564860
:100CC000007800F00200564908702BE05248007886
:100CD00000F004005249087024E04F48007800F00A
:100CE00008004F4908701DE04B48007800F01000E4
:100CF0004B49087016E06FE04748007800F020008C
:100D0000474908700EE04448007800F0400044492C
:100D1000087007E04048007800F080004049087003
:100D200000E000BF00BF3D4800783D490978884297
:100D300040D03A4800783A49097888421ADD0520BF
:100D40000BA94855681CC5B204EB8401354A02EB77
:100D50004100052206A907F051FD002607E006A87C
:100D6000805D0BA94855681CC5B2701CC6B2062E22
:100D7000F5DB1FE02948007829490978884219DA0B
:100D800002200BA94855681CC5B204EB8401254A12
:100D900002EB4100052206A907F030FD002607E01E
:100DA00006A8805D0BA94855681CC5B2701CC6B268
:100DB000062EF5DB601CC4B2164800788442FFF6AC
:100DC0002DAF681EC0B28DF82C000BA80AF05CFF96
:100DD0000F4800781049087024B070BD4000002012
:100DE000B4080020BC0800202F2A2A2A2A2A2A2AEE
:100DF0002A2A2A2A2A2A2A2A2A2A2A2F00000000F6
:100E00000D0A00003C000020C008002074260020CD
:100E1000B50800205E000020B6080020CE080020A3
:100E2000CF0800200008020800BFFEE708B5012136
:100E3000082006F035FC4020ADF8000010208DF8A9
:100E4000030003208DF802006946044800F0C7FD46
:100E50004021024800F059FE08BD0000000C01408E
:100E600010B5FD48007808287AD2DFE800F00416B3
:100E70007ADDEFEEEDEC4021F84800F044FE002072
:100E8000F7490870F7490870F3490870F649087087
:100E9000F6490860F6490860F9E1F248007858B967
:100EA0000520F14908700220F0490860F049086007
:100EB0000120EC49087052E0EB48007800283DDD45
:100EC000E8480078012839D1E5480078E8B1E748DA
:100ED0000068401EE54908600846006820B14021CE
:100EE000DE4800F012FE3AE0DD48007808B9012043
:100EF00000E00020DA4908700220DC490860DA4886
:100F00000078401ED849087029E0D9480068401E82
:100F1000D74908600846006820B14021CF4800F05A
:100F2000F2FD1CE0CE48007808B9012000E0002066
:100F3000CB4908700220CE49086010E04021C74824
:100F400000F0E1FD0020C6490870C6490870C2499A
:100F50000870C5490870C5490860C549086096E130
:100F60008DE1C048007858B90320BF4908700520BA
:100F7000BE490860BE4908600120BA49087052E0C5
:100F8000B948007800283DDDB6480078012839D1FD
:100F9000B3480078E8B1B5480068401EB34908601E
:100FA0000846006820B14021AC4800F0AEFD3AE0B0
:100FB000AB48007808B9012000E00020A84908707B
:100FC0000520AA490860A8480078401EA649087074
:100FD00029E0A7480068401EA54908600846006847
:100FE00020B140219D4800F08EFD1CE09C48007817
:100FF00008B9012000E000209949087005209C49AB
:10100000086010E04021954800F07DFD00209449E3
:101010000870944908709049087093490870934982
:1010200008609349086032E18E48007878B905205D
:101030008D49087002208D4908608D4908600120A3
:101040008849087056E0DDE0AFE081E053E0864873
:10105000007800283DDD83480078012839D1804898
:101060000078E8B181480068401E80490860084661
:10107000006820B14021794800F047FD3AE0784807
:10108000007808B9012000E00020754908700120AF
:101090007649086074480078401E7349087029E05A
:1010A00073480068401E724908600846006820B115
:1010B00040216A4800F027FD1CE06948007808B923
:1010C000012000E00020664908700120684908609E
:1010D00010E04021614800F016FD002060490870D2
:1010E000604908705C4908705F4908705F49086092
:1010F0005F490860CBE05B48007850B9C8205B4985
:1011000008604021554800F000FD01205549087055
:101110001DE056480068401E5449086008460068B3
:1011200088B940214D4800F0EEFC00204C49087081
:101130004C490870484908704B4908704B49086091
:101140004B49086003E04021444800F0DEFC9EE08B
:101150004448007850B90A204449086040213F487B
:1011600000F0D3FC01203F4908701DE03F480068B3
:10117000401E3E4908600846006888B9402137484B
:1011800000F0C1FC00203649087036490870324929
:10119000087035490870354908603549086003E032
:1011A00040212E4800F0B1FC71E02E48007850B983
:1011B00005202E4908604021284800F0A6FC0120A7
:1011C000284908701DE029480068401E274908602A
:1011D0000846006888B94021204800F094FC0020AF
:1011E0001F4908701F4908701B4908701E49087084
:1011F0001E4908601E49086003E04021174800F0BE
:1012000084FC44E01748007858B94FF496701749A9
:1012100008604021114800F078FC01201149087055
:101220002CE012480068401E10490860084600681B
:1012300088B94021094800F066FC00200849087080
:101240000849087004490870074908700749086090
:101250000749086012E00DE0B1000020000C0140D9
:10126000B2000020B3000020B0000020A800002041
:10127000AC0000204021074800F047FC07E0402177
:10128000044800F040FC00200349087000BF00BF84
:1012900010BD0000000C0140B100002010B500F0AE
:1012A000FBF800F003F800F0F3F810BD70B500266D
:1012B0000020184908801849088018490860184912
:1012C0000860184908601849086018490860002437
:1012D00000BFFEF7B7FF064600BF00250BE0002069
:1012E0001049086000F074F800F08CF80D480068B0
:1012F0000444681C85B2002DF1D00C480460002025
:10130000084908600849086000BF3046FEF79EFFA4
:1013100000BF70BD2C0900202E09002030090020DC
:10132000340900203C090020400900203809002031
:1013300001460846044A1268904203D9024A1268DC
:10134000801A00E0002070473809002070B50025A1
:1013500000BFFEF777FF054600BF0648046800BFE0
:101360002846FEF773FF00BF2046FFF7E1FF064661
:10137000304670BD3C09002070B50025FFF7E6FF40
:10138000044600BFFEF75EFF054600BF002004498B
:10139000086000BF2846FEF759FF00BF204670BD19
:1013A0003C09002070B5002500BFFEF74BFF054645
:1013B00000BF0648046800BF2846FEF747FF00BF8D
:1013C0002046FFF7B5FF0646304670BD40090020B5
:1013D00010B509480088401C074908800748008864
:1013E00018B900F083F80649086004480088401CDA
:1013F0000249088010BD00002C0900202E090020A1
:101400003009002010B50F480088401E0D490880A3
:1014100008460088A0B900F069F80B490860084642
:1014200000680A490968441A09480068A04201D2C4
:101430000748046007480068A04201D205480460DC
:1014400010BD00002E0900203409002030090020C2
:101450003C0900204009002010B5002400BF00BF57
:10146000FEF7F0FE044600BFFFF7B2FF00BF1021F9
:10147000064801F091FA00BFFFF7C4FF00BF204605
:10148000FEF7E4FE00BF00BF10BD0000C85C0020F6
:1014900010B5FFF7E1FF10BD10B50020024908604C
:1014A00000F00AF810BD000028090020014908607A
:1014B000704700002809002010B5FFF76DFA0446B8
:1014C0000848006840F0807006490860002006491E
:1014D00048600846006840F0010008602046FFF7B9
:1014E000E5FF10BDFCED00E0001000E00149486898
:1014F00070470000001000E00EB502A84FF4CA715A
:101500000A23044ACDE9001003A1064801F040FC7B
:101510000EBD00008448002053746F72616765201F
:101520004D656D006448002008B56B46142202A189
:10153000034801F04FFD08BD4254204D7367000081
:101540004C5800202DE9F041B2B006460D46174632
:101550000024A046C8216846FFF794F800BF58E071
:10156000305D303817284DD2DFE800F00C10141829
:101570001C2024282C304C4C4C4C4C4C4C34383CCB
:101580004044480000200DF804003FE001200DF821
:1015900004003BE002200DF8040037E003200DF8C2
:1015A000040033E004200DF804002FE005200DF8BE
:1015B00004002BE006200DF8040027E007200DF8BA
:1015C000040023E008200DF804001FE009200DF8B6
:1015D00004001BE00A200DF8040017E00B200DF8B2
:1015E000040013E00C200DF804000FE00D200DF8AE
:1015F00004000BE00E200DF8040007E00F200DF8AA
:10160000040003E00F200DF8040000BF00BF601CC1
:10161000C4B2AC42A4D3002412E0204604EBD07143
:101620004910A4EB410101F0FF08B8F1000F05D10A
:101630001DF804000007000E0DF80400601CC4B281
:10164000AC42EAD300240AE01DF81400012101EBAA
:1016500044011DF8011008443855601CC4B2B4EBB5
:10166000550FF1D332B0BDE8F08170B503460020CC
:10167000002400BF0EE033F810402512002606EBD0
:101680004006955513F81050012606EB4006955577
:10169000451CE8B28842EED370BD30B50346002049
:1016A000002400BF10E0002505EB40055C5D4FF60F
:1016B000FF7505EA0424012505EB40055D5D254421
:1016C00022F81050451CE8B2B0EB510FEBD330BDFF
:1016D00014E009F05BFE08F001FA08F069FF09F078
:1016E0009DFA08F019F809F051FE00F081FDFFF7AE
:1016F0009FF900F05DFD0A2009F0DEFEE9E7704782
:101700002DE9F0478AB00746142105A8FEF7BAFF75
:101710000024002514216846FEF7B4FFA2460026E7
:10172000A046A146042205A9564807F067F89DF88F
:101730001A00554908709DF81B00097800EB01203C
:101740005149087008460078C82190FBF1F000F07C
:10175000FF0A97F80690F87900EB0929C820B9FB31
:10176000F0F0C6B2C820B9FBF0F100FB1198474970
:1017700001EBC62040F2ED32454907F03FF800BFCB
:101780000DE008EB880004EB40000A304049085C9B
:1017900008EB880104EB41013D4A5054641C08EBFE
:1017A000880040F2DA71A1EB4000A042E9D8711C38
:1017B000364A02EBC1200522694607F01FF80024D3
:1017C00006E01DF8041004F5FA60314A1154641C57
:1017D0000A2CF6D32D4901EBC62040F2ED322C49FC
:1017E00007F020F828480078401E2749087008466E
:1017F00000788DF81B000846007800128DF81A005A
:10180000042205A91F4807F00DF8B24536D001247F
:101810002FE01E4901EBC42040F2ED321C4906F0D6
:10182000EDFF002505E01A4905F10A00085C48555E
:101830006D1C40F2DA708542F5D3611C134A02EB4D
:10184000C1200522694606F0D9FF002506E01DF8F3
:10185000051005F5FA600E4A11546D1C0A2DF6D3D9
:101860000A4901EBC42040F2ED32094906F0DAFFE3
:10187000641CAAEB0600401CA042CAD80AB0BDE80E
:10188000F0870000000002085E0000200008020847
:10189000B400002008B50121042005F001FF4FF439
:1018A0000060ADF8000010208DF8030003208DF8D3
:1018B00002006946044800F092F84FF400610248C3
:1018C00000F023F908BD00000008014030B50446CF
:1018D00004254FF4302000F06FF80546042D17D191
:1018E0000C48006940F002000A490861084644615A
:1018F000006940F0400008614FF4302000F05CF8CF
:1019000005460448006941F6FD7108400149086137
:10191000284630BD0020024004200B49C96801F070
:10192000010109B101200EE00749C96801F0040175
:1019300009B1022007E00449C96801F0100109B1AA
:10194000032000E0042070470020024003480069A3
:1019500040F080000149086170470000002002400B
:1019600070B504460D460426F00200F025F8064640
:10197000042E11D10948006940F0010007490861AF
:101980002580F00200F018F806460448006941F688
:10199000FE71084001490861304670BD00200240D8
:1019A000024803494860034848607047230167457F
:1019B00000200240AB89EFCD00B502460423FFF7BB
:1019C000ABFF034603E0FFF7A7FF0346521E012BC0
:1019D00001D1002AF7D102B90523184600BD2DE92F
:1019E000F0410246002500260020002300240027A5
:1019F00091F803C00CF00F0591F803C00CF0100C27
:101A0000BCF1000F03D091F802C04CEA050591F833
:101A100000C0BCF1000F31D0146800202BE04FF063
:101A2000010C0CFA00F3B1F800C00CEA03069E4268
:101A300020D183004FF00F0C0CFA03F7BC4305FADA
:101A400003FC4CEA040491F803C0BCF1280F06D152
:101A50004FF0010C0CFA00FCC2F814C00AE091F837
:101A600003C0BCF1480F05D14FF0010C0CFA00FC8B
:101A7000C2F810C0401C0828D1D31460B1F800C0CF
:101A8000BCF1FF0F34DD546800202EE000F1080C9B
:101A90004FF0010808FA0CF3B1F800C00CEA030695
:101AA0009E4221D183004FF00F0C0CFA03F7BC4388
:101AB00005FA03FC4CEA040491F803C0BCF1280FBA
:101AC00005D100F1080C08FA0CF8C2F8148091F85E
:101AD00003C0BCF1480F07D100F1080C4FF001081A
:101AE00008FA0CF8C2F81080401C0828CED35460C5
:101AF000BDE8F0810246002093680B400BB1012045
:101B000000E00020704741617047016170470000AC
:101B100008B569461B4802F08BFB31E005F02AFD51
:101B200009F080FE1849086008460068002822D1A4
:101B3000684602F0A7FC15A0FEF79CFB022019499D
:101B40000870012018490860184806F0D0FB694663
:101B50000C4802F023F96946154802F069FB15A00C
:101B6000FEF788FB00200F49087004201C4908700C
:101B700000200D4908600AF045F9322009F09CFC6C
:101B8000CCE70000AC1900200C0000204750525355
:101B9000C4A3BFE9B3F5CABCBBAFCDEAB1CFA1A323
:101BA0000D0A000028000020000000204044002012
:101BB000E410002047505253C4A3BFE9B3A4CAB1F4
:101BC000BCE4CEB4C4DCB7A2CBCDB3C9B9A6CAFDC0
:101BD000BEDDA3ACD6D8C6F4A1A30D0A0000000058
:101BE000B100002008B538E00024322009F064FC80
:101BF000684602F047FC0546284600F03DF81748C5
:101C0000006830B9164A1749174805F0C1FC134956
:101C100008601248006878B109F0AEFDC4B204B1A2
:101C20000FE00E4801680F4800F020F9C4B2002010
:101C30000A49086004B104E014B90C48006860B1B6
:101C400000BF00240020094908606946084802F0E6
:101C5000A5F86946074802F0EBFAC5E71000002036
:101C600064480020742200204C58002064000020AA
:101C7000E4100020AC19002070B505461248D0F8D9
:101C80001001281A0A281CD90F48D0F800010E4963
:101C9000401A032804DA084606F029FB002070BD2C
:101CA00063210A4800F0B8F904462CB10749491EDF
:101CB0000C70012006490870034806F018FB204606
:101CC000EDE70020EBE7000040440020273B002028
:101CD0007C00002008B54020ADF8000003208DF8FE
:101CE000020010208DF8030069461648FFF777FEC2
:101CF0001020ADF8000003208DF8020010208DF8B0
:101D0000030069461048FFF76AFE4FF48050ADF8B3
:101D1000000003208DF8020010208DF803006946B2
:101D20000A48FFF75CFE10210748FFF7ECFE4FF46E
:101D300080510648FFF7E7FE40210248FFF7E3FE27
:101D400008BD00000010014000080140000C0140E7
:101D500030B5B5B000240025342128A8FEF792FC48
:101D6000142123A8FEF78EFC14211EA8FEF78AFC7E
:101D700000201B901C901D90642102A8FEF782FC9D
:101D80000121082005F08CFC0121102005F088FCC1
:101D90004FF48050ADF8040003208DF806001020A9
:101DA0008DF8070001A92648FFF719FE4020ADF87D
:101DB000040003208DF8060010208DF8070001A90B
:101DC0002048FFF70CFE8020ADF8040003208DF8BA
:101DD000060048208DF8070001A91A48FFF7FFFD0B
:101DE0004FF40040ADF8040003208DF806001020E9
:101DF0008DF8070001A91248FFF7F1FD4FF40070BC
:101E0000ADF8040003208DF8060028208DF80700A7
:101E100001A90C48FFF7E3FD00F026F8322202A9E1
:101E2000094806F0EBFC9DF81200AA2803D19DF8A2
:101E30002600AA2802D005A0FEF71CFA35B030BD56
:101E4000000C01400010014000000208B2E9BFB4DC
:101E50004950BACDB6CBBFDABFC9C4DCC3BBD3D0FF
:101E6000B4E6B4A20D0A0000704700002DE9F0416D
:101E700006460F463946304600F020F8044614B1B5
:101E80002046BDE8F08109F0ADFC04466CB9632141
:101E9000074800F0C1F805460549491E0D700120AC
:101EA00004490870044806F022FA2046E9E70000D9
:101EB000273B00207C000020404400202DE9F04317
:101EC00085B081460C460025A8464B48007812286C
:101ED00002D1B4F5007F03D9002005B0BDE8F0833E
:101EE000002784E0454806F002FA14216846FEF710
:101EF000C9FB4FF400714248FEF7A2FB00264048A0
:101F000040A10A680260496841600825A01C09F0E8
:101F100055FD804642466946A01C09F031FD00BFD0
:101F200006E01DF8062028466D1C35490A54761C2B
:101F30004645F6D32C2228466D1C31490A54694681
:101F4000C4F30720FEF7E2FC9DF8002028466D1C34
:101F50002B490A549DF8012028466D1C0A54E0B212
:101F60006946FEF7D3FC9DF8002028466D1C2449E5
:101F70000A549DF8012028466D1C0A542946204821
:101F800000F045FD002609E019F806001C49FEF79F
:101F9000BDFC02211A4800F03AFD761CA642F3D39C
:101FA0000D20174908700A2048700221144800F0DB
:101FB0002EFD42F2107009F0BFF9FF211448FEF720
:101FC0003FFBFF2212490D4809F019F900F0FF0804
:101FD000B8F1050F06D30F490D48FEF781FA08B195
:101FE00000207AE74FF47A7009F066FA7F1C032F1D
:101FF000FFF478AF012070E7E008002040440020A3
:102000006345002041542B4E4D47533D00000000D6
:1020100063470020A4BF0008F0B505460E463848C7
:10202000D0F800013649441A002305E03448C05C6A
:102030002C2800D102E05B1CA342F7D300BF30483C
:10204000C05C2C2801D00020F0BD00240122012713
:1020500016E0991ADFF8A8C01CF8010009F0D8F9B9
:10206000FF2800D10EE0991ADFF894C01CF8010097
:1020700009F0CEF900FB074407EB87004700521C2C
:10208000032AE6D900BFA41EB44200D93446002278
:102090002BE0591D1144DFF868C01CF8010009F05D
:1020A000B7F9FF2800D123E002F0010078B1591DF3
:1020B0001144DFF84CC01CF8010009F0A9F905EB48
:1020C00052010978084405EB520108700CE0591DD3
:1020D0001144DFF82CC01CF8010009F099F9000741
:1020E000000E05EB52010870521CB2EB440FD0D326
:1020F00000BFB2EB440F01D12046A5E70020A3E7C3
:102100004044002000BFFEE72DE9F04706460F4699
:1021100015460024A0463846FEF7F4F9A84202D935
:102120000020BDE8F087002413E03846FEF7EAF906
:10213000814630194A46394607F0A2F98046B8F17F
:10214000010F05D13846FEF7DDF904442046E8E7E3
:10215000641C3846FEF7D6F9691C081AA042E4D878
:102160003846FEF7CFF9691C081AA04200D10024B6
:102170002046D6E70146CA1701EB92729210A1EBF6
:10218000820292B9642091FBF0F200FB121050B968
:102190004FF4C87091FBF0F200FB121008B9012057
:1021A00070470020FCE70120FAE70020F8E7000074
:1021B00010B50948007801280DD1002006490870A3
:1021C00001200649087009F0DFF9642009F074F96C
:1021D00003A0FEF74FF810BD88000020B1000020DA
:1021E000B7A2CBCDB2E2CAD4D6A10D0A000000003E
:1021F0003EB50024002000900190029047480068FE
:1022000020BB4748006845490860FF208DF8000062
:1022100005F038FB434880788DF80100414840784C
:102220008DF802003F4800788DF803003D48C079E2
:102230008DF804003B4880798DF805003948808886
:10224000C0B28DF80600684609F01EFD36480068E9
:10225000002861D03548006800283FD1022033496A
:1022600008603348007800EB8000324901EB001031
:10227000007898B33048007880BB00240AE02C48EE
:10228000007800EB80002B4901EB0010005D2B492A
:102290000855641C2648007800EB8000254901EBB6
:1022A00000100078401CA042E9D80020204909789D
:1022B00001EB81011F4A02EB011108701C480078F4
:1022C000132803DB00201A49087004E0184800783E
:1022D000401C17490870194806F0BEF816480078E7
:1022E000012819D11648006890B916480078401C9A
:1022F000144908700846007802280ADB002008709C
:1023000011A0FDF7B7FFFFF7AFFD012019490860E5
:1023100002E00A4806F0A0F83EBD0000440000209C
:102320006800002036440020000000204800002003
:1023300075000020FE300020740000209A3000203C
:10234000700000207700002047505253C4A3BFE91B
:10235000B3A4CAB1BCE4CEB4C4DCB7A2CBCDB3C97C
:10236000B9A6CAFDBEDDA3ACD6D8C6F4A1A30D0A9A
:1023700000000000640000202DE9F0479AB00446F8
:102380004FF00008002500260027A946282110A8A4
:10239000FEF778F9282106A8FEF774F9142101A8A0
:1023A000FEF770F9F748007810B94FF0010806E021
:1023B0004FF000080025F3480078401E87B2CEE1B8
:1023C000E81900EBD071C1F34F06781B012873DCCC
:1023D000781B73D1C82095FBF0F0EB4901EBC020CE
:1023E000C82195FBF1F201FB125101EB810100EBD9
:1023F000410A032201A9504606F000FA10AA06215C
:1024000001A8FFF74AF92088BDF84010884218DB80
:102410002088BDF84010884204D16088BDF8421081
:1024200088420EDB2088BDF8401088420DD16088BC
:10243000BDF84210884208D1A088BDF844108842F7
:1024400003DA4FF00108A94689E12088BDF8401061
:1024500088420DD16088BDF84210884208D1A0881A
:10246000BDF84410884203D14FF00208A94676E136
:102470002088BDF84010884218DC2088BDF8401044
:10248000884204D16088BDF8421088420EDC208862
:10249000BDF84010884292D16088BDF84210884251
:1024A0008DD1A088BDF84410884288DD4FF0010826
:1024B000681C1FFA80F952E1E4E0FFE7C82095FBB1
:1024C000F0F0B14901EBC020C82195FBF1F201FB0E
:1024D000125101EB810100EB410A032201A9504690
:1024E00006F08CF910AA062101A8FFF7D6F8681C9F
:1024F000C82190FBF1F0A44901EBC021C82095FB55
:10250000F0F200FB1250401C00EB800001EB400A8F
:10251000032201A9504606F071F906AA062101A876
:10252000FFF7BBF82088BDF84010884218DB2088F0
:10253000BDF84010884204D16088BDF8421088423E
:102540000EDB2088BDF8401088420DD16088BDF8B0
:102550004210884208D1A088BDF84410884203DAAE
:102560004FF00108A946FAE02088BDF840108842E3
:102570000DD16088BDF84210884208D1A088BDF80E
:102580004410884203D14FF00208A946E7E02088B2
:10259000BDF84010884218DC2088BDF84010884201
:1025A00004D16088BDF8421088420EDC2088BDF856
:1025B000401088422DD16088BDF84210884228D151
:1025C000A088BDF84410884223DD2088BDF818108B
:1025D000884218DB2088BDF81810884204D1608832
:1025E000BDF81A1088420EDB2088BDF8181088420A
:1025F0000FD16088BDF81A1088420AD1A088BDF8B2
:102600001C10884205DA4FF00108681C1FFA80F997
:10261000A5E02088BDF8181088420FD16088BDF869
:102620001A1088420AD1A088BDF81C10884205D132
:102630004FF00208681C1FFA80F990E02088BDF86E
:102640001810884218DC2088BDF81810884204D180
:102650006088BDF81A1088420EDC2088BDF818107A
:1026600088427CD16088BDF81A10884277D1A08852
:10267000BDF81C10884272DD4FF00108A81C1FFA3B
:1026800080F96CE0C82096FBF0F03F4901EBC020D8
:10269000C82196FBF1F201FB126101EB810100EB15
:1026A000410A032201A9504606F0A8F810AA062103
:1026B00001A8FEF7F2FF2088BDF84010884218DB21
:1026C0002088BDF84010884204D16088BDF84210CF
:1026D00088420EDB2088BDF8401088420CD160880B
:1026E000BDF84210884207D1A088BDF84410884246
:1026F00002DA701E87B232E02088BDF840108842AE
:102700000DD16088BDF84210884208D1A088BDF87C
:102710004410884203D14FF00208B1461FE02088E0
:10272000BDF84010884218DC2088BDF8401088426F
:1027300004D16088BDF8421088420EDC2088BDF8C4
:10274000401088420BD16088BDF84210884206D103
:10275000A088BDF84410884201DD701C85B2B8F134
:10276000000F3FF42DAEB8F1020F04D1A4F806908B
:102770000120208103E0A4F80690002020811AB0F7
:10278000BDE8F0875E0000200008020808B50121BE
:10279000042004F085FF0220ADF8000048208DF8E9
:1027A000030003208DF8020069460248FFF717F97D
:1027B00008BD00000008014010B502213048FFF7B5
:1027C00099F9012832D12F48006818B900202D4905
:1027D000086004E02B480068401E2A490860294828
:1027E00000682949096888420FD3264800682749AC
:1027F0000968884209D800202249086024490870E5
:10280000244908700120244908701E4800681F49A7
:102810000968884233D300201A4908601C490870AF
:102820001C49087002201C49087028E015480068FF
:102830004EF66021884204D212480068401C1149BB
:1028400008601048006810490968884208D3104899
:10285000007828B901200E49087002200F4908703D
:102860000848006809490968884208D3094800787F
:1028700028B901200749087004200849087010BDD4
:102880000008014098000020900000208C000020EB
:10289000950000209400002088000020B100002056
:1028A00008B50121082004F0FBFE2020ADF800004F
:1028B00010208DF8030003208DF8020069460448BB
:1028C000FFF78DF820210248FFF71FF908BD00002F
:1028D000000C014021480078052839D2DFE800F0DB
:1028E00003070B1E310001201D49086034E0002061
:1028F0001B49086030E01B480068401C194908600B
:1029000008460068642808D915480068C04316497D
:10291000C1F894010020134908601DE011480068C7
:10292000401C1049086008460068282808D90C484F
:102930000068C0430C49C1F89401002009490860AF
:102940000AE007480068C0430749C1F8940103E062
:1029500000200349086000BF00BF70472800002026
:10296000948121422C0000200080214210B51021CA
:102970000348FFF7C8F8642008F09EFD10BD000072
:102980000008014010B510210148FFF7BEF810BD46
:102990000008014000BFFEE730B505460C46224660
:1029A0000021284600F001F830BD2DE9F041034632
:1029B0000C4617460FB9BDE8F08103B9FBE70025C7
:1029C000002202E02D022543521C042AFAD3384685
:1029D00003F0030C1946BCF1000F08D0624603E077
:1029E00001F8014B401E521C08B1042AF8D30E46D0
:1029F00001E020C6001F0428FBD2314602E001F8A6
:102A0000014B401E0028FAD100BFD4E7704770B5D3
:102A100004460D462946204608F0F0F870BD704780
:102A200070B5002100230F22C47804B3154C24682C
:102A300004F4E064C4F5E064210AC1F10403CA406F
:102A4000447804FA03F184781440214309010E4CC0
:102A50000678A155047804F01F050124AC400578E0
:102A60006D11AD0005F1E025C5F8004109E00478DD
:102A700004F01F050124AC40044D0678761145F89A
:102A8000264070BD0CED00E000E400E080E100E0D5
:102A900002490143024A1160704700000000FA0534
:102AA0000CED00E07047000010B50348006810B15D
:102AB00001480068804710BD5809002070B50446E1
:102AC00000F0C2F800204849087048490870484999
:102AD00008704849086048490860484908704849F2
:102AE00008704849087048490860484908604849E2
:102AF000086048490870484800680A21B0FBF1F0B6
:102B0000464908604648006858B14648056845B1DE
:102B10004348066803E0761E002028602D1D002E25
:102B2000F9D10020404908604049086040490860E8
:102B300040490860404908604049086040490860D1
:102B40004049087002F0AEFC02F0C4FD204601F0DE
:102B5000BDFD208800B170BD204602F0EBF9208851
:102B600000B1F8E7204602F0F1F9208800B1F2E761
:102B7000204602F009FB208800B1ECE7204602F075
:102B8000D9FC208800B1E6E7204602F029FF208822
:102B900000B1E0E7204603F093FA208800B1DAE7BD
:102BA000204602F01FF9208800B1D4E7204601F04A
:102BB00029FF208800B1CEE7204604F0E9FA2088FA
:102BC00000B1C8E7204603F0BFF9208800B1C2E792
:102BD000204604F039FB208800B1BCE701F09CFCE2
:102BE000FFF760FF00BFB6E76C0900207409002002
:102BF000BC090020140A0020180A0020A2090020A5
:102C0000A3090020A4090020B0090020B409002075
:102C1000B8090020C409002050C10008C0090020E4
:102C200020C100081CC100084C09002050090020E8
:102C300054090020580900205C0900206009002088
:102C400064090020F20900200A4A1168002002E00D
:102C5000002204C1401C084A12689042F8D3054A79
:102C60001268054B1B6802EB8302121F034B1A60AC
:102C7000704700001CC1000820C100084409002062
:102C800008480078012800D0704707480078FA28E3
:102C900000DBF9E704480078401C0349087000BFD6
:102CA000F2E70000740900206C09002010B5002430
:102CB0002E480078012800D010BD00BFFDF7C2FAF1
:102CC000044600BF2A48007828B900BF2046FDF717
:102CD000BDFA00BFF0E726480078401E244908707E
:102CE00008460078002805DD00BF2046FDF7AEFA53
:102CF00000BFE1E71F480078002805DD00BF20463F
:102D0000FDF7A4FA00BFD7E702F0B8FB1A49087034
:102D10000846007800EB4000184951F82000184997
:102D200008600846006817490968884205D100BF55
:102D30002046FDF78BFA00BFBEE711480068D0F8C7
:102D40009000401C0E490968C1F890000E480068C8
:102D5000401C0D4908604FF080500C49086000BFCE
:102D60002046FDF773FA00BF00BFA5E774090020F5
:102D70006C090020BC090020A30900200473002076
:102D8000180A0020140A0020E809002004ED00E0E1
:102D90002DE9FF4F83B0044615461F46DDE9109626
:102DA000002000904C480078002805DD45F2B9600D
:102DB000308007B0BDE8F08F1DB945F2BB603080B0
:102DC000F7E7022F03DA45F2BC603080F1E7B9F192
:102DD000040F03D245F2C1603080EAE74FF0030AE6
:102DE000BAF1000F0DD005EA0A0018B145F2BB6038
:102DF0003080DEE709EA0A0018B145F2C160308090
:102E0000D7E7AB46A846781E80B20190002002901A
:102E100007E0C844CBF80080C3460298401C80B24B
:102E20000290DDE901108842F3DB0020CBF80000BE
:102E300000BF00BF00BFFDF705FA009000BFFEF71E
:102E4000C7FA00BF25480078401C2449087008468E
:102E50000078012801D102F021FD00BFFEF7D2FA6F
:102E600000BF0098FDF7F2F900BF00BF00BF1C488B
:102E700020600498A0606560E560A7826782A4F87E
:102E80001090204602F042F816480088401C154970
:102E9000088000BF00BF00BFFDF7D4F9009000BF5D
:102EA000FEF796FA00BF0D480078401E0B490870E7
:102EB0000846007808B902F0FFFC00BFFEF7A2FA4E
:102EC00000BF0098FDF7C2F900BF00BF00BF00209F
:102ED000308000BF6DE700006C090020BC090020B5
:102EE0004D454D20980900202DE9F04104460D463E
:102EF00000272CB945F2BF6028800020BDE8F08192
:102F000000BF00BFFDF79EF9074600BFFEF760FA5D
:102F100000BFA08A68B900BFFEF774FA00BF384648
:102F2000FDF794F900BF00BF45F2C2602880002081
:102F3000E4E7E6683068E060A08A401EA08200BF37
:102F4000FEF760FA00BF3846FDF780F900BF00BF0A
:102F5000002028803046D1E72DE9F04104460E4696
:102F60001546002724B945F2BF602880BDE8F081EE
:102F70001EB945F2BE602880F8E700BF00BFFDF72C
:102F800061F9074600BFFEF723FA00BFA08A618AF5
:102F900088420CDB00BFFEF735FA00BF3846FDF76C
:102FA00055F900BF00BF45F2BA602880DEE7E0684F
:102FB0003060E660A08A401CA08200BFFEF722FAC3
:102FC00000BF3846FDF742F900BF00BF002028804F
:102FD00000BFCBE72DE9F04104460F4616461D46DB
:102FE0004FF0000833480078002804DD42F6E16025
:102FF0002880BDE8F0811CB945F6C3502880F8E769
:103000001EB946F294502880F3E700BF00BF00BF0E
:10301000FDF718F9804600BFFEF7DAF900BF264831
:103020000078401C2449087008460078012801D126
:1030300002F034FC00BFFEF7E5F900BF4046FDF7A3
:1030400005F900BF00BF00BF1C4820606760314623
:1030500004F1200002F00EF804F1080002F028F953
:10306000204602F04FFA16480088401C1449088098
:1030700000BF00BF00BFFDF7E5F8804600BFFEF7C8
:10308000A7F900BF0C480078401E0B49087008469D
:10309000007808B902F010FC00BFFEF7B3F900BFDA
:1030A0004046FDF7D3F800BF00BF00BF00202880D6
:1030B00000BF9EE76C090020BC0900205155455512
:1030C000AC0900202DE9F04F89B0074689469046AB
:1030D0001E46DDE912544FF0000B864800780028A8
:1030E00006DD46F2AE102080002009B0BDE8F08F6A
:1030F00027B945F6C35020800020F6E726B946F2EE
:10310000D52020800020F0E7B8F1000F03D0B8F5FB
:10311000004F02D100E000BF04E045F625602080AA
:103120000020E2E700BF74493868884204D045F6C1
:10313000C45020800020D8E70DB10020286000BFD7
:1031400000BFFDF77FF8834600BFFEF741F900BFDF
:1031500023462A46314607F1200001F057FF8246F8
:10316000208850B900BFFEF74DF900BF5846FDF763
:103170006DF800BF00BF5046B7E708F4004068B1E3
:1031800000BFFEF73FF900BF5846FDF75FF800BFEC
:1031900000BF46F2B01020800020A6E75748007814
:1031A00000280DDD00BFFEF72DF900BF5846FDF7E2
:1031B0004DF800BF00BF46F663502080002094E722
:1031C00000BF4E480078401C4C4908700846007803
:1031D000012801D102F062FB00BFFEF713F900BF26
:1031E0005846FDF733F800BF00BF00BF4B4605222D
:1031F000394601A801F0D4FF00BF00BF00BFFDF7B2
:1032000021F8834600BFFEF7E3F800BF3B48007893
:10321000401E3A4908700846007808B902F04CFB95
:1032200000BFFEF7EFF800BF5846FDF70FF800BFEC
:1032300000BF00BF00F0C2F800BF00BFFDF702F8FA
:10324000834600BFFEF7C4F800BF2D48006890F821
:10325000350030B1012815D002282AD0032835D1F5
:103260001DE027480068D0F85CA025480068B0F849
:10327000600030801DB122480068006C286000208A
:1032800020802BE04FF0000A002030801DB11C4848
:103290000068006C286046F2A91020801EE04FF004
:1032A000000A0020308005B1286047F2D920208034
:1032B00014E04FF0000A002030801DB11048006873
:1032C000006C286045F6C250208007E04FF0000AED
:1032D0000020308046F62E60208000BF00BF00BF77
:1032E000FEF790F800BF5846FCF7B0FF00BF00BFE4
:1032F0005046FAE66C09002051554555BC0900209E
:10330000140A00202DE9FF470546884691461F46CE
:103310000C9C25B945F6C3502080BDE8FF87B7F562
:10332000004F19D009DC9FB1102F12D0B7F5007FE4
:1033300010D0B7F5047F13D10DE0A7F50040103889
:1033400058B1B0F5F87F09D0B0F5007F08D106E09C
:1033500000BF00BF00BF00BF00BF00BF00BF03E051
:1033600045F625602080D8E700BF124928688842CA
:1033700003D045F6C4502080CFE7FEF7B7F80646E5
:103380000D48007800280BDD00204B4642462946B8
:10339000CDE9017603940090064801F06BFBBCE791
:1033A0003B464A4641462846CDE9006402F0CEF845
:1033B00000BFB2E7515545556C09002010B50024F7
:1033C00020480078002800DD10BD1F480078002844
:1033D00000DDF9E700BFFCF735FF044600BF02F04F
:1033E0004DF81A4908700846007800EB400018496B
:1033F00051F8200017490860084600681649096816
:10340000884205D100BF2046FCF720FF00BFDBE764
:1034100010480068D0F89000401C0E490968C1F8B7
:1034200090000E480068401C0C4908604FF0805026
:103430000B49086000BF2046FCF708FF00BF00BF33
:10344000C2E700006C090020BC090020A30900208D
:1034500004730020180A0020140A0020E809002044
:1034600004ED00E070B5044600251A4800780028F5
:1034700003DD46F66250208070BD174800780128B1
:1034800003D045F689602080F6E714480078FA28D2
:1034900003DB45F209202080EEE700BF00BFFCF708
:1034A000D1FE054600BFFDF793FF00BF0B48007833
:1034B000401C0A49087002F0F1F900BFFDF7A2FFB5
:1034C00000BF2846FCF7C2FE00BF00BF00202080DE
:1034D00000BFD1E76C09002074090020BC0900205E
:1034E0002DE9F04105460C461646002700BF00BFF7
:1034F000FCF7A8FE074600BFFDF76AFF00BF012DDD
:1035000003D000200E49087002E001200C49087029
:1035100014B10C48046006E00B4800680A21B0FBB7
:10352000F1F00849086000BFFDF76CFF00BF3846A6
:10353000FCF78CFE00BF00BF00203080BDE8F081AA
:10354000C4090020C009002050C1000870B504461D
:10355000002523480078002803DD46F665502080CA
:1035600070BD20480078012803D045F6896020808E
:10357000F6E71D48007818B946F664502080EFE75A
:1035800000BF00BFFCF75EFE054600BFFDF720FF51
:1035900000BF15480078401E13490870084600789F
:1035A00000280CDD00BFFDF72DFF00BF2846FCF70B
:1035B0004DFE00BF00BF46F663502080D0E702F00A
:1035C0007BF900BFFDF71EFF00BF2846FCF73EFE5B
:1035D00000BF00BFFFF7F2FE0020208000BFBFE762
:1035E0006C09002074090020BC09002010B50446B5
:1035F00012480078E8B901F041FF11490870084607
:103600000078104908700E48007800EB40000E4921
:1036100051F820000D490860084600680C49086010
:10362000012006490870FDF725F943F6992020800E
:1036300002E045F68A60208010BD00007409002079
:10364000A3090020A209002004730020180A00200A
:10365000140A00202DE9F04107464FF0000800BF92
:1036600000BFFCF7EFFD804600BFFDF7B1FE00BFD5
:103670000020474908604749088047490880474972
:10368000086047490860474908604749086047495A
:1036900008604749088100BFFDF7B4FE00BF4046FF
:1036A000FCF7D4FD00BF00BF00BF00BFFCF7CAFDA0
:1036B000804600BFFDF78CFE00BF3E48046800BF97
:1036C000FDF7A0FE00BF4046FCF7C0FD00BF00BFF5
:1036D00026E000BF00BFFCF7B5FD804600BFFDF748
:1036E00077FE00BF00207834E06320642060206310
:1036F000A061A082E0826062A062FDF7F7FE206216
:10370000783C04F164060020B081D4F8C04000BFCA
:10371000FDF778FE00BF4046FCF798FD00BF00BFF4
:10372000002CD6D100BF00BFFCF78CFD804600BF47
:10373000FDF74EFE00BF2048056800BFFDF762FEA2
:1037400000BF4046FCF782FD00BF00BF16E000BF8F
:1037500000BFFCF777FD804600BFFDF739FE00BFD4
:1037600005F120060020B081AD6900BFFDF74AFEDB
:1037700000BF4046FCF76AFD00BF00BF002DE6D148
:1037800003F0CEFB03F05CFE00203880BDE8F08142
:103790008809002082090020D2090020E4090020C5
:1037A000F8090020040A002070090020B409002054
:1037B000F8720020EC090020A8090020F8B50446A2
:1037C00000266946364800F033FDBDF8000018B108
:1037D000BDF800002080F8BD6A460021022000F0FC
:1037E000A9FDBDF8000018B1BDF800002080F2E787
:1037F00000BF00BFFCF726FD064600BFFDF7E8FD51
:1038000000BF00202749086000BFFDF7FBFD00BF97
:103810003046FCF71BFD00BF00BF002522480068B2
:1038200022490968884205D91F4800681F4909686C
:10383000B0FBF1F525B91C4800680A21B0FBF1F591
:103840006A460021284600F075FD6946144800F0DC
:10385000A5FABDF8000018B1BDF800002080BAE755
:1038600000BF00BFFCF7EEFC064600BFFDF7B0FD51
:1038700000BF00200E4908600A4800680D49086032
:1038800001200D49087000BFFDF7BCFD00BF3046A8
:10389000FCF7DCFC00BF00BF0020208000BF9AE7DF
:1038A00014760020D409002050C1000838C1000857
:1038B000E4090020D8090020E009002010B50348E1
:1038C000006810B101480068804710BD5C09002005
:1038D0002DE9FF4F87B004469046DDE91BA5DDE9E1
:1038E0001496179F0020039095480078002805DD66
:1038F00047F24A1028800BB0BDE8F08F1CB947F2A0
:10390000AD102880F7E7B8F1000F03D147F24F1050
:103910002880F0E71EB946F62F602880EBE789483B
:103920000068874203D246F630602880E3E71698A5
:10393000B84203D346F631602880DCE7B9F1200FA6
:1039400003D346F273202880D5E7B9F1000F06D1E2
:103950007D48844203D046F273202880CBE7B9F13A
:103960001F0F06D17948844203D046F27320288085
:10397000C1E7204602F0B4FB002028800AF00100D5
:1039800090B10AF0020078B105960020069008E098
:103990000021059801600598001D05900698401CBF
:1039A00006900698B842F3D3169806EB8000049070
:1039B000CDE9007A32464046049B0A9900F0D8FBD4
:1039C0000590C4F828800A98E0620898206284F87C
:1039D0003790059820600498A06019986065199840
:1039E00018B95B480068A06501E01998A0651A98AD
:1039F00060606662A763A4F83CA04FF0000B08E08B
:103A0000002104F17C0040F82B100BF1010000F0C4
:103A1000FF0BBBF1000FF3D004F16400189901F023
:103A200029FB204600F09EF800BF00BF00BFFCF756
:103A300009FC039000BFFDF7CBFC00BF45480078B0
:103A4000401C4449087008460078012801D101F063
:103A500025FF00BFFDF7D6FC00BF0398FCF7F6FB7F
:103A600000BF00BF00BF94F8370001F027FD2046DB
:103A700001F078FE204602F0E9FA37480088401C41
:103A80003549088035480078012837D000BF00BF8D
:103A900000BFFCF7D7FB039000BFFDF799FC00BF08
:103AA0002C480078401E2B49087008460078D0B991
:103AB00001F002FF2A48008800280BDD00BFFDF757
:103AC000A1FC00BF0398FCF7C1FB00BF00BF01F0E1
:103AD000B7FE11E000BFFDF795FC00BF0398FCF7AF
:103AE000B5FB00BF08E000BFFDF78CFC00BF0398EA
:103AF000FCF7ACFB00BF00BF00BFFCE600BF00BF8F
:103B000000BFFCF79FFB039000BFFDF761FC00BF07
:103B100010480078401E0F4908700846007808B920
:103B200001F0CAFE00BFFDF76DFC00BF0398FCF773
:103B30008DFB00BF00BF00BFFFF740FC00BFDAE60F
:103B40006C0900204CC10008307200206871002010
:103B5000C0090020BC090020F009002074090020E1
:103B60008009002010B504460348006818B12046BB
:103B700001490968884710BD4C09002070B504460A
:103B80000D46002678480078002803DD47F24E10E5
:103B9000288070BD7548844203D147F24C102880BC
:103BA000F7E77348844203D147F24D102880F0E7CD
:103BB0009CB900BF00BFFCF745FB064600BFFDF700
:103BC00007FC00BF6B48046800BFFDF71BFC00BF8B
:103BD0003046FCF73BFB00BF00BF00BF00BF00BF8B
:103BE000FCF730FB064600BFFDF7F2FB00BF624862
:103BF0000078401C6049087008460078012801D10F
:103C000001F04CFE00BFFDF7FDFB00BF3046FCF7A6
:103C10001DFB00BF00BF00BF94F8360008282DD25E
:103C2000DFE800F004090E10080A0F11204601F029
:103C3000D9FD5EE05DE000BF204603F055F958E095
:103C400000BF00BF00BF204603F04EF994F83400D7
:103C5000082810D2DFE800F004070508090A0B065F
:103C600000BF00BF08E000BF00BF00BF00BF20468C
:103C700001F056FB00E000BF00BF3AE000BF00BF0C
:103C800000BFFCF7DFFA064600BFFDF7A1FB00BF4F
:103C900039480078401E3849087008460078D0B985
:103CA00001F00AFE3548008800280BDD00BFFDF753
:103CB000A9FB00BF3046FCF7C9FA00BF00BF01F006
:103CC000BFFD11E000BFFDF79DFB00BF3046FCF7D4
:103CD000BDFA00BF08E000BFFDF794FB00BF30460F
:103CE000FCF7B4FA00BF00BF00BF46F62D60288085
:103CF0004FE700BF04F1640001F066F9204600F0D0
:103D000041F8204602F0BAF91D480088401E1C49BF
:103D10000880204602F0E4F9FF2084F8360000BF56
:103D200000BF00BFFCF78EFA064600BFFDF750FB50
:103D300000BF11480078401E0F49087008460078FF
:103D400008B901F0B9FD00BFFDF75CFB00BF3046CC
:103D5000FCF77CFA00BF00BF00BF00202880FFF7FF
:103D60002DFB00BF15E700006C09002068710020E2
:103D700030720020140A0020BC09002080090020B5
:103D8000F009002010B504460348006818B1204629
:103D900001490968884710BD500900207FB50446D5
:103DA0000D46002600BF00BFFCF74CFA064600BFD8
:103DB000FDF70EFB00BF1CB11748006884420CD110
:103DC00000BFFDF71FFB00BF3046FCF73FFA00BF06
:103DD00000BF47F2571028807FBD00BFFDF712FBE0
:103DE00000BF3046FCF732FA00BF00BF0B48007836
:103DF00000280BDD0020009001900346024621467A
:103E0000CDE90205064800F035FEE5E729462046E3
:103E100002F012FB00BFDFE7140A00206C0900204B
:103E20005452455310B504460348006818B1204663
:103E300001490968884710BD540900202DE9F04761
:103E400080460E4614461D464FF000098C48007807
:103E5000002805DD46F2AE1028800020BDE8F0877E
:103E60001EB1B6F5004F02D100E000BF04E045F6F8
:103E7000256028800020F1E700BF0CB10020206001
:103E800000BF00BFFCF7DEF9814600BFFDF7A0FAD6
:103E900000BF7C480068406CB8B37A480068406C4A
:103EA000401E78490968486476480068476C1CB130
:103EB00074480068006C2060FDF718FB71490968C0
:103EC000096C401A6F490968C1F8A4006D48006880
:103ED000D0F8A8006B490968D1F8A410884207D22D
:103EE00068480068D0F8A40066490968C1F8A800CD
:103EF00000BFFDF787FA00BF4846FCF7A7F900BFEF
:103F000000BF002028803846A8E7FFE706F40040FD
:103F100068B100BFFDF776FA00BF4846FCF796F996
:103F200000BF00BF46F2B0102880002096E7564838
:103F3000007800280DDD00BFFDF764FA00BF484699
:103F4000FCF784F900BF00BF46F6635028800020CC
:103F500084E700BF4C480078401C4B490870084675
:103F60000078012801D101F099FC00BFFDF74AFA61
:103F700000BF4846FCF76AF900BF00BF00BF4346D8
:103F800007220021084601F00BF900BF00BF00BF67
:103F9000FCF758F9814600BFFDF71AFA00BF3A480E
:103FA0000078401E384908700846007808B901F0CA
:103FB00083FC00BFFDF726FA00BF4846FCF746F930
:103FC00000BF00BF00BFFFF7F9F900BF00BFFCF75B
:103FD00039F9814600BFFDF7FBF900BF29480068A9
:103FE00090F8350020B1012826D0032834D12CE0E8
:103FF000FCB124480068006C2060FDF777FA214985
:104000000968096C401A1F490968C1F8A4001D48D5
:104010000068D0F8A8001B490968D1F8A4108842AC
:1040200007D218480068D0F8A40016490968C1F8FA
:10403000A8000020288013E01CB112480068006C22
:10404000206046F2A91028800AE00CB10020206010
:1040500047F2D920288003E046F62E60288000BF72
:1040600000BF08480068476C00BFFDF7CBF900BFF0
:104070004846FCF7EBF800BF00BF3846EEE600000C
:104080006C090020140A0020BC0900202DE9F0472B
:1040900005460E4617461C464FF0000A3248007887
:1040A000002804DD47F259102080BDE8F0871EB9D2
:1040B00046F2D5202080F8E71FB946F2D5202080AF
:1040C000F3E700BF00BFFCF7BDF8824600BFFDF775
:1040D0007FF900BF0DB925480568286878B900BF89
:1040E000FDF790F900BF5046FCF7B0F800BF00BFE5
:1040F00000203060386047F252102080D5E795F8F4
:104100003C0000F0010078B900BFFDF77BF900BF6B
:104110005046FCF79BF800BF00BF002030603860BD
:1041200047F254102080C0E700BFFDF76BF900BFD5
:104130005046FCF78BF800BF00BF4FF00008D5F8E1
:10414000249003E009F1040908F10108D9F80000FE
:104150000028F7D0C6F80080A86BA0EB08003860F4
:104160000020208000BFA0E76C090020140A002076
:10417000F0B50446DDE9055602EB85004FF0807C82
:10418000071F3846C7F800C0071F38463C60DFF8F5
:104190009CC0071F3846C7F800C04FF0123C071FED
:1041A0003846C7F800C04FF0033C071F3846C7F831
:1041B00000C04FF0023C071F3846C7F800C0071F79
:1041C00038463B60071F384639604FF0113C071FE7
:1041D0003846C7F800C04FF0103C071F3846C7F8F4
:1041E00000C04FF0093C071F3846C7F800C04FF029
:1041F000083C071F3846C7F800C04FF0073C071FB0
:104200003846C7F800C04FF0063C071F3846C7F8CD
:1042100000C04FF0053C071F3846C7F800C04FF0FC
:10422000043C071F3846C7F800C0F0BDB56500085C
:104230007FB505460C461248854203D147F25B1014
:1042400020807FBD0F48854203D147F25C1020805B
:10425000F7E70D48007800280BDD00200090019062
:10426000034602462946CDE90204084800F002FC54
:10427000E7E72146284602F07DFC00BFE1E70000A9
:1042800068710020307200206C090020545355538F
:1042900070B52448006810B1224800688047FDF7D7
:1042A00025F904462048006820490968884215D04D
:1042B0001D480068D0F89800201A1B490968C1F809
:1042C000940019480068D0F89C0017490968D1F893
:1042D0009410084414490968C1F89C001348006808
:1042E000C0F89840FDF748F805460F480068D0F838
:1042F000B400A84203D20C480068C0F8B4500A4881
:104300000068D0F8B8000A490968884205D2084810
:10431000006805490968C1F8B80000200449086030
:1043200070BD000060090020140A0020180A002057
:10433000B80900202DE9F04105460E461446002735
:104340004D480078002804DD47F275202080BDE844
:10435000F0814A480078002803DD46F6635020804B
:10436000F5E736B1022E05D0042E0AD0082E09D169
:1043700001E000BF00BF1DB947F27E202080E6E7C4
:1043800004E003E045F625602080E0E700BF00BFC1
:1043900000BF00BFFBF756FF074600BFFDF718F848
:1043A00000BF36480078401C344908700846007841
:1043B000012801D101F072FA00BFFDF723F800BF18
:1043C0003846FBF743FF00BF00BF00BF01202C4968
:1043D000096881F836002346324629462848006895
:1043E00002F0A4FC2088F0B100BF00BF00BFFBF7C3
:1043F00029FF074600BFFCF7EBFF00BF1F4800780E
:10440000401E1E4908700846007808B901F054FAA9
:1044100000BFFCF7F7FF00BF3846FBF717FF00BFF0
:1044200000BF00BF93E71648006801F0DBF900BF4A
:1044300000BF00BFFBF706FF074600BFFCF7C8FF41
:1044400000BF0E480078401E0C49087008460078EE
:1044500008B901F031FA00BFFCF7D4FF00BF3846BD
:10446000FBF7F4FE00BF00BF00BFFEF7A7FF002070
:10447000208000BF6BE700006C090020BC09002011
:10448000140A002070B50446002600BF00BFFBF7E9
:10449000D9FE064600BFFCF79BFF00BF0748056832
:1044A00000BFFCF7AFFF00BF3046FBF7CFFE00BFF9
:1044B00000BF00202080284670BD0000F4090020C5
:1044C00010B586B000F01EF8FDF710F8044605A8F8
:1044D00000210091CDE9011403900748007800EB1A
:1044E0004000064A02EB800100231A46044800F00F
:1044F000C1FA06B010BD0000A2090020047300201C
:104500005449434B10B50348006810B10148006896
:10451000804710BD64090020254A2649264A274ABB
:104520002749284A2848294A294A2A4A2A4A2B48F8
:104530002B482C482C4A2D482D4A2E482E4A2F48CD
:104540002F4830483048314A314A324A3248334A9B
:10455000334A344834483548354836483648374871
:10456000374A384A384A394A39483A483A483B4A39
:104570003B4A3C4A3C483D483D483E493E483F4A0C
:104580003F4A404A404A414A414A424A4248434AD5
:10459000434A44484448454A454A4648464A474AA9
:1045A00047484848484800BF00BF00BF7047000068
:1045B00094C10008FCC2000895C1000896C100081B
:1045C00098C100089CC10008A0C100089DC1000856
:1045D000C8C10008C9C10008CAC10008CCC1000890
:1045E000CEC10008D0C10008D2C10008D4C1000863
:1045F000F4C10008F6C10008F8C10008FAC10008BB
:10460000FCC10008FEC1000800C200082CC200085E
:104610002DC200082EC2000830C2000832C20008B5
:1046200033C2000834C2000836C2000838C200088D
:104630003AC200083CC200083EC2000840C200085E
:1046400070C2000871C2000872C2000873C200087C
:1046500074C2000876C2000878C20008A0C2000830
:10466000A1C20008A2C20008A3C20008A4C2000898
:10467000A6C20008A8C20008ACC20008ADC200086B
:10468000AEC20008AFC20008B0C20008B1C2000844
:10469000B2C20008B3C20008B4C20008B6C2000823
:1046A000B7C20008B8C20008BAC20008BCC20008FD
:1046B000BDC20008C0C20008F4C20008F5C200086C
:1046C000F6C20008F8C20008FAC200080021034A36
:1046D0001160034A11800180704700008C0900209E
:1046E000900900202DE9F04F85B004468946924696
:1046F0009B46DDF838800020009000BF00BFFBF72C
:10470000A1FD009000BFFCF763FE00BFBAF1000FEF
:104710000AD0BAF1010F0DD0BAF5004F05D06FF4F1
:104720000040504460B906E000BF206A40EA09003A
:10473000206216E000BF206A20EA0900206210E033
:1047400000BFFCF75FFE00BF0098FBF77FFD00BFD6
:1047500000BF45F62560A8F80000002005B0BDE8C0
:10476000F08F00BFC4F824B004F108000190019854
:10477000008968B900BFFCF745FE00BF0098FBF751
:1047800065FD00BF00BF0020A8F80000206AE5E733
:1047900000BF71480078401C6F49087008460078D7
:1047A000012801D101F07AF800BFFCF72BFE00BF11
:1047B0000098FBF74BFD00BF00BF00BF01980768E2
:1047C000BD6889E07868029095F8880000F00F00D5
:1047D00003900398012821D002282ED0042802D06B
:1047E000082836D10EE0206AD5F8801000EA0106CC
:1047F000D5F88000B04204D15A463146284600F030
:10480000AFF863E0206AD5F8801000EA010626B10F
:104810005A463146284600F0A3F857E0D5F8800004
:10482000216A20EA0106D5F88000B04204D15A4638
:104830003146284600F094F848E0D5F88000216A17
:1048400020EA010626B15A463146284600F088F88B
:104850003CE000BF00BF00BFFBF7F4FC009000BFCE
:10486000FCF7B6FD00BF3C480078401E3A4908708E
:1048700008460078D0B901F01FF8384800880028B1
:104880000BDD00BFFCF7BEFD00BF0098FBF7DEFCB0
:1048900000BF00BF00F0D4FF11E000BFFCF7B2FD85
:1048A00000BF0098FBF7D2FC00BF08E000BFFCF798
:1048B000A9FD00BF0098FBF7C9FC00BF00BF00BF07
:1048C00043F6FF20A8F80000002047E700BF029F42
:1048D0000FB1BD6800E00025002D7FF473AF00BF6D
:1048E00000BF00BFFBF7AEFC009000BFFCF770FDFF
:1048F00000BF19480078401E174908700846007824
:1049000008B900F0D9FF00BFFCF77CFD00BF00989C
:10491000FBF79CFC00BF00BF00BF0AF4004008B9D1
:10492000FEF74CFD00BF00BFFBF78CFC009000BF02
:10493000FCF74EFD00BF206A049000BFFCF762FD4B
:1049400000BF0098FBF782FC00BF00BF0020A8F862
:104950000000049802E70000BC0900208009002044
:1049600070B504460E461546343426650020607046
:104970002070E560A078343C082816D2DFE800F00B
:10498000040508090706101100BF00BF00BF0DE0B5
:1049900000BF204601F042FD002084F8360005E00B
:1049A00000BF042084F8360000E000BF00BF2046AE
:1049B00000F0B6FC70BD0000002400BF1DE000BF89
:1049C00000BFFBF73FFC044600BFFCF701FD00BF42
:1049D0000A480068401C0949086009480068401CF2
:1049E0000749086000BFFCF70DFD00BF2046FBF73C
:1049F0002DFC00BF00BFFEF757F8E0E76809002074
:104A0000D409002010B58AB0044600200E49086081
:104A10000B2000210591CDE90704069108460B49BA
:104A200009680B4A12680B4B1B68CDE90132CDE9CE
:104A300003101F200023084A08A100900C48FEF72D
:104A400047FF0AB010BD000068090020F8C0000848
:104A5000F4C00008F0C00008B949000875432F4FA2
:104A6000532D4949492049646C65205461736B009A
:104A7000687100202DE9F84F04460D4616461F4682
:104A8000DDE90BABDDF82890DDF8348000200090E4
:104A900000BF00BFFBF7D6FB009000BFFCF798FCFF
:104AA00000BF2C4800882C49098888423EDA2948F2
:104AB0000088401C274908802848008809888842C7
:104AC00003DA2448008825490880254800680460E6
:104AD00023480068856022480068C6602048006856
:104AE00007821F480068C0F814901D480068A0F8AD
:104AF00018A01B480068C0F81CB01948006840683E
:104B00001749086001201749088117480860486064
:104B1000002000F0D3FC1548007818B11348007845
:104B2000134908700020A8F8000008E01148008828
:104B3000401C1049088044F25360A8F8000000BFF0
:104B4000FCF760FC00BF0098FBF780FB00BF00BFD4
:104B5000BDE8F88F8009002004C100088209002008
:104B6000780900200473002030720020A209002080
:104B7000A4090020840900203EB559480068006857
:104B8000584A811A904279D00FDC574908440028CE
:104B90003ED056490844A8B155490844002860D081
:104BA0005449084400286AD13FE05348084400288B
:104BB00050D052490844002862D051490844002886
:104BC000F1D110E002A8464D00902D68EB69444DEC
:104BD0002D682A8B424D2D686969414D2D68A86862
:104BE000FFF780FD7AE002A93D480068C0693C4DAE
:104BF000CDE900012D682B8B394D2D682A8A384D5F
:104C00002D68E968364D2D68A86800F09FFC65E0C6
:104C1000334B1B68DA69324B1B68198B304B1B68AE
:104C2000986802AB00F0E8FE58E002A92C48006842
:104C3000C0692B4DCDE900012D682B8B284D2D68C7
:104C40002A8A274D2D68E968254D2D68A86801F04E
:104C5000AFFA43E022490968886802A901F0ECFB39
:104C60003CE01F4B1B68DA691D4B1B68198B1C4B02
:104C70001B68986802AB01F0A9FC2FE007E02CE06C
:104C800017490968886802A901F074FF26E01D49E8
:104C9000097801EB41011C4A02EB810000F02AFE79
:104CA0000F48006802AB0021C269184801F08EFC71
:104CB00017480068401E164908600846006858B941
:104CC000144800680860FCF711FC044602AB224659
:104CD0000021114801F07AFC00E000BF00BF3EBD9A
:104CE0007C0900205449434BADBAB2BE0DF90BFA12
:104CF000F2F8F7FF0006F6FF00F7FDF700FFEFFF01
:104D000003FE0FFEA4090020047300204C75002050
:104D1000100A00200C0A002014760020002700BF93
:104D200056E0002652E000BF00BFFBF78BFA0746B3
:104D300000BFFCF74DFB00BF2648008898B9002053
:104D4000254908810860486000F0CAFB00BFFCF7F5
:104D500059FB00BF3846FBF779FA00BF00BFFEF7EA
:104D60002DFB012632E000BFFCF74CFB00BF3846AC
:104D7000FBF76CFA00BF00BFFCF7B8FB0546FFF776
:104D8000FBFEFCF7B3FB441B14480068A04201D2B1
:104D90001248046000BF00BFFBF754FA074600BF8B
:104DA000FCF716FB00BF0E48006840680C4908601D
:104DB00008480088401E0749088000BFFCF722FB16
:104DC00000BF3846FBF742FA00BF00BF002EAAD052
:104DD000A7E7000080090020047300208809002054
:104DE0007C090020F0B589B00546002031490880D3
:104DF0003148006820B944F25260288009B0F0BD03
:104E00002E480088022803DA44F254602880F5E72F
:104E100000202B49086028480468264620360027D1
:104E20000CE0284820600020A060E06020826061E3
:104E30002083666020342036781C87B21F480088A3
:104E40008742EEDB203C1C48066866601E48066010
:104E50001E48066000201E4908801E4908801E4822
:104E6000006818B944F255602880C7E71B480068FD
:104E70001B490968884203D244F256602880BDE786
:104E8000032000210591CDE907050691134800682C
:104E9000144A1268104B1B68CDE90301CDE90132B9
:104EA00000910B46104A11A11748FEF711FD00BFF3
:104EB000A4E700008409002000C1000804C1000824
:104EC000880900204E4F4E45780900207C090020BB
:104ED00080090020820900200CC1000814C10008CC
:104EE0004CC1000810C100081D4D000875432F4F2C
:104EF000532D494949204953522051756575652004
:104F00005461736B00000000307200200021816149
:104F10000749096811B90021C16105E00449096820
:104F2000C161034909688861014908607047000050
:104F3000940900200021034A1160034A1180018076
:104F400070470000940900209809002070B50146C0
:104F50001A4D2D681DB945F21E750D8070BD184D96
:104F60002D881DB945F21D750D80F7E7134D286892
:104F70002A681032124D2D886D1EACB2002308E055
:104F80000260002545600581C560103010325D1C4F
:104F9000ABB2A342F4DB0025056045600581C56026
:104FA000064D2D68074E3560054D2D88B5800025CE
:104FB000F58035810D8000BFD0E7000030C10008CA
:104FC00028C10008F872002010B5014648894B89B5
:104FD000002B17DD0A680C4B1B6813600A4C4B68EA
:104FE00023602346DB884C891B1B074CE380234648
:104FF0009B884C892344044CA38000234B818B81E4
:105000000B604B6010BD0000F8720020F0B5044644
:105010000D46608940B90020288002B1106046F238
:10502000925018800020F0BD61684E680889288081
:105030000AB1C868106008686060606818B900202C
:105040002060608102E06089401E6081084800683D
:105050000860074801608088401C054FB8803846CA
:10506000C088401EF880002018803046DBE7000032
:10507000F872002001810022428182810260426038
:10508000704700002DE9F0410D46DDE90674B0F8E7
:105090000AC0B0F80880C44505DB46F2935CA4F86A
:1050A00000C0BDE8F081DFF8DCC0BCF804C0BCF192
:1050B000000F04D145F21D7CA4F800C0F1E7DFF831
:1050C000C4C0DCF80010DFF8BC80D1F800C0C8F81C
:1050D00000C0C446BCF804C0ACF1010CA8F804C080
:1050E000C446BCF806C00CF1010CA8F806C0C446C2
:1050F000BCF808C0B8F80680C44507DADFF884C0F9
:10510000BCF806C0DFF87C80A8F808C0B0F80AC078
:10511000BCF1000F0AD1016041604FF0010CA0F812
:105120000AC04FF0000CC1F800C017E003F0100CEB
:10513000BCF1000F07D10668316001604FF0000C30
:10514000C1F800C004E0D0F804C0C1F800C041605C
:10515000B0F80AC00CF1010CA0F80AC0B0F80CC0FD
:10516000B0F80A80C44503DAB0F80AC0A0F80CC051
:105170004D600A81CF604FF0000CA4F800C000BF62
:105180008FE70000F87200200021034A1160034AF3
:1051900011800180704700009C090020A0090020B8
:1051A0002DE9F04105460C4616461F461548006895
:1051B00080F8346000201349096881F835003946C9
:1051C0001048006800F026FF6CB104F10808EC609C
:1051D000012229460B48006800F016F8294640468F
:1051E00000F06BF806E0002006490968C887054909
:1051F0000968086303480168204600F019F8BDE813
:10520000F0810000140A002010B5C287016300235A
:105210000AE000244C600C600C614C610C83CC6192
:10522000886020315C1CA3B29342F2DB10BD000009
:1052300030B548B14568C1F8C45000F1080422688F
:1052400093681D6AC56113E091F83450022D02D0B5
:10525000072D08D103E007A5C1F8C45007E007A552
:10526000C1F8C45003E008A5C1F8C45000BF00BF96
:1052700030BD00005461736B205100005461736BAA
:105280002053656D000000002000000030B507A528
:10529000C1F8C45000F1080422681AB193681D6A6D
:1052A000C56101E001A5C56130BD0000200000001E
:1052B00000210160416001817047F0B58E6896F869
:1052C000375007893FB90127078100274F600F60DA
:1052D0000160416023E007897F1C0781026806E0C6
:1052E000946894F83770AF4200DD02E05268002AFB
:1052F000F6D100BF32B900274F6043680B60596098
:1053000041600CE017682FB9116000270F604A60F8
:10531000016004E013680B604A6059601160F0BDE1
:105320002DE9F0410446256BE68F0AE0D5F80C80A4
:1053300008F108072946384600F00AF82035701EA3
:1053400086B2002EF2DC0020E0872063BDE8F08109
:1053500010B50489012C03D100240460446011E0DD
:105360000C6824B94A680024146002600AE04C68A2
:1053700024B90B6800245C60436003E00B684A6852
:105380005A6013600489641E048100244C600C6020
:1053900010BD2DE9F84306460C4617469846089D71
:1053A00094F83600082850D2DFE800F00405080918
:1053B00006072B2C00BF00BF00BF47E000BF94F8DA
:1053C0003400032807D143463A462146304600952B
:1053D00000F03FF803E0E765A4F86080256436B18B
:1053E0002046FFF79DFF21463046FFF74FFF20463E
:1053F00001F014F800203434A070607004F834090F
:1054000024E000BF94F83400032807D143463A460D
:1054100021463046009500F01CF803E0E765A4F84B
:1054200060802564204601F05FFD36B12046FFF71D
:1054300077FF21463046FFF729FF04203434A0705F
:105440000020607004F8340900E000BF00BFBDE830
:10545000F883F0B50446059E086BCD8F0AE0C76857
:10546000A74204D1046142610383C66104E0203095
:105470006F1EBDB2002DF2DC00BFF0BD70B500257F
:10548000074C03E005F12000C5B2241D2068002868
:10549000F8D02068FAF7E1FE2844C5B2284670BD6E
:1054A00048090020002004E00021034A42F82010AF
:1054B000401C0028F8D070474809002030B5420948
:1054C00000F01F030121C3F11F04A140034C54F855
:1054D00022400C43014D45F8224030BD48090020D0
:1054E00030B5420900F01F030121C3F11F04A140A0
:1054F000034C54F822408C43014D45F8224030BD06
:105500004809002009A1C1610021416108490968D9
:1055100011B90021816105E00549096881610449EB
:1055200009684861024908607047000020000000D7
:10553000A80900200021034A1160034A118001805C
:1055400070470000A8090020AC0900202DE9F04FA9
:1055500085B007468A4693461C460020029000BF4D
:1055600000BF00BFFAF76EFE029000BFFBF730FFEE
:1055700000BF56480078401C54490870084600781F
:10558000012801D100F08AF900BFFBF73BFF00BF03
:105590000298FAF75BFE00BF00BF00BF07F10806E4
:1055A000308900284CD104F0100010B94FF00008E9
:1055B00001E04FF01008DDE90E0143465A46CDE9FF
:1055C0000001514607F12000FFF75CFD00BF00BF5E
:1055D00000BFFAF737FE029000BFFBF7F9FE00BFED
:1055E0003A480078401E3949087008460078D0B91A
:1055F00000F062F93648008800280BDD00BFFBF799
:1056000001FF00BF0298FAF721FE00BF00BF00F0C3
:1056100017F911E000BFFBF7F5FE00BF0298FAF79B
:1056200015FE00BF08E000BFFBF7ECFE00BF0298CC
:10563000FAF70CFE00BF00BF00BF05B0BDE8F08F59
:1056400004F4007008B1358900E00125D6F8009017
:1056500011E0D9F808000390D9F8040004900E98DE
:105660005B465246009038460399FFF792FEDDF8FC
:105670001090681E85B2002DEBD100BF00BF00BFA7
:10568000FAF7E0FD029000BFFBF7A2FE00BF0F4853
:105690000078401E0D4908700846007808B900F0EF
:1056A0000BF900BFFBF7AEFE00BF0298FAF7CEFD84
:1056B00000BF00BF00BF04F4004008B9FDF77EFE44
:1056C00000210F98018000BFB7E70000BC0900204F
:1056D0008009002000210AE001EB4102054B03EBA9
:1056E000820000220281026042604A1CD1B220295D
:1056F000F2D370470473002010B5044694F83700C5
:10570000FFF7DCFE94F8370005490978884203D199
:10571000204600F027F802E0204600F003F810BD14
:10572000A209002010B590F8373003EB43030C4C6E
:1057300004EB83010B893BB901230B810023C36078
:1057400003610860486009E00B895B1C0B810B68F2
:10575000C360002303610A681061086010BD000087
:105760000473002010B590F8373003EB43030B4C63
:1057700004EB83010B893BB901230B810023C36038
:1057800003610860486008E00B895B1C0B81002303
:10579000C3604A680261D060486010BD0473002095
:1057A00010B501460C8924B1012C03D0022C0CD178
:1057B00001E000BF14E008684A6802610024C46088
:1057C0001461D0600A6048600AE008684A68C368EB
:1057D00000241C61C4600261D0600B60486000BF9F
:1057E00000BF10BD2DE9F041054695F8370000EBEC
:1057F0004000124901EB80042F69EE6887B946B971
:10580000002020812060606095F83700FFF768FE77
:105810000EE02089401E208100203061266007E0D4
:105820002089401E2081FE600EB9676000E037616C
:1058300000202861E860BDE8F081000004730020CA
:1058400010B5002400BFFAF7FDFC044600BF00209D
:105850000D4908700D480E49086008460068D0F8E8
:105860009000401C0968C1F890000A480068401C7C
:10587000084908604FF080500749086000BF204683
:10588000FAF7E4FC00BF10BDA3090020307200202D
:10589000180A0020E809002004ED00E010B50448D3
:1058A0000078012803D1FBF721FE0249086010BDF2
:1058B000BC090020B009002010B50A48007880B962
:1058C000FBF714FE08490968441A08480068A0421A
:1058D00001D20648046006480068A04201D204488C
:1058E000046010BDBC090020B0090020B4090020EC
:1058F000B809002070B50546002635480078012813
:1059000000D070BD00BF00BFFAF79CFC064600BF88
:10591000FBF75EFD00BF2C684CB900BFFBF772FDC2
:1059200000BF3046FAF792FC00BF00BFE9E7294804
:10593000844209D100BFFBF765FD00BF3046FAF78E
:1059400085FC00BF00BFDCE7A06D10B1A06D401E5C
:10595000A065A06D48B100BFFBF754FD00BF304605
:10596000FAF774FC00BF00BFCBE72889022809DAE8
:1059700000BFFBF747FD00BF3046FAF767FC00BFEA
:1059800000BFBEE714480078002809DD00BFFBF720
:1059900039FD00BF3046FAF759FC00BF00BFB0E741
:1059A0002846FFF7FDFE2C68606D18B90B480068AB
:1059B000A06501E0606DA06500BFFBF723FD00BF9F
:1059C0003046FAF743FC00BF00BF00BF99E7000074
:1059D000C409002068710020BC090020C009002013
:1059E0000021034A1160034A1180018070470000C2
:1059F000C8090020CC0900202DE9FF5F0446884635
:105A000091461D460020019000BF00BFFAF71AFC26
:105A1000019000BFFBF7DCFC00BF04F108073889E8
:105A2000002857D10420012804D0022816D00428C9
:105A30003AD127E0206AFF280FD100BFFBF7E2FC34
:105A400000BF0198FAF702FC00BF00BF46F6C55040
:105A50002880002004B0BDE8F09F26E04FF6FF71DB
:105A6000206A88420DD100BFFBF7CCFC00BF019833
:105A7000FAF7ECFB00BF00BF46F6C55028800020B7
:105A8000E8E712E0206A401C68B900BFFBF7BAFCE7
:105A900000BF0198FAF7DAFB00BF00BF46F6C55019
:105AA00028800020D6E700E000BF00BF206A401C2D
:105AB0002062D4F820A0C4F8249000BFFBF7A2FC19
:105AC00000BF0198FAF7C2FB00BF00BF002028808A
:105AD0005046BFE700BF2D480078401C2B49087096
